S017000044492D3630315F4D50552D363035302E7372656373
S113000029C043C042C0C2C440C03FC03EC03DC07E
S11300103CC03BC03AC0F2C438C01CC536C035C071
S113002034C033C032C0084AD73B3BCE016E84BCD7
S1130030BFFDC12F3D6C74319ABD56833DDA3D003E
S1130040C77F11BED9E4BB4C3E916BAAAABE000087
S113005000803F0011241FBECFE5D4E0DEBFCDBF3A
S113006010E0A0E6B0E0EAE3F6E102C005900D92EC
S1130070A236B107D9F721E0A2E6B0E001C01D9293
S1130080A834B207E1F71CD5D6CABACF84EA86BF32
S113009006B607FC07C080E197E206B607FC02C07B
S11300A00197D9F781B1887F089583B984E886BF21
S11300B006B607FC07C080E197E206B607FC02C05B
S11300C00197D9F781B1887F089588EE93E001976D
S11300D0F1F784EC86BF06B607FC07C080E197E21F
S11300E006B607FC02C00197D9F783B1089584E8E6
S11300F086BF06B607FC07C080E197E206B607FC98
S113010002C00197D9F783B1089584E986BF06B682
S113011004FE07C080E197E206B604FE02C0019720
S1130120D9F7089581E081B98AE080B984E086BF77
S11301300895DF92EF92FF920F931F93CF93DF9373
S1130140D82EEB018A01209799F0E12CF12CC801FB
S11301509DDF883019F4B8018D2DA7DF883129F48B
S1130160C801D3DF8FEFE81AF80A219781F702C09C
S1130170E12CF12C81E0EF2809F480E0DF91CF91AC
S11301801F910F91FF90EF90DF9008952F923F926F
S11301904F925F926F927F928F929F92AF92BF9293
S11301A0CF92DF92EF92FF920F931F93CF93DF933F
S11301B0C82F2A013B01D22F1501A50161E070E08F
S11301C0B8DF813009F096C0C50160DFD83041F551
S11301D0883099F4D301C201689416F8B695A795AE
S11301E0979587951694D1F78E70B5018C2B5DDFAA
S11301F0812C912C5401839403C0812C912C5401A3
S1130200883141F4B101842D50DF9FEF891A990A96
S1130210A90AB90AC114D104E104F10481F543C067
S11302208830A1F4D301C201072E7FE0B695A795CB
S1130230979587957A95D1F7702D8270B5018C2B9F
S113024034DF812C912C5401839403C0812C912C94
S11302505401883141F4B101852D27DFEFEF8E1A67
S11302609E0AAE0ABE0A883209F048C0B101842D44
S11302701CDFFFEF8F1A9F0AAF0ABF0ACBCF2601FC
S11302803701883251F4B101F80181918F010DDFFA
S1130290FFEF8F1A9F0AAF0ABF0A91E0491A51086B
S11302A06108710871F7883239F4C1012EDFEFEF6C
S11302B08E1A9E0AAE0ABE0AD83069F4F3E0CF0E55
S11302C0D11CE11CF11C81E0C814D904EA04FB042C
S11302D0E1F080E01AC0D03179F484E0C80ED11C7A
S11302E0E11CF11C81E0C814D904EA04FB0469F0A0
S11302F080E00BC080E009C080E007C0C114D104D5
S1130300E104F10409F0BBCFE6CFDF91CF911F9157
S11303100F91FF90EF90DF90CF90BF90AF909F90A0
S11303208F907F906F905F904F903F902F900895A3
S11303302F923F924F925F926F927F928F929F92F1
S1130340AF92BF92CF92DF92EF92FF920F931F93DF
S1130350CF93DF93C82F2A013B01D22F1501A501AA
S113036061E070E0E6DE813009F0C1C0C5018EDED7
S1130370D83019F5883099F4D301C201689416F87D
S1130380B695A795979587951694D1F78E70B50174
S11303908C2B8BDE812C912C5401839403C0812CF3
S11303A0912C54018831B1F5B101842D7EDE9FEF8B
S11303B0891A990AA90AB90A2DC08830A1F4D3016F
S11303C0C201072E7FE0B695A795979587957A95F4
S11303D0D1F7702D8270B5018C2B67DE812C912CA6
S11303E05401839403C0812C912C5401883141F42D
S11303F0B101852D5ADEEFEF8E1A9E0AAE0ABE0AAF
S1130400883289F4B101842D50DEFFEF8F1A9F0AE0
S1130410AF0ABF0A883239F4C10138DE9FEF891A66
S1130420990AA90AB90A803149F4B1018C2F816073
S11304303CDEEFEF8E1A9E0AAE0ABE0AF2E0CF1639
S1130440D104E104F104E8F026013701982F9F7EDE
S1130450903461F4C10139DEF80181938F0181B1D7
S1130460887FFFEF8F1A9F0AAF0ABF0A91E0491AEB
S1130470510861087108E1E04E16510461047104E9
S113048029F7982F9F7E903459F4C10130DEF8018A
S1130490808381B1887FFFEF8F1A9F0AAF0ABF0A5A
S11304A0883539F4C10131DE8FEF881A980AA80A19
S11304B0B80AD83069F495E0C90ED11CE11CF11CCE
S11304C081E0C814D904EA04FB04A1F080E012C05E
S11304D0D03179F4E6E0CE0ED11CE11CF11C81E0B0
S11304E0C814D904EA04FB0429F080E003C080E0C6
S11304F001C080E0DF91CF911F910F91FF90EF90A9
S1130500DF90CF90BF90AF909F908F907F906F902F
S11305105F904F903F902F900895CF93DF9300D03A
S113052000D0CDB7DEB769837A838B839C83FE01C9
S11305303196DA01A20FB31F9E012B5F3F4F8191C9
S11305408D93E217F307D9F70F900F900F900F9048
S1130550DF91CF9108954F925F926F927F928F9225
S11305609F92AF92BF92CF92DF92EF92FF920F933E
S11305701F93CF93DF93CDB7DEB7A2970FB6F8944E
S1130580DEBF0FBECDBF9AA389A349875A876B8765
S11305907C87C901B801A9A1BAA114962D913D91F6
S11305A04D915C911797298B3A8B4B8B5C8BCCD5F7
S11305B0A7019601DAD7E9A1FAA12081318142810C
S11305C05381C3D5698F7A8F8B8F9C8FA9A1BAA1D0
S11305D054962D913D914D915C9157972D8B3E8B67
S11305E04F8B588FC701B601C0D769837A838B8339
S11305F09C83E9A1FAA14484558466847784808825
S11306009188A288B388A30192019ED5A501940183
S11306109BD52DEC3CEC4CEC5CE397D5A701960103
S1130620A4D7A9A1BAA118962D913D914D915C91A1
S11306301B978BD56D837E838F83988729813A811D
S11306404B815C81C301B2017FD52B013C0129811F
S11306503A814B815C81C501B40176D56D8F7E8F63
S11306608F8F98A32CEB34E743E95CE36D817E81A3
S11306708F8198856AD54B015C019B01AC016D812A
S11306807E818F8198852BD669837A838B839C8323
S1130690A50194016D8D7E8D8F8D98A120D66D87D7
S11306A07E878F87988B298D3A8D4B8D5C8D6985DC
S11306B07A858B859C8548D569877A878B879C87C3
S11306C09B01AC0169817A818B819C814ED7298DF4
S11306D03A8D4B8D5C8D39D54B015C01E9A1FAA1B2
S11306E0608371838283938329853A854B855C85F6
S11306F06D857E858F85988938D729893A894B8974
S11307005C8923D5A9A1BAA114966D937D938D9389
S11307109C93179729813A814B815C816D817E81FD
S11307208F81988522D79B01AC016D817E818F8159
S113073098850AD5E9A1FAA1608771878287938792
S113074029813A814B815C81C301B2010ED79B019F
S1130750AC01C301B201F8D4A9A1BAA11C966D934E
S11307607D938D939C931F972D853E854F85588946
S11307706D817E818F819885F8D69B01AC016D8D4A
S11307807E8D8F8D98A1E0D4E9A1FAA1608B718B45
S1130790828B938B2AE037ED43EA5CE3C701B60111
S11307A0E4D62D893E894F89588DCFD46B017C01C5
S11307B02D853E854F855889C301B201D6D69B014C
S11307C0AC01C701B601C0D4A9A1BAA154966D93D6
S11307D07D938D939C935797C501B401A2960FB650
S11307E0F894DEBF0FBECDBFDF91CF911F910F9163
S11307F0FF90EF90DF90CF90BF90AF909F908F903D
S11308007F906F905F904F9008956623B9F0FC013C
S1130810615070E06F5F7F4F680F791F80E04CE894
S1130820219198E0322F38278695269530FD84272C
S11308309150C1F7E617F70799F7089580E00895F6
S1130840CF93DF9390910C018091600098139BC02B
S113085066E08CE091E0D9DF90911201891393C096
S113086082B383FB992790F981E0892780FD939ACD
S113087080FF9398ECE0F1E08281809362008381B1
S11308808F3689F4809165008A3030F48091650058
S11308908F5F8093650009C0809110018093600090
S11308A01092650002C01092650087E0ECE0F1E070
S11308B0DF01982F1D929A95E9F7E3E1F1E0DF015A
S11308C01D928A95E9F7809160008083809162008F
S11308D08A3F21F0809162008A3A69F460916C0049
S11308E070916D0080916E0090916F0021E030E076
S11308F043E151E012DE809162008D3BC1F56091CD
S11309006A0070916B004091660050916700262F39
S1130910372F33231CF4319521953109842F952FDA
S113092099231CF4919581959109821793072CF4CE
S1130930E3E1F1E07183628304C0E3E1F1E0518318
S113094042838091680090916900E3E1F1E0938330
S113095084838BE090E090936B0080936A00909383
S1130960690080936800909367008093660080918B
S11309706000C3E1D1E08D8366E0CE0146DF8E8363
S113098081E080936300DF91CF9108951F920F92CD
S11309900FB60F9211242F933F934F935F936F934E
S11309A07F938F939F93AF93BF93EF93FF93809124
S11309B06400882321F044DF109264000EC080910B
S11309C06300882351F010926300929A509A86E053
S11309D080930B01809113018CB9FF91EF91BF912A
S11309E0AF919F918F917F916F915F914F913F91C3
S11309F02F910F900FBE0F901F9018951F920F927A
S1130A000FB60F9211248F939F93EF93FF93519BF3
S1130A1007C010921A018CB180930C0180E00AC0C7
S1130A2080911A01E82FF0E09CB1E45FFE4F9083BF
S1130A30863020F48F5F80931A0103C081E0809395
S1130A406400FF91EF919F918F910F900FBE0F90D3
S1130A501F9018951F920F920FB60F9211248F9327
S1130A60EF93FF9380910B01882379F08150809359
S1130A700B01509880910B01E6E0F0E0E81BF109CE
S1130A80ED5EFE4F80818CB901C09298FF91EF9189
S1130A908F910F900FBE0F901F90189585B58C60A5
S1130AA085BD89B7806889BF86EE83BD089590BDF2
S1130AB089B98AB18C6D8AB980B5866880BD08957C
S1130AC078949EE088E10FB6F894A89581BD0FBE96
S1130AD091BD8FEF84BB83E084BB84E690E031D288
S1130AE0DDDF8FE290E0E3DF8A9A8B9A2FEF8FE7C6
S1130AF094E0215080409040E1F700C000000F2EA8
S1130B00F8EBAF2EF0E0BF2EF02D64E170E08CED39
S1130B1090E0B4D264E170E082EE90E0E2D2A89575
S1130B20CCEDD0E06E817F81072E000C880B990BF1
S1130B3040D42B013C0168817981072E000C880B7D
S1130B40990B37D4AB01BC010F2EFFE9CF2EFBEA82
S1130B50DF2EFDEAEF2EFBE3FF2EF02D9301820141
S1130B6080EA90E0F8DCF5016083718382839383EB
S1130B7068857985072E000C880B990B1AD42B01F4
S1130B803C016A817B81072E000C880B990B11D4E0
S1130B90AB01BC019301820188E890E0DCDCF50143
S1130BA064837583868397836A857B85072E000C0F
S1130BB0880B990BFED32B013C016C817D81072EA0
S1130BC0000C880B990BF5D3AB01BC019301820196
S1130BD080E790E0C0DCF5016087718782879387A6
S1130BE09B01AC01505880819181A281B381BC01E9
S1130BF0CD0190581DD32BED3FE049E450E4A5D23C
S1130C0021EE3EE245E652E4B0D460936C0070936A
S1130C106D0080936E0090936F00809162008A3F14
S1130C20A9F460916C0070916D0080916E009091B8
S1130C306F0020E030E044EB52E486D260936C0015
S1130C4070936D0080936E0090936F0060916C00C0
S1130C5070916D0080916E0090916F0020E030E003
S1130C6044E353E438D318168CF080916C009091CF
S1130C706D00A0916E00B0916F0080936C00909312
S1130C806D00A0936E00B0936F0015C060916C006E
S1130C9070916D0080916E0090916F0020E030E0C3
S1130CA044EB53E451D260936C0070936D008093D5
S1130CB06E0090936F00809162008091DC009091AF
S1130CC0DD0020916A0030916B0033231CF43195D0
S1130CD021953109AC01992324F444275527481B55
S1130CE0590B2417350724F490936B0080936A0002
S1130CF08091DE009091DF002091680030916900BE
S1130D0033231CF4319521953109AC01992324F442
S1130D1044275527481B590B2417350724F490936F
S1130D206900809368002091E0003091E100809197
S1130D3066009091670099231CF49195819591091F
S1130D40A901332324F444275527421B530B84174A
S1130D5095070CF0DACE3093670020936600D5CE69
S1130D60AF92BF92CF92DF92EF92FF920F931F93B5
S1130D708B011092F600C42ED12CE12CF12C482FBB
S1130D8050E060E070E0590128E080EDD1DA809312
S1130D90F6001F910F91FF90EF90DF90CF90BF90DE
S1130DA0AF90089580914401813099F028F0823009
S1130DB0E9F0833041F134C080E090E0A0E8B6E48B
S1130DC08093F2009093F300A093F400B093F500A5
S1130DD033C080E090E0A0E0B6E48093F20090930A
S1130DE0F300A093F400B093F50026C080E090E0F7
S1130DF0A0E8B5E48093F2009093F300A093F4008C
S1130E00B093F50019C080E090E0A0E0B5E48093D1
S1130E10F2009093F300A093F400B093F5000CC09B
S1130E2080E090E0A0E8B6E48093F2009093F300B1
S1130E30A093F400B093F50080914301813099F0C0
S1130E4028F08230E9F0833041F134C080E090E052
S1130E50A3E0B3E48093EE009093EF00A093F0003E
S1130E60B093F100089580E090E0A3E8B2E48093A9
S1130E70EE009093EF00A093F000B093F10008957A
S1130E8083E393E3A3E0B2E48093EE009093EF0056
S1130E90A093F000B093F100089583E393E3A3E8F3
S1130EA0B1E48093EE009093EF00A093F000B09330
S1130EB0F100089580E090E0A3E0B3E48093EE00B5
S1130EC09093EF00A093F000B093F1000895AC016B
S1130ED065E070E080ED2DD90895AF92BF92CF9276
S1130EE0DF92EF92FF920F931F93CF93DF931F92A2
S1130EF0CDB7DEB7182F69835A011092F600CA01E4
S1130F00E6DF813081F4412F50E060E070E0C12CD5
S1130F10D12C7601C3948E010F5F1F4F28E080ED22
S1130F2035D98093F6008091F6000F90DF91CF9130
S1130F301F910F91FF90EF90DF90CF90BF90AF90F3
S1130F400895AF92BF92CF92DF92EF92FF920F93E8
S1130F501F93CF93DF938C01E5D8C0E4D1E01882CE
S1130F601A821E8219820F2EF5E4AF2EF1E0BF2EF5
S1130F70F02DF50180818C7F8B7F80831B821C8206
S1130F8081E08F83A80160E088E3A7DF8093F60007
S1130F9068816150A80189E1A0DF9091F600890F72
S1130FA08093F6006B81660F660F660FA8018BE1D4
S1130FB094DF9091F600890F8093F6006C81660FA0
S1130FC0660F660FA8018CE188DF9091F600890F07
S1130FD08093F6006981660F660F660F8A81682B1D
S1130FE0A8018AE17ADF9091F600890F8093F600D8
S1130FF0F5018081682F67956627679581FBCC246E
S1131000C0F8D12C0024D694C7940794D694C794DE
S11310100794DC2CC02CC62A82FBEE24E0F8F12CC9
S1131020EE0CFF1CEE0CFF1CEE0CFF1CEE0CFF1C68
S1131030EE0CFF1C6C2D6E29A80187E34EDF909106
S1131040F600890F8093F600A8016F818BE645DFD7
S11310509091F600890F8093F600873019F4A2DE90
S113106081E001C080E0DF91CF911F910F91FF904B
S1131070EF90DF90CF90BF90AF9008950F931F93A0
S1131080CF93DF9300D000D000D0CDB7DEB78C0172
S11310909B0146E0BE016F5F7F4F8BE361DE8130D1
S11310A0A1F4FE013196A8014A5F5F4F208130E030
S11310B0322F22279181292BD8012D933D938D0125
S11310C032964A175B0791F701C080E026960FB667
S11310D0F894DEBF0FBECDBFDF91CF911F910F916A
S11310E008950F931F93CF93DF9300D000D000D0C7
S11310F0CDB7DEB78C019B0146E0BE016F5F7F4F29
S113110083E42EDE8130A1F4FE013196A8014A5F0A
S11311105F4F208130E0322F22279181292BD80183
S11311202D933D938D0132964A175B0791F701C0C9
S113113080E026960FB6F894DEBF0FBECDBFDF91D8
S1131140CF911F910F9108955058BB27AA270ED015
S1131150CBC1BCD130F0C1D120F031F49F3F11F4A8
S11311601EF48CC10EF4E095E7FB82C1E92FCDD1CA
S113117080F3BA17620773078407950718F071F4B0
S11311809EF5E5C10EF4E0950B2EBA2FA02D0B01B0
S1131190B90190010C01CA01A0011124FF27591BB8
S11311A099F0593F50F4503E68F11A16F040A22FBE
S11311B0232F342F4427585FF3CF4695379527952F
S11311C0A795F0405395C9F77EF41F16BA0B620B2E
S11311D0730B840BBAF09150A1F0FF0FBB1F661F75
S11311E0771F881FC2F70EC0BA0F621F731F841FB8
S11311F048F4879577956795B795F7959E3F08F0DE
S1131200B3CF9395880F08F09927EE0F979587959C
S113121008955CD158F080E891E009F49EEF5DD127
S113122028F040E851E059F45EEF09C027C18FC1AE
S1131230E92FE0786AD168F3092E052AC1F326174D
S113124037074807590738F00E2E07F8E02569F0EC
S1131250E025E0640AC0EF6307F8009407FADB01B5
S1131260B9019D01DC01CA01AD01EF9347D03CD126
S11312700AD05F91552331F02BED3FE049E450FD56
S113128049EC63CF0895DF93DD27B92FBF7740E89A
S11312905FE31616170648075B0710F4D92F5ED1D3
S11312A09F938F937F936F93C3D1E6E2F0E0E9D0ED
S11312B01BD12F913F914F915F9163D1DD2349F071
S11312C09058A2EA2AED3FE049EC5FE3D0785D272D
S11312D04DDFDF9109C1A8D008F481E008950CD056
S11312E003C1FBD040F0F2D030F021F45F3F19F09D
S11312F0BFC051112DC1C2C008D198F39923C9F3BD
S11313005523B1F3951B550BBB27AA276217730707
S1131310840738F09F5F5F4F220F331F441FAA1FBB
S1131320A9F333D00E2E3AF0E0E830D0915050407B
S1131330E695001CCAF729D0FE2F27D0660F771F29
S1131340881FBB1F261737074807AB07B0E809F00B
S1131350BB0B802DBF01FF2793585F4F2AF09E3FA0
S1131360510568F085C0F4C05F3FECF3983EDCF3B0
S1131370869577956795B795F7959F5FC9F7880F19
S1131380911D9695879597F90895E1E0660F771F6B
S1131390881FBB1F621773078407BA0720F0621BFC
S11313A0730B840BBA0BEE1F88F7E0950895E8944D
S11313B009C097FB3EF490958095709561957F4F99
S11313C08F4F9F4F9923A9F0F92F96E9BB27939547
S11313D0F695879577956795B795F111F8CFFAF457
S11313E0BB0F11F460FF1BC06F5F7F4F8F4F9F4F88
S11313F016C0882311F096E911C0772321F09EE8E6
S1131400872F762F05C0662371F096E8862F70E04B
S113141060E02AF09A95660F771F881FDAF7880F25
S11314209695879597F90895990F0008550FAA0B7B
S1131430E0E8FEEF16161706E807F907C0F01216E3
S11314401306E407F50798F0621B730B840B950BE6
S113145039F40A2661F0232B242B252B21F408953B
S11314600A2609F4A140A6958FEF811D811D0895D8
S113147097F99F6780E870E060E008959FEF80EC43
S11314800895DF93CF931F930F93FF92EF92DF9210
S11314907B018C01689405C0DA2EEF0172D0FE0145
S11314A0E894A5912591359145915591AEF3EF01BD
S11314B05DDEFE019701A801DA9479F7DF90EF90E1
S11314C0FF900F911F91CF91DF91089500240A940A
S11314D01616170618060906089500240A9412160B
S11314E01306140605060895092E0394000C11F43E
S11314F0882352F0BB0F40F4BF2B11F460FF04C0EB
S11315006F5F7F4F8F4F9F4F089557FD9058440F43
S1131510551F59F05F3F71F04795880F97FB991F4E
S113152061F09F3F79F0879508951216130614060B
S1131530551FF2CF4695F1DF08C016161706180698
S1131540991FF1CF86957105610508940895E89473
S1131550BB2766277727CB0197F908959B01AC0138
S113156060E070E080E89FE3BACE0BD0BDCFAEDF81
S113157028F0B3DF18F0952309F07ACF7FCF112438
S1131580E7CFC3DFA0F3959FD1F3950F50E0551F2C
S1131590629FF001729FBB27F00DB11D639FAA27C4
S11315A0F00DB11DAA1F649F6627B00DA11D661F13
S11315B0829F2227B00DA11D621F739FB00DA11D34
S11315C0621F839FA00D611D221F749F3327A00DEE
S11315D0611D231F849F600D211D822F762F6A2F8A
S11315E011249F5750408AF0E1F088234AF0EE0F0F
S11315F0FF1FBB1F661F771F881F91505040A9F71C
S11316009E3F510570F034CFA3CF5F3FECF3983E7B
S1131610DCF3869577956795B795F795E7959F5F82
S1131620C1F7FE2B880F911D9695879597F908951C
S10D16309B01AC019ACFF894FFCFA0
S105163A0100A9
S9030000FC
