:1000000029C043C042C0C0C440C03FC03EC03DC084
:100010003CC03BC03AC0F3C438C01DC536C035C073
:1000200034C033C032C0084AD73B3BCE016E84BCDB
:10003000BFFDC12F3D6C74319ABD56833DDA3D0042
:10004000C77F11BED9E4BB4C3E916BAAAABE00008B
:1000500000803F0011241FBECFE5D4E0DEBFCDBF3E
:1000600010E0A0E6B0E0E8EFFCE102C005900D92E0
:10007000A039B107D9F721E0A0E9B0E001C01D9295
:10008000A433B207E1F798D535CEBACF24EA26BF1C
:1000900006B607FC0EC0009761F0E9EFF0E031977B
:1000A000F1F700C00000019706B607FC02C00097F8
:1000B000A1F781B1887F089583B984E886BF06B629
:1000C00007FC11C06115710571F089EF90E001978F
:1000D000F1F700C000006150710906B607FC03C0CB
:1000E0006115710591F781B1887F089524EC26BFD1
:1000F00006B607FC0EC0009761F0E9EFF0E031971B
:10010000F1F700C00000019706B607FC02C0009797
:10011000A1F783B1089524E826BF06B607FC0EC0F8
:10012000009761F0E9EFF0E03197F1F700C00000CF
:10013000019706B607FC02C00097A1F783B10895A6
:1001400024E926BF06B604FE0EC0009761F0E9EF71
:10015000F0E03197F1F700C00000019706B604FE09
:1001600002C00097A1F7089581E081B989EF80B9B5
:1001700084E086BF0895DF92EF92FF920F931F9362
:10018000CF93DF93D82EEB018A01209799F0E12CD1
:10019000F12CC8017BDF883019F4B8018D2D8CDF7C
:1001A000883129F4C801CCDF8FEFE81AF80A2197CB
:1001B00081F702C0E12CF12C81E0EF2809F480E006
:1001C000DF91CF911F910F91FF90EF90DF900895F5
:1001D0002F923F924F925F926F927F928F929F9257
:1001E000AF92BF92CF92DF92EF92FF920F931F9345
:1001F000CF93DF93C82F2A013B01D22F1501A50110
:1002000061E070E0B8DF813009F096C0C5013EDFE3
:10021000D83041F5883099F4D301C201689416F8BA
:10022000B695A795979587951694D1F78E70B501D9
:100230008C2B42DF812C912C5401839403C0812CA0
:10024000912C5401883141F4B101842D35DF9FEFA9
:10025000891A990AA90AB90AC114D104E104F1045E
:1002600081F543C08830A1F4D301C201072E7FE09D
:10027000B695A795979587957A95D1F7702D827049
:10028000B5018C2B19DF812C912C5401839403C070
:10029000812C912C5401883141F4B101852D0CDF62
:1002A000EFEF8E1A9E0AAE0ABE0A883209F048C0E5
:1002B000B101842D01DFFFEF8F1A9F0AAF0ABF0A39
:1002C000CBCF26013701883251F4B101F801819179
:1002D0008F01F2DEFFEF8F1A9F0AAF0ABF0A91E08B
:1002E000491A51086108710871F7883239F4C1015F
:1002F00027DFEFEF8E1A9E0AAE0ABE0AD83069F4E5
:10030000F3E0CF0ED11CE11CF11C81E0C814D9042C
:10031000EA04FB04E1F080E01AC0D03179F484E013
:10032000C80ED11CE11CF11C81E0C814D904EA04F8
:10033000FB0469F080E00BC080E009C080E007C0EA
:10034000C114D104E104F10409F0BBCFE6CFDF9181
:10035000CF911F910F91FF90EF90DF90CF90BF90C2
:10036000AF909F908F907F906F905F904F903F9055
:100370002F9008952F923F924F925F926F927F92AB
:100380008F929F92AF92BF92CF92DF92EF92FF92A5
:100390000F931F93CF93DF93C82F2A013B01D22FD6
:1003A0001501A50161E070E0E6DE813009F0C1C011
:1003B000C5016CDED83019F5883099F4D301C2013B
:1003C000689416F8B695A795979587951694D1F7E2
:1003D0008E70B5018C2B70DE812C912C540183948E
:1003E00003C0812C912C54018831B1F5B101842DC9
:1003F00063DE9FEF891A990AA90AB90A2DC08830CD
:10040000A1F4D301C201072E7FE0B695A795979579
:1004100087957A95D1F7702D8270B5018C2B4CDEC3
:10042000812C912C5401839403C0812C912C540174
:10043000883141F4B101852D3FDEEFEF8E1A9E0A1F
:10044000AE0ABE0A883289F4B101842D35DEFFEF91
:100450008F1A9F0AAF0ABF0A883239F4C10116DE2B
:100460009FEF891A990AA90AB90A803149F4B101A2
:100470008C2F816021DEEFEF8E1A9E0AAE0ABE0A33
:10048000F2E0CF16D104E104F104E8F026013701CF
:10049000982F9F7E903461F4C10128DEF80181938A
:1004A0008F0181B1887FFFEF8F1A9F0AAF0ABF0AC1
:1004B00091E0491A510861087108E1E04E165104B3
:1004C0006104710429F7982F9F7E903459F4C1017B
:1004D00022DEF801808381B1887FFFEF8F1A9F0AA7
:1004E000AF0ABF0A883539F4C1012ADE8FEF881AB6
:1004F000980AA80AB80AD83069F495E0C90ED11C48
:10050000E11CF11C81E0C814D904EA04FB04A1F049
:1005100080E012C0D03179F4E6E0CE0ED11CE11CAF
:10052000F11C81E0C814D904EA04FB0429F080E03E
:1005300003C080E001C080E0DF91CF911F910F9157
:10054000FF90EF90DF90CF90BF90AF909F908F90F3
:100550007F906F905F904F903F902F900895CF9332
:10056000DF9300D000D0CDB7DEB769837A838B8369
:100570009C83FE013196DA01A20FB31F9E012B5F0F
:100580003F4F81918D93E217F307D9F70F900F90AA
:100590000F900F90DF91CF9108954F925F926F92DD
:1005A0007F928F929F92AF92BF92CF92DF92EF9203
:1005B000FF920F931F93CF93DF93CDB7DEB7A09732
:1005C0000FB6F894DEBF0FBECDBF6D877E878F87D5
:1005D000988BCA01B901E986FA860B871C8720919E
:1005E000A4003091A5004091A6005091A7002D8B4A
:1005F0003E8B4F8B588F25D6A801970133D8209179
:10060000A0003091A1004091A2005091A3001AD601
:10061000698F7A8F8B8F9C8FC0909C00D0909D00AB
:10062000E0909E00F0909F00A701960169857A8571
:100630008B859C8517D869837A838B839C834090B4
:100640009400509095006090960070909700809074
:10065000980090909900A0909A00B0909B00A30100
:100660009201EFD5A5019401ECD52AE037ED43E2E4
:100670005CE3E8D529853A854B855C85F3D7E0E9CD
:10068000F0E02081318142815381DCD56D837E830E
:100690008F83988729813A814B815C81C301B201A4
:1006A000D0D52B013C0129813A814B815C81C50168
:1006B000B401C7D56D8F7E8F8F8F98A32DEC3CEC46
:1006C0004CEC5DE36D817E818F819885BBD54B01BC
:1006D0005C019B01AC016D817E818F8198857CD608
:1006E00069837A838B839C83A50194016D8D7E8DB4
:1006F0008F8D98A171D6698B7A8B8B8B9C8B298D72
:100700003A8D4B8D5C8D6D857E858F85988999D5C9
:100710006D877E878F87988B9B01AC0169817A8179
:100720008B819C819FD7298D3A8D4B8D5C8D8AD58D
:100730004B015C016093A0007093A1008093A20024
:100740009093A3002D853E854F85588969897A89C4
:100750008B899C8987D72D893E894F89588D72D581
:100760006093A4007093A5008093A6009093A700C7
:1007700029813A814B815C816D817E818F81988551
:1007800071D79B01AC016D817E818F81988559D590
:10079000E0E9F0E0608371838283938329813A8169
:1007A0004B815C81C301B2015DD79B01AC01C301E8
:1007B000B20147D5609394007093950080939600A2
:1007C0009093970029893A894B895C896D817E8154
:1007D0008F81988547D79B01AC016D8D7E8D8F8D64
:1007E00098A12FD5609398007093990080939A00F8
:1007F00090939B002DEC3CEC4CE45DE369857A859D
:100800008B859C852FD7A70196011CD56B017C0198
:1008100029893A894B895C89C301B20123D79B019D
:10082000AC01C701B6010DD560939C0070939D008B
:1008300080939E0090939F00C501B401A0960FB6CF
:10084000F894DEBF0FBECDBFDF91CF911F910F9106
:10085000FF90EF90DF90CF90BF90AF909F908F90E0
:100860007F906F905F904F9008956623B9F0FC01E0
:10087000615070E06F5F7F4F680F791F80E04CE838
:10088000219198E0322F38278695269530FD8427D0
:100890009150C1F7E617F70799F7089580E008959A
:1008A0009091F8008091600098136DC066E088EF29
:1008B00090E0DBDF9091FE00891365C0E8EFF0E087
:1008C00082818093A80083818F3689F48091AB0068
:1008D0008A3030F48091AB008F5F8093AB0009C009
:1008E0008091FC00809360001092AB0002C01092D7
:1008F000AB0087E0E8EFF0E0DF01982F1D929A95BA
:10090000E9F7EFEFF0E0DF011D928A95E9F78091BA
:10091000600080838091A8008A3F21F08091A80028
:100920008A3A89F46091B0007091B1008091B20070
:100930009091B30021E030E04FEF50E010DE809165
:100940006000809304018091A8008D3BB1F48091F8
:10095000AE009091AF00EFEFF0E091838283809141
:10096000AC009091AD00938384831092AF001092FD
:10097000AE001092AD001092AC0066E08FEF90E0F8
:1009800074DF8093050108951F920F920FB60F92A6
:1009900011242F933F934F935F936F937F938F9384
:1009A0009F93AF93BF93EF93FF938091AA00882307
:1009B00039F076DF1092AA0081E08093A9000EC082
:1009C0008091A900882351F01092A900929A509A20
:1009D00086E08093F7008091FF008CB9FF91EF9142
:1009E000BF91AF919F918F917F916F915F914F9147
:1009F0003F912F910F900FBE0F901F9018951F924F
:100A00000F920FB60F9211248F939F93EF93FF9342
:100A1000519B07C0109206018CB18093F80080E0D2
:100A20000AC080910601E82FF0E09CB1E850FF4F2A
:100A30009083863020F48F5F8093060103C081E0AD
:100A40008093AA00FF91EF919F918F910F900FBE1D
:100A50000F901F9018951F920F920FB60F921124AE
:100A60008F93EF93FF938091F700882379F0815063
:100A70008093F70050988091F700E6E0F0E0E81BE3
:100A8000F109E150FF4F80818CB901C09298FF912C
:100A9000EF918F910F900FBE0F901F90189585B515
:100AA0008C6085BD89B7806889BF86EE83BD089557
:100AB00090BD89B98AB188618AB980B5866880BDE0
:100AC00008955D9BFECF8CB90895CF93DF93EC0121
:100AD0008881882329F02196F4DF89918111FCCF48
:100AE000DF91CF9108950F931F93CF93DF93CDB7ED
:100AF000DEB7C058D1090FB6F894DEBF0FBECDBF28
:100B00009E0129573F4FF901419151919F0160E8A2
:100B100070E08E010F5F1F4FC8010AD6F8010190E7
:100B20000020E9F731978DE09AE09183808312826B
:100B3000C801CBDFC058DF4F0FB6F894DEBF0FBE41
:100B4000CDBFDF91CF911F910F910895929A82B3FB
:100B500083FB992790F981E0892780FD939A80FF94
:100B6000939881E690E0B1DFECECF0E083858F9321
:100B700082858F9381858F9380858F9387818F93D3
:100B800086818F9385818F9384818F9383818F93C7
:100B900082818F9381818F9380818F938EE790E004
:100BA0009F938F93A0DF8DB79EB70E960FB6F894E4
:100BB0009EBF0FBE8DBF089578948FEF84BB83E0F6
:100BC00084BB84E690E03AD26ADF8FE290E070DF87
:100BD0008A9A8B9A2FEF8FE794E0215080409040C3
:100BE000E1F700C000000F2EF4EB2F2EF0E03F2EB7
:100BF000F02D64E170E08CEC90E0BDD264E170E037
:100C000082ED90E0EBD2CCECD0E06C817D817195EF
:100C100061957109072E000C880B990B47D44B0185
:100C20005C016A817B81719561957109072E000CC9
:100C3000880B990B3BD46B017C01A501940175D302
:100C40002BED3FE049E450E4FDD221EE3EE245E6E3
:100C500052E408D5F10164837583868397836881A4
:100C60007981719561957109072E000C880B990B9C
:100C70001DD42B013C01A501940157D32BED3FE07E
:100C800049E450E4DFD221EE3EE245E652E4EAD404
:100C90004B015C01F1016487758786879787A30103
:100CA0009201C701B60141D32BED3FE049E450E486
:100CB000C9D221EE3EE245E652E4D4D4F101648B80
:100CC000758B868B978B6E817F81072E000C880B2E
:100CD000990BECD320E030E043E053E47DD3F10105
:100CE000608371838283938368857985072E000CE6
:100CF000880B990BDBD320E030E043E053E46CD366
:100D00002B013C01F10160877187828793876A8597
:100D10007B85072E000C880B990BC8D320E030E0B0
:100D200043E053E459D3F101608B718B828B938B39
:100D3000E12CF12C0CE412E4A3019201C501B401F1
:100D40002CDC6093B0007093B1008093B20090935C
:100D5000B3008091A8008A3FA9F46091B00070911F
:100D6000B1008091B2009091B30020E030E044EBFC
:100D700052E467D26093B0007093B1008093B200E8
:100D80009093B3006091B0007091B1008091B20077
:100D90009091B30020E030E044E353E419D31816F7
:100DA0008CF08091B0009091B100A091B200B09110
:100DB000B3008093B0009093B100A093B200B093C1
:100DC000B30015C06091B0007091B1008091B20085
:100DD0009091B30020E030E044EB53E432D26093D2
:100DE000B0007093B1008093B2009093B3008091F3
:100DF000A8008D3B61F58091CE009091CF009923A2
:100E00001CF4919581959109813E9E4204F1809157
:100E1000A9008091CC009091CD002091AE0030913E
:100E2000AF002817390724F49093AF008093AE00E9
:100E30008091D0009091D1002091AC003091AD0014
:100E40002817390724F49093AD008093AC007EDE20
:100E5000D0CEAF92BF92CF92DF92EF92FF920F93DC
:100E60001F938B011092E600939AC42ED12CE12C93
:100E7000F12C482F50E060E070E0590128E080ED4F
:100E800079DA8093E60093988091E6001F910F91A4
:100E9000FF90EF90DF90CF90BF90AF90089580913A
:100EA0003001813099F028F08230E9F0833041F14F
:100EB00034C080E090E0A0E8B6E48093E200909334
:100EC000E300A093E400B093E50033C080E090E03D
:100ED000A0E0B6E48093E2009093E300A093E400E6
:100EE000B093E50026C080E090E0A0E8B5E48093F0
:100EF000E2009093E300A093E400B093E50019C0F2
:100F000080E090E0A0E0B5E48093E2009093E300FD
:100F1000A093E400B093E5000CC080E090E0A0E86E
:100F2000B6E48093E2009093E300A093E400B093D2
:100F3000E50080912F01813099F028F08230E9F0AE
:100F4000833041F134C080E090E0A3E0B3E48093CB
:100F5000DE009093DF00A093E000B093E1000895DD
:100F600080E090E0A3E8B2E48093DE009093DF009D
:100F7000A093E000B093E100089583E393E3A3E03E
:100F8000B2E48093DE009093DF00A093E000B09382
:100F9000E100089583E393E3A3E8B1E48093DE00E6
:100FA0009093DF00A093E000B093E100089580E00B
:100FB00090E0A3E0B3E48093DE009093DF00A09381
:100FC000E000B093E1000895AC0165E070E080EDD1
:100FD000D2D80895AF92BF92CF92DF92EF92FF9254
:100FE0000F931F93CF93DF931F92CDB7DEB7182FC8
:100FF00069835A011092E600CA01E6DF813081F46C
:10100000412F50E060E070E0C12CD12C7601C394F8
:101010008E010F5F1F4F28E080EDDAD88093E60045
:101020008091E6000F90DF91CF911F910F91FF907B
:10103000EF90DF90CF90BF90AF900895AF92BF92A6
:10104000CF92DF92EF92FF920F931F93CF93DF9394
:101050008C018AD8CCE2D1E018821A821E821982D1
:101060000F2EF1E3AF2EF1E0BF2EF02DF5018081C0
:101070008C7F8B7F80831B821C8281E08F83A80101
:1010800060E088E3A7DF8093E60068816150A801F3
:1010900089E1A0DF9091E600890F8093E6006B81E3
:1010A000660F660F660FA8018BE194DF9091E60052
:1010B000890F8093E6006C81660F660F660FA801AA
:1010C0008CE188DF9091E600890F8093E6006981CA
:1010D000660F660F660F8A81682BA8018AE17ADFA6
:1010E0009091E600890F8093E600F5018081682FDA
:1010F00067956627679581FBCC24C0F8D12C002426
:10110000D694C7940794D694C7940794DC2CC02C2B
:10111000C62A82FBEE24E0F8F12CEE0CFF1CEE0C4C
:10112000FF1CEE0CFF1CEE0CFF1CEE0CFF1C6C2DCC
:101130006E29A80187E34EDF9091E600890F809326
:10114000E600A8016F818BE645DF9091E600890FEC
:101150008093E600873019F4A2DE81E001C080E0D0
:10116000DF91CF911F910F91FF90EF90DF90CF9083
:10117000BF90AF9008950F931F93CF93DF9300D04C
:1011800000D000D0CDB7DEB78C019B0146E0BE0198
:101190006F5F7F4F8BE35DDE8130A1F4FE013196FE
:1011A000A8014A5F5F4F208130E0322F22279181D2
:1011B000292BD8012D933D938D0132964A175B0759
:1011C00091F701C080E026960FB6F894DEBF0FBEFF
:1011D000CDBFDF91CF911F910F9108950F931F9372
:1011E000CF93DF9300D000D000D0CDB7DEB78C0115
:1011F0009B0146E0BE016F5F7F4F83E42ADE8130B2
:10120000A1F4FE013196A8014A5F5F4F208130E0D2
:10121000322F22279181292BD8012D933D938D01C7
:1012200032964A175B0791F701C080E026960FB609
:10123000F894DEBF0FBECDBFDF91CF911F910F910C
:1012400008955058BB27AA270ED0CBC1BCD130F08F
:10125000C1D120F031F49F3F11F41EF48CC10EF483
:10126000E095E7FB82C1E92FCDD180F3BA17620781
:1012700073078407950718F071F49EF5E5C10EF425
:10128000E0950B2EBA2FA02D0B01B90190010C0196
:10129000CA01A0011124FF27591B99F0593F50F4AE
:1012A000503E68F11A16F040A22F232F342F442706
:1012B000585FF3CF469537952795A795F0405395FE
:1012C000C9F77EF41F16BA0B620B730B840BBAF0CE
:1012D0009150A1F0FF0FBB1F661F771F881FC2F739
:1012E0000EC0BA0F621F731F841F48F4879577954D
:1012F0006795B795F7959E3F08F0B3CF9395880F04
:1013000008F09927EE0F9795879508955CD158F0CE
:1013100080E891E009F49EEF5DD128F040E851E0CB
:1013200059F45EEF09C027C18FC1E92FE0786AD177
:1013300068F3092E052AC1F326173707480759070E
:1013400038F00E2E07F8E02569F0E025E0640AC0C9
:10135000EF6307F8009407FADB01B9019D01DC0196
:10136000CA01AD01EF9347D03CD10AD05F9155231C
:1013700031F02BED3FE049E450FD49EC63CF089597
:10138000DF93DD27B92FBF7740E85FE31616170616
:1013900048075B0710F4D92F5ED19F938F937F93FB
:1013A0006F93C3D1E6E2F0E0E9D01BD12F913F91DA
:1013B0004F915F9163D1DD2349F09058A2EA2AED65
:1013C0003FE049EC5FE3D0785D274DDFDF9109C155
:1013D000A8D008F481E008950CD003C1FBD040F000
:1013E000F2D030F021F45F3F19F0BFC051112DC190
:1013F000C2C008D198F39923C9F35523B1F3951BC3
:10140000550BBB27AA2762177307840738F09F5F25
:101410005F4F220F331F441FAA1FA9F333D00E2E94
:101420003AF0E0E830D091505040E695001CCAF701
:1014300029D0FE2F27D0660F771F881FBB1F2617C6
:1014400037074807AB07B0E809F0BB0B802DBF0199
:10145000FF2793585F4F2AF09E3F510568F085C0E3
:10146000F4C05F3FECF3983EDCF386957795679583
:10147000B795F7959F5FC9F7880F911D969587954A
:1014800097F90895E1E0660F771F881FBB1F621769
:1014900073078407BA0720F0621B730B840BBA0B27
:1014A000EE1F88F7E0950895E89409C097FB3EF495
:1014B00090958095709561957F4F8F4F9F4F9923A1
:1014C000A9F0F92F96E9BB279395F695879577951F
:1014D0006795B795F111F8CFFAF4BB0F11F460FFDF
:1014E0001BC06F5F7F4F8F4F9F4F16C0882311F037
:1014F00096E911C0772321F09EE8872F762F05C04B
:10150000662371F096E8862F70E060E02AF09A95E5
:10151000660F771F881FDAF7880F9695879597F9DA
:101520000895990F0008550FAA0BE0E8FEEF161674
:101530001706E807F907C0F012161306E407F507C7
:1015400098F0621B730B840B950B39F40A2661F03B
:10155000232B242B252B21F408950A2609F4A140DE
:10156000A6958FEF811D811D089597F99F6780E8EB
:1015700070E060E008959FEF80EC0895DF93CF93D3
:101580001F930F93FF92EF92DF927B018C0168947F
:1015900005C0DA2EEF0172D0FE01E894A5912591E5
:1015A000359145915591AEF3EF015DDEFE01970156
:1015B000A801DA9479F7DF90EF90FF900F911F91D7
:1015C000CF91DF91089500240A9416161706180685
:1015D0000906089500240A94121613061406050637
:1015E0000895092E0394000C11F4882352F0BB0FC8
:1015F00040F4BF2B11F460FF04C06F5F7F4F8F4F2B
:101600009F4F089557FD9058440F551F59F05F3F65
:1016100071F04795880F97FB991F61F09F3F79F014
:1016200087950895121613061406551FF2CF469596
:10163000F1DF08C0161617061806991FF1CF869518
:101640007105610508940895E894BB2766277727FC
:10165000CB0197F908959B01AC0160E070E080E850
:101660009FE3BACE0BD0BDCFAEDF28F0B3DF18F0CA
:10167000952309F07ACF7FCF1124E7CFC3DFA0F302
:10168000959FD1F3950F50E0551F629FF001729F17
:10169000BB27F00DB11D639FAA27F00DB11DAA1F36
:1016A000649F6627B00DA11D661F829F2227B00D83
:1016B000A11D621F739FB00DA11D621F839FA00D0E
:1016C000611D221F749F3327A00D611D231F849F5E
:1016D000600D211D822F762F6A2F11249F575040B5
:1016E0008AF0E1F088234AF0EE0FFF1FBB1F661F50
:1016F000771F881F91505040A9F79E3F510570F009
:1017000034CFA3CF5F3FECF3983EDCF3869577951B
:101710006795B795F795E7959F5FC1F7FE2B880F03
:10172000911D9695879597F908959B01AC019ACFE5
:10173000AEE0B0E0EDE9FBE0B4C28C01FA0186E076
:101740008C831A83098377FF02C060E070E8CB01C5
:1017500001979E838D83A901BF01CE01019611D00F
:101760004D815E8157FD0AC02F813885421753078E
:101770000CF49A01F801E20FF31F10822E96E4E0B8
:10178000ACC2ABE0B0E0E6ECFBE07DC26C017B01FB
:101790008A01FC0117821682838181FFBFC1CE01BD
:1017A00001963C01F6019381F70193FD859193FF2A
:1017B00081917F01882309F4ADC1853239F493FD0D
:1017C000859193FF81917F01853221F4B60190E0EC
:1017D000C0D1E8CF912C212C312CFFE1F315D8F0AA
:1017E0008B3279F038F4803279F08332A1F4232DF2
:1017F00020611DC08D3261F0803369F4232D21609A
:1018000016C0832D8260382EE32DE4603E2E2AC060
:10181000F32DF8601DC037FC2DC020ED280F2A30B5
:1018200040F08E32B9F436FC75C1232D2064322E7F
:1018300019C036FE06C08AE0989E200D1124922E13
:1018400011C0EAE02E9E200D1124222EF32DF0620D
:101850003F2E08C08C3621F4832D8068382E02C0BC
:10186000883641F4F70193FD859193FF81917F01C3
:101870008111B3CF982F9F7D9554933028F40C5F3E
:101880001F4F9FE399830DC0833631F0833771F08A
:10189000833509F055C020C0F801808189830E5F2F
:1018A0001F4F88248394912C530112C02801F2E029
:1018B0004F0E511CF801A080B18036FE03C0692D87
:1018C00070E002C06FEF7FEFC50138D14C0182019B
:1018D000F32DFF773F2E15C0280122E0420E511C48
:1018E000F801A080B18036FE03C0692D70E002C00F
:1018F0006FEF7FEFC50117D14C01F32DF0683F2E3C
:10190000820133FC19C0822D90E088169906A0F45C
:10191000B60180E290E01DD12A94F5CFF50137FCA5
:10192000859137FE81915F01B60190E012D12110BF
:101930002A9421E0821A91088114910479F7E1C078
:10194000843611F0893639F5F80137FE07C0608119
:101950007181828193810C5F1F4F08C0608171810A
:10196000072E000C880B990B0E5F1F4FF32DFF768F
:101970003F2E97FF09C090958095709561957F4F98
:101980008F4F9F4FF0683F2E2AE030E0A3011DD11A
:10199000882E861844C0853731F4232D2F7EB22E31
:1019A0002AE030E025C0932D997FB92E8F36C1F003
:1019B00018F4883579F0AEC0803719F0883721F0F7
:1019C000A9C0E92FE061BE2EB4FE0DC0FB2DF4606E
:1019D000BF2E09C034FE0AC0292F2660B22E06C0D1
:1019E00028E030E005C020E130E002C020E132E034
:1019F000F801B7FE07C060817181828193810C5F1D
:101A00001F4F06C06081718180E090E00E5F1F4F24
:101A1000A301DBD0882E8618FB2DFF773F2E36FEE4
:101A20000DC0232D2E7FA22E891458F434FE0BC036
:101A300032FC09C0832D8E7EA82E05C0B82CA32CA5
:101A400003C0B82C01C0B92CA4FE0FC0FE01E80DE4
:101A5000F11D8081803321F49A2D997EA92E09C031
:101A6000A2FE06C0B394B39404C08A2D867809F010
:101A7000B394A3FC10C0A0FE06C0B21480F4280CDE
:101A8000922C9B180DC0B21458F4B60180E290E07D
:101A900060D0B394F8CFB21418F42B1802C0982C6D
:101AA000212CA4FE0FC0B60180E390E052D0A2FE2C
:101AB00016C0A1FC03C088E790E002C088E590E072
:101AC000B6010CC08A2D867851F0A1FE02C08BE2CF
:101AD00001C080E2A7FC8DE2B60190E03AD0891403
:101AE00030F4B60180E390E034D09A94F8CF8A9431
:101AF000F301E80DF11D8081B60190E02AD081103C
:101B0000F6CF222009F44ECEB60180E290E021D03B
:101B10002A94F7CFF6018681978102C08FEF9FEF5D
:101B20002B96E2E1CCC0FC010590615070400110A1
:101B3000D8F7809590958E0F9F1F0895FC016150F6
:101B4000704001900110D8F7809590958E0F9F1FDF
:101B500008950F931F93CF93DF93FB01238121FD02
:101B600003C08FEF9FEF2CC022FF16C04681578124
:101B7000248135814217530744F4A081B1819D012E
:101B80002F5F3F4F318320838C93268137812F5FD6
:101B90003F4F3783268314C08B01EC01FB01008487
:101BA000F185E02D0995892BE1F6D80116968D91E6
:101BB0009C911797019617969C938E931697CE013A
:101BC000DF91CF911F910F910895FA01AA27283034
:101BD00051F1203181F1E8946F936E7F6E5F7F4FFA
:101BE0008F4F9F4FAF4FB1E03ED0B4E03CD0670F76
:101BF000781F891F9A1FA11D680F791F8A1F911DC9
:101C0000A11D6A0F711D811D911DA11D20D009F418
:101C100068943F912AE0269F11243019305D31935A
:101C2000DEF6CF010895462F4770405D4193B3E043
:101C30000FD0C9F7F6CF462F4F70405D4A3318F0EA
:101C4000495D31FD4052419302D0A9F7EACFB4E09B
:101C5000A6959795879577956795BA95C9F7009753
:101C60006105710508959B01AC010A2E06945795F4
:101C7000479537952795BA95C9F7620F731F841F4B
:101C8000951FA01D08952F923F924F925F926F92E1
:101C90007F928F929F92AF92BF92CF92DF92EF92FC
:101CA000FF920F931F93CF93DF93CDB7DEB7CA1B7D
:101CB000DB0B0FB6F894DEBF0FBECDBF09942A88A8
:101CC000398848885F846E847D848C849B84AA8450
:101CD000B984C884DF80EE80FD800C811B81AA81DD
:101CE000B981CE0FD11D0FB6F894DEBF0FBECDBFA8
:081CF000ED010895F894FFCF07
:101CF8000158613A2C59613A2C5A613A2C58677943
:101D08003A2C5967793A2C5A67793A0D0A002564B2
:101D18002C25642C25642C25642C25642C25640032
:00000001FF
