S017000044492D3630315F4D50552D363035302E7372656373
S113000029C043C042C041C040C03FC03EC03DC003
S11300103CC03BC03AC04AC438C0FCC436C035C03A
S113002034C033C032C0084AD73B3BCE016E84BCD7
S1130030BFFDC12F3D6C74319ABD56833DDA3D003E
S1130040C77F11BED9E4BB4C3E916BAAAABE000087
S113005000803F0011241FBECFE5D4E0DEBFCDBF3A
S113006010E0A0E6B0E0E4EEF6E102C005900D92E7
S1130070A436B107D9F721E0A4E6B0E001C01D928F
S1130080A134B207E1F7FED42BCBBACF24EA26BFC2
S113009006B607FC0EC0009761F0E9EFF0E0319777
S11300A0F1F700C00000019706B607FC02C00097F4
S11300B0A1F781B1887F089583B984E886BF06B625
S11300C007FC11C06115710571F089EF90E001978B
S11300D0F1F700C000006150710906B607FC03C0C7
S11300E06115710591F781B1887F089524EC26BFCD
S11300F006B607FC0EC0009761F0E9EFF0E0319717
S1130100F1F700C00000019706B607FC02C0009793
S1130110A1F783B1089524E826BF06B607FC0EC0F4
S1130120009761F0E9EFF0E03197F1F700C00000CB
S1130130019706B607FC02C00097A1F783B10895A2
S113014024E926BF06B604FE0EC0009761F0E9EF6D
S1130150F0E03197F1F700C00000019706B604FE05
S113016002C00097A1F7089581E081B98DEF80B9AD
S113017084E086BF089511B810B816BE0895DF92C2
S1130180EF92FF920F931F93CF93DF93D82EEB013F
S11301908A01F1DFE9DF209799F0E12CF12CC80105
S11301A075DF883019F4B8018D2D86DF883129F484
S11301B0C801C6DF8FEFE81AF80A219781F702C059
S11301C0E12CF12C81E0EF2809F480E0DF91CF915C
S11301D01F910F91FF90EF90DF9008952F923F921F
S11301E04F925F926F927F928F929F92AF92BF9243
S11301F0CF92DF92EF92FF920F931F93CF93DF93EF
S1130200C82F2A013B01D22F1501A50161E070E03E
S1130210B6DF813009F096C0C50138DFD83041F52A
S1130220883099F4D301C201689416F8B695A7955D
S1130230979587951694D1F78E70B5018C2B3CDF7A
S1130240812C912C5401839403C0812C912C540152
S1130250883141F4B101842D2FDF9FEF891A990A67
S1130260A90AB90AC114D104E104F10481F543C017
S11302708830A1F4D301C201072E7FE0B695A7957B
S1130280979587957A95D1F7702D8270B5018C2B4F
S113029013DF812C912C5401839403C0812C912C65
S11302A05401883141F4B101852D06DFEFEF8E1A38
S11302B09E0AAE0ABE0A883209F048C0B101842DF4
S11302C0FBDEFFEF8F1A9F0AAF0ABF0ACBCF2601CE
S11302D03701883251F4B101F80181918F01ECDECC
S11302E0FFEF8F1A9F0AAF0ABF0A91E0491A51081B
S11302F06108710871F7883239F4C10121DFEFEF29
S11303008E1A9E0AAE0ABE0AD83069F4F3E0CF0E04
S1130310D11CE11CF11C81E0C814D904EA04FB04DB
S1130320E1F080E01AC0D03179F484E0C80ED11C29
S1130330E11CF11C81E0C814D904EA04FB0469F04F
S113034080E00BC080E009C080E007C0C114D10484
S1130350E104F10409F0BBCFE6CFDF91CF911F9107
S11303600F91FF90EF90DF90CF90BF90AF909F9050
S11303708F907F906F905F904F903F902F90089553
S11303802F923F924F925F926F927F928F929F92A1
S1130390AF92BF92CF92DF92EF92FF920F931F938F
S11303A0CF93DF93C82F2A013B01D22F1501A5015A
S11303B061E070E0E4DE813009F0C1C0C50166DEB1
S11303C0D83019F5883099F4D301C201689416F82D
S11303D0B695A795979587951694D1F78E70B50124
S11303E08C2B6ADE812C912C5401839403C0812CC4
S11303F0912C54018831B1F5B101842D5DDE9FEF5C
S1130400891A990AA90AB90A2DC08830A1F4D3011E
S1130410C201072E7FE0B695A795979587957A95A3
S1130420D1F7702D8270B5018C2B46DE812C912C76
S11304305401839403C0812C912C5401883141F4DC
S1130440B101852D39DEEFEF8E1A9E0AAE0ABE0A7F
S1130450883289F4B101842D2FDEFFEF8F1A9F0AB1
S1130460AF0ABF0A883239F4C10110DE9FEF891A3E
S1130470990AA90AB90A803149F4B1018C2F816023
S11304801BDEEFEF8E1A9E0AAE0ABE0AF2E0CF160A
S1130490D104E104F104E8F026013701982F9F7E8E
S11304A0903461F4C10122DEF80181938F0181B19E
S11304B0887FFFEF8F1A9F0AAF0ABF0A91E0491A9B
S11304C0510861087108E1E04E1651046104710499
S11304D029F7982F9F7E903459F4C1011CDEF8014E
S11304E0808381B1887FFFEF8F1A9F0AAF0ABF0A0A
S11304F0883539F4C10124DE8FEF881A980AA80AD6
S1130500B80AD83069F495E0C90ED11CE11CF11C7D
S113051081E0C814D904EA04FB04A1F080E012C00D
S1130520D03179F4E6E0CE0ED11CE11CF11C81E05F
S1130530C814D904EA04FB0429F080E003C080E075
S113054001C080E0DF91CF911F910F91FF90EF9058
S1130550DF90CF90BF90AF909F908F907F906F90DF
S11305605F904F903F902F9008954F925F926F92BB
S11305707F928F929F92AF92BF92CF92DF92EF922F
S1130580FF920F931F93CF93DF93CDB7DEB7A0975E
S11305900FB6F894DEBF0FBECDBF6D877E878F8701
S11305A0988BCA01B901E986FA860B871C872091CA
S11305B074003091750040917600509177002D8B36
S11305C03E8B4F8B588F15D6A801970123D82091C5
S11305D078003091790040917A0050917B000AD6DE
S11305E0698F7A8F8B8F9C8FC0907000D090710030
S11305F0E0907200F0907300A701960169857A85F6
S11306008B859C8507D869837A838B839C834090F0
S113061068005090690060906A0070906B00809050
S11306206C0090906D00A0906E00B0906F00A301DC
S11306309201DFD5A5019401DCD52AE037ED43E230
S11306405CE3D8D529853A854B855C85E3D7E4E618
S1130650F0E02081318142815381CCD56D837E834A
S11306608F83988729813A814B815C81C301B201D0
S1130670C0D52B013C0129813A814B815C81C501A4
S1130680B401B7D56D8F7E8F8F8F98A32DEC3CEC82
S11306904CEC5EE36D817E818F819885ABD54B01F7
S11306A05C019B01AC016D817E818F8198856CD644
S11306B069837A838B839C83A50194016D8D7E8DE0
S11306C08F8D98A161D6698B7A8B8B8B9C8B298DAE
S11306D03A8D4B8D5C8D6D857E858F85988989D506
S11306E06D877E878F87988B9B01AC0169817A81A6
S11306F08B819C818FD7298D3A8D4B8D5C8D7AD5DA
S11307004B015C01609378007093790080937A00C8
S113071090937B002D853E854F85588969897A8918
S11307208B899C8977D72D893E894F89588D62D5CD
S113073060937400709375008093760090937700B3
S113074029813A814B815C816D817E818F8198857D
S113075061D79B01AC016D817E818F81988549D5DC
S1130760E4E6F0E0608371838283938329813A8194
S11307704B815C81C301B2014DD79B01AC01C30124
S1130780B20137D5609368007093690080936A0062
S113079090936B0029893A894B895C896D817E81AC
S11307A08F81988537D79B01AC016D8D7E8D8F8DA0
S11307B098A11FD560936C0070936D0080936E00B8
S11307C090936F002DEC3CEC4CE45DE369857A85F5
S11307D08B859C851FD7A70196010CD56B017C01E5
S11307E029893A894B895C89C301B20113D79B01DA
S11307F0AC01C701B601FDD4609370007093710021
S11308008093720090937300C501B401A0960FB653
S1130810F894DEBF0FBECDBFDF91CF911F910F9132
S1130820FF90EF90DF90CF90BF90AF909F908F900C
S11308307F906F905F904F900895CF93DF9300D097
S113084000D0CDB7DEB769837A838B839C83FE01A6
S11308503196DA01A20FB31F9E012B5F3F4F8191A6
S11308608D93E217F307D9F70F900F900F900F9025
S1130870DF91CF9108956623B9F0FC01615070E0D7
S11308806F5F7F4F680F791F80E04CE8219198E0FB
S1130890322F38278695269530FD84279150C1F74D
S11308A0E617F70799F7089580E008951F920F92CD
S11308B00FB60F9211242F933F934F935F936F932F
S11308C07F938F939F93AF93BF93CF93DF93EF93D4
S11308D0FF93519B07C01092D5008CB18093C30045
S11308E080E00AC08091D5009CB1E82FF0E0ED5380
S11308F0FF4F9083863020F48F5F8093D50077C0BC
S113090082B383FB882780F980FF939A80FD9398B4
S113091081E080937D00809160009091C3009813E2
S113092066C080917D00882309F461C066E083EC91
S113093090E0A1DF9091C900891359C08091C5004E
S11309408A3F21F481E080937C0004C08A3A11F448
S113095010927C008091C6008F3689F480917E00CD
S11309608A3030F480917E008F5F80937E003AC09D
S11309708091C7008093600010927E0033C0109273
S11309807E0030C011928E179F07E1F7929A8091F2
S11309906000CCECD0E0888319821A821B821C820E
S11309A06091350170913601809137019091380141
S11309B021E030E0AE0141DF809160008D8366E08C
S11309C0CE0159DF8E838FEC97E00197F1F700C0D9
S11309D0000010927D00509A86E08093C2008881C6
S11309E08CB905C0E3ECF0E08AEC90E0CBCFFF914A
S11309F0EF91DF91CF91BF91AF919F918F917F91B3
S1130A006F915F914F913F912F910F900FBE0F9077
S1130A101F9018951F920F920FB60F9211248F9367
S1130A20EF93FF938091C200882379F081508093E3
S1130A30C20050988091C200E6E0F0E0E81BF109A2
S1130A40E453FF4F80818CB901C09298FF91EF91DC
S1130A508F910F900FBE0F901F9018951BB81AB866
S1130A6010BC10BC19B88091620080BD80916100F7
S1130A7089B91AB88AB18C6D8AB910BC80B58668F8
S1130A8080BD089578949EE088E10FB6F894A89507
S1130A9081BD0FBE91BD8FEF84BB83E084BB84E630
S1130AA090E036D2DBDF8A9A8B9A2FEF80E792E0D0
S1130AB0215080409040E1F700C0000064E170E004
S1130AC08AEC90E0C4D264E170E086E990E0E2D27E
S1130AD064E170E08CE890E000D364E170E08DE0C4
S1130AE091E01ED364E170E081E291E03CD364E1E3
S1130AF070E088E990E05AD3A89560918C007091D9
S1130B008D00719561957109072E000C880B990B66
S1130B10A5D44B015C01609196007091970071958A
S1130B2061957109072E000C880B990B97D46B0102
S1130B307C01A5019401D1D32BED3FE049E450E4BD
S1130B4059D321EE3EE245E652E464D56093A00019
S1130B507093A1008093A2009093A3006091CA00B7
S1130B607091CB00719561957109072E000C880B6B
S1130B70990B74D42B013C01A5019401AED32BED48
S1130B803FE049E450E436D321EE3EE245E652E448
S1130B9041D54B015C016093E2007093E3008093C4
S1130BA0E4009093E500A3019201C701B60195D337
S1130BB02BED3FE049E450E41DD321EE3EE245E64F
S1130BC052E428D56093B3007093B4008093B500C9
S1130BD09093B60060910D0170910E01072E000CE8
S1130BE0880B990B3BD423E333E343E851E4CCD3A0
S1130BF06093DE007093DF008093E0009093E10047
S1130C006091210170912201072E000C880B990B31
S1130C1025D423E333E343E851E4B6D32B013C0169
S1130C206093EA007093EB008093EC009093ED00E6
S1130C306091980070919900072E000C880B990B15
S1130C400DD423E333E343E851E49ED36093F800E7
S1130C507093F9008093FA009093FB00E12CF12C3F
S1130C600CED12E4A3019201C501B4017EDC609392
S1130C703501709336018093370190933801809148
S1130C807C008823A9F06091350170913601809130
S1130C9037019091380120E030E044EB52E4A9D2CE
S1130CA06093350170933601809337019093380136
S1130CB0609135017091360180913701909138012E
S1130CC020E030E044E353E45BD318168CF08091C9
S1130CD0350190913601A0913701B091380180938C
S1130CE0350190933601A0933701B0933801E6CED5
S1130CF060913501709136018091370190913801EE
S1130D0020E030E044EB53E474D2609335017093F7
S1130D1036018093370190933801D0CE80913D0104
S1130D20813099F028F08230E9F0833041F134C009
S1130D3080E090E0A0E8B6E4809383009093840080
S1130D40A0938500B093860033C080E090E0A0E0DB
S1130D50B6E48093830090938400A0938500B093BD
S1130D60860026C080E090E0A0E8B5E4809383008C
S1130D7090938400A0938500B093860019C080E00E
S1130D8090E0A0E0B5E48093830090938400A09366
S1130D908500B09386000CC080E090E0A0E8B6E443
S1130DA08093830090938400A0938500B093860081
S1130DB080913C01813099F028F08230E9F0833051
S1130DC041F134C080E090E0A3E0B3E480937F007D
S1130DD090938000A0938100B0938200089580E0F6
S1130DE090E0A3E8B2E480937F0090938000A09306
S1130DF08100B0938200089583E393E3A3E0B2E417
S1130E0080937F0090938000A0938100B093820030
S1130E10089583E393E3A3E8B1E480937F00909380
S1130E208000A0938100B0938200089580E090E058
S1130E30A3E0B3E480937F0090938000A0938100AB
S1130E40B09382000895AC0165E070E080ED97D91D
S1130E500895AF92BF92CF92DF92EF92FF920F93D9
S1130E601F93CF93DF931F92CDB7DEB7182F6983FB
S1130E705A0110928700CA01E6DF813081F4412FC4
S1130E8050E060E070E0C12CD12C7601C3948E0157
S1130E900F5F1F4F28E080EDA1D9809387008091D8
S1130EA087000F90DF91CF911F910F91FF90EF90EA
S1130EB0DF90CF90BF90AF900895AF92BF92CF9242
S1130EC0DF92EF92FF920F931F93CF93C82F8B0162
S1130ED0C42E590110928700C901B5DF813061F435
S1130EE0D12CE12CF12C4C2F50E060E070E028E094
S1130EF080ED46DA8093870080918700CF911F911F
S1130F000F91FF90EF90DF90CF90BF90AF90089536
S1130F10AF92BF92CF92DF92EF92FF920F931F9303
S1130F20CF93DF938C0120D9C9E3D1E088E0888393
S1130F301A8291E09E8319820F2EFEE3AF2EF1E018
S1130F40BF2EF02DF50180818C7F8B7F808383E021
S1130F508B838C839F83A80161E088E37ADF80938D
S1130F60870068816150A80189E173DF909187004F
S1130F70890F809387006B81660F660F660FA80147
S1130F808BE167DF90918700890F809387006C81E4
S1130F90660F660F660FA8018CE15BDF90918700F6
S1130FA0890F809387006981660F660F660F8A81B7
S1130FB0682BA8018AE14DDF90918700890F809307
S1130FC08700F5018081682F67956627679581FB07
S1130FD0CC24C0F8D12C0024D694C7940794D6947A
S1130FE0C7940794DC2CC02CC62A82FBEE24E0F8BC
S1130FF0F12CEE0CFF1CEE0CFF1CEE0CFF1CEE0C97
S1131000FF1CEE0CFF1C6C2D6E29A80187E321DF69
S113101090918700890F80938700A8016F818BE6E8
S113102018DF90918700890F80938700873019F427
S113103075DE81E001C080E0DF91CF911F910F91B7
S1131040FF90EF90DF90CF90BF90AF9008950F93F3
S11310501F93CF93DF9300D0CDB7DEB78C019B01F4
S113106042E0BE016F5F7F4F8BE327DF813051F495
S1131070298130E0322F22279A81292BF8013183EC
S1131080208301C080E00F900F90DF91CF911F91DA
S11310900F9108950F931F93CF93DF9300D0CDB793
S11310A0DEB78C019B0142E0BE016F5F7F4F8DE391
S11310B004DF813051F4298130E0322F22279A81D4
S11310C0292BF8013183208301C080E00F900F9019
S11310D0DF91CF911F910F9108950F931F93CF9399
S11310E0DF9300D0CDB7DEB78C019B0142E0BE0197
S11310F06F5F7F4F8FE3E1DE813051F4298130E06F
S1131100322F22279A81292BF8013183208301C0B1
S113111080E00F900F90DF91CF911F910F91089570
S11311200F931F93CF93DF9300D0CDB7DEB78C011D
S11311309B0142E0BE016F5F7F4F83E4BEDE8130DE
S113114051F4298130E0322F22279A81292BF8018A
S11311503183208301C080E00F900F90DF91CF9105
S11311601F910F9108950F931F93CF93DF9300D096
S1131170CDB7DEB78C019B0142E0BE016F5F7F4FAC
S113118085E49BDE813051F4298130E0322F22271F
S11311909A81292BF8013183208301C080E00F90CC
S11311A00F90DF91CF911F910F9108950F931F938B
S11311B0CF93DF9300D0CDB7DEB78C019B0142E023
S11311C0BE016F5F7F4F87E478DE813051F429815F
S11311D030E0322F22279A81292BF8013183208392
S11311E001C080E00F900F90DF91CF911F910F917C
S11311F008955058BB27AA270ED0CBC1BCD130F0DC
S1131200C1D120F031F49F3F11F41EF48CC10EF4CF
S1131210E095E7FB82C1E92FCDD180F3BA176207CD
S113122073078407950718F071F49EF5E5C10EF471
S1131230E0950B2EBA2FA02D0B01B90190010C01E2
S1131240CA01A0011124FF27591B99F0593F50F4FA
S1131250503E68F11A16F040A22F232F342F442752
S1131260585FF3CF469537952795A795F04053954A
S1131270C9F77EF41F16BA0B620B730B840BBAF01A
S11312809150A1F0FF0FBB1F661F771F881FC2F785
S11312900EC0BA0F621F731F841F48F48795779599
S11312A06795B795F7959E3F08F0B3CF9395880F50
S11312B008F09927EE0F9795879508955CD158F01B
S11312C080E891E009F49EEF5DD128F040E851E018
S11312D059F45EEF09C027C18FC1E92FE0786AD1C4
S11312E068F3092E052AC1F326173707480759075B
S11312F038F00E2E07F8E02569F0E025E0640AC016
S1131300EF6307F8009407FADB01B9019D01DC01E2
S1131310CA01AD01EF9347D03CD10AD05F91552368
S113132031F02BED3FE049E450FD49EC63CF0895E3
S1131330DF93DD27B92FBF7740E85FE31616170662
S113134048075B0710F4D92F5ED19F938F937F9347
S11313506F93C3D1E6E2F0E0E9D01BD12F913F9126
S11313604F915F9163D1DD2349F09058A2EA2AEDB1
S11313703FE049EC5FE3D0785D274DDFDF9109C1A1
S1131380A8D008F481E008950CD003C1FBD040F04C
S1131390F2D030F021F45F3F19F0BFC051112DC1DC
S11313A0C2C008D198F39923C9F35523B1F3951B0F
S11313B0550BBB27AA2762177307840738F09F5F72
S11313C05F4F220F331F441FAA1FA9F333D00E2EE1
S11313D03AF0E0E830D091505040E695001CCAF74E
S11313E029D0FE2F27D0660F771F881FBB1F261713
S11313F037074807AB07B0E809F0BB0B802DBF01E6
S1131400FF2793585F4F2AF09E3F510568F085C02F
S1131410F4C05F3FECF3983EDCF3869577956795CF
S1131420B795F7959F5FC9F7880F911D9695879596
S113143097F90895E1E0660F771F881FBB1F6217B5
S113144073078407BA0720F0621B730B840BBA0B73
S1131450EE1F88F7E0950895E89409C097FB3EF4E1
S113146090958095709561957F4F8F4F9F4F9923ED
S1131470A9F0F92F96E9BB279395F695879577956B
S11314806795B795F111F8CFFAF4BB0F11F460FF2B
S11314901BC06F5F7F4F8F4F9F4F16C0882311F083
S11314A096E911C0772321F09EE8872F762F05C097
S11314B0662371F096E8862F70E060E02AF09A9532
S11314C0660F771F881FDAF7880F9695879597F927
S11314D00895990F0008550FAA0BE0E8FEEF1616C1
S11314E01706E807F907C0F012161306E407F50714
S11314F098F0621B730B840B950B39F40A2661F088
S1131500232B242B252B21F408950A2609F4A1402A
S1131510A6958FEF811D811D089597F99F6780E837
S113152070E060E008959FEF80EC0895DF93CF931F
S11315301F930F93FF92EF92DF927B018C016894CB
S113154005C0DA2EEF0172D0FE01E894A591259131
S1131550359145915591AEF3EF015DDEFE019701A2
S1131560A801DA9479F7DF90EF90FF900F911F9123
S1131570CF91DF91089500240A94161617061806D1
S11315800906089500240A94121613061406050683
S11315900895092E0394000C11F4882352F0BB0F14
S11315A040F4BF2B11F460FF04C06F5F7F4F8F4F77
S11315B09F4F089557FD9058440F551F59F05F3FB2
S11315C071F04795880F97FB991F61F09F3F79F061
S11315D087950895121613061406551FF2CF4695E3
S11315E0F1DF08C0161617061806991FF1CF869565
S11315F07105610508940895E894BB276627772749
S1131600CB0197F908959B01AC0160E070E080E89C
S11316109FE3BACE0BD0BDCFAEDF28F0B3DF18F016
S1131620952309F07ACF7FCF1124E7CFC3DFA0F34E
S1131630959FD1F3950F50E0551F629FF001729F63
S1131640BB27F00DB11D639FAA27F00DB11DAA1F82
S1131650649F6627B00DA11D661F829F2227B00DCF
S1131660A11D621F739FB00DA11D621F839FA00D5A
S1131670611D221F749F3327A00D611D231F849FAA
S1131680600D211D822F762F6A2F11249F57504001
S11316908AF0E1F088234AF0EE0FFF1FBB1F661F9C
S11316A0771F881F91505040A9F79E3F510570F055
S11316B034CFA3CF5F3FECF3983EDCF38695779568
S11316C06795B795F795E7959F5FC1F7FE2B880F50
S11316D0911D9695879597F908959B01AC019ACF32
S10716E0F894FFCFA8
S10716E4012F0000CE
S9030000FC
