:1000000029C043C042C07AC540C03FC03EC03DC0C9
:100010003CC050C53AC0F9C538C02FC636C035C03F
:1000200034C033C032C0084AD73B3BCE016E84BCDB
:10003000BFFDC12F3D6C74319ABD56833DDA3D0042
:10004000C77F11BED9E4BB4C3E916BAAAABE00008B
:1000500000803F0011241FBECFE5D4E0DEBFCDBF3E
:1000600010E0A0E6B0E0E8E4FAE102C005900D92ED
:10007000A236B107D9F721E0A2E6B0E001C01D9297
:10008000AD35B207E1F74BD6DDCCBACF84EA86BFF7
:1000900006B607FC07C080E197E206B607FC02C07F
:1000A0000197D9F781B1887F089583B984E886BF25
:1000B00006B607FC07C080E197E206B607FC02C05F
:1000C0000197D9F781B1887F089588EE93E0019771
:1000D000F1F784EC86BF06B607FC07C080E197E223
:1000E00006B607FC02C00197D9F783B1089584E8EA
:1000F00086BF06B607FC07C080E197E206B607FC9C
:1001000002C00197D9F783B1089584E986BF06B686
:1001100004FE07C080E197E206B604FE02C0019724
:10012000D9F7089581E081B98AE080B984E086BF7B
:100130000895DF92EF92FF920F931F93CF93DF9377
:10014000D82EEB018A01209799F0E12CF12CC801FF
:100150009DDF883019F4B8018D2DA7DF883129F48F
:10016000C801D3DF8FEFE81AF80A219781F702C0A0
:10017000E12CF12C81E0EF2809F480E0DF91CF91B0
:100180001F910F91FF90EF90DF9008952F923F9273
:100190004F925F926F927F928F929F92AF92BF9297
:1001A000CF92DF92EF92FF920F931F93CF93DF9343
:1001B000C82F2A013B01D22F1501A50161E070E093
:1001C000B8DF813009F096C0C50160DFD83041F555
:1001D000883099F4D301C201689416F8B695A795B2
:1001E000979587951694D1F78E70B5018C2B5DDFAE
:1001F000812C912C5401839403C0812C912C5401A7
:10020000883141F4B101842D50DF9FEF891A990A9A
:10021000A90AB90AC114D104E104F10481F543C06B
:100220008830A1F4D301C201072E7FE0B695A795CF
:10023000979587957A95D1F7702D8270B5018C2BA3
:1002400034DF812C912C5401839403C0812C912C98
:100250005401883141F4B101852D27DFEFEF8E1A6B
:100260009E0AAE0ABE0A883209F048C0B101842D48
:100270001CDFFFEF8F1A9F0AAF0ABF0ACBCF260100
:100280003701883251F4B101F80181918F010DDFFE
:10029000FFEF8F1A9F0AAF0ABF0A91E0491A51086F
:1002A0006108710871F7883239F4C1012EDFEFEF70
:1002B0008E1A9E0AAE0ABE0AD83069F4F3E0CF0E59
:1002C000D11CE11CF11C81E0C814D904EA04FB0430
:1002D000E1F080E01AC0D03179F484E0C80ED11C7E
:1002E000E11CF11C81E0C814D904EA04FB0469F0A4
:1002F00080E00BC080E009C080E007C0C114D104D9
:10030000E104F10409F0BBCFE6CFDF91CF911F915B
:100310000F91FF90EF90DF90CF90BF90AF909F90A4
:100320008F907F906F905F904F903F902F900895A7
:100330002F923F924F925F926F927F928F929F92F5
:10034000AF92BF92CF92DF92EF92FF920F931F93E3
:10035000CF93DF93C82F2A013B01D22F1501A501AE
:1003600061E070E0E6DE813009F0C1C0C5018EDEDB
:10037000D83019F5883099F4D301C201689416F881
:10038000B695A795979587951694D1F78E70B50178
:100390008C2B8BDE812C912C5401839403C0812CF7
:1003A000912C54018831B1F5B101842D7EDE9FEF8F
:1003B000891A990AA90AB90A2DC08830A1F4D30173
:1003C000C201072E7FE0B695A795979587957A95F8
:1003D000D1F7702D8270B5018C2B67DE812C912CAA
:1003E0005401839403C0812C912C5401883141F431
:1003F000B101852D5ADEEFEF8E1A9E0AAE0ABE0AB3
:10040000883289F4B101842D50DEFFEF8F1A9F0AE4
:10041000AF0ABF0A883239F4C10138DE9FEF891A6A
:10042000990AA90AB90A803149F4B1018C2F816077
:100430003CDEEFEF8E1A9E0AAE0ABE0AF2E0CF163D
:10044000D104E104F104E8F026013701982F9F7EE2
:10045000903461F4C10139DEF80181938F0181B1DB
:10046000887FFFEF8F1A9F0AAF0ABF0A91E0491AEF
:10047000510861087108E1E04E16510461047104ED
:1004800029F7982F9F7E903459F4C10130DEF8018E
:10049000808381B1887FFFEF8F1A9F0AAF0ABF0A5E
:1004A000883539F4C10131DE8FEF881A980AA80A1D
:1004B000B80AD83069F495E0C90ED11CE11CF11CD2
:1004C00081E0C814D904EA04FB04A1F080E012C062
:1004D000D03179F4E6E0CE0ED11CE11CF11C81E0B4
:1004E000C814D904EA04FB0429F080E003C080E0CA
:1004F00001C080E0DF91CF911F910F91FF90EF90AD
:10050000DF90CF90BF90AF909F908F907F906F9033
:100510005F904F903F902F900895CF93DF9300D03E
:1005200000D0CDB7DEB769837A838B839C83FE01CD
:100530003196DA01A20FB31F9E012B5F3F4F8191CD
:100540008D93E217F307D9F70F900F900F900F904C
:10055000DF91CF9108954F925F926F927F928F9229
:100560009F92AF92BF92CF92DF92EF92FF920F9342
:100570001F93CF93DF93CDB7DEB7A2970FB6F89452
:10058000DEBF0FBECDBF9AA389A349875A876B8769
:100590007C87C901B801A9A1BAA114962D913D91FA
:1005A0004D915C911797298B3A8B4B8B5C8B8DD738
:1005B000A7019601CCD9E9A1FAA12081318142811C
:1005C000538184D7698F7A8F8B8F9C8FA9A1BAA111
:1005D00054962D913D914D915C9157972D8B3E8B6B
:1005E0004F8B588FC701B601B2D969837A838B8349
:1005F0009C83E9A1FAA14484558466847784808829
:100600009188A288B388A30192015FD7A5019401C4
:100610005CD72DEC3CEC4CEC5CE358D7A701960181
:1006200096D9A9A1BAA118962D913D914D915C91B1
:100630001B974CD76D837E838F83988729813A815E
:100640004B815C81C301B20140D72B013C01298160
:100650003A814B815C81C501B40137D76D8F7E8FA4
:100660008F8F98A32CEB34E743E95CE36D817E81A7
:100670008F8198852BD74B015C019B01AC016D816B
:100680007E818F819885ECD769837A838B839C8365
:10069000A50194016D8D7E8D8F8D98A1E1D76D8719
:1006A0007E878F87988B298D3A8D4B8D5C8D6985E0
:1006B0007A858B859C8509D769877A878B879C8704
:1006C0009B01AC0169817A818B819C8140D9298D04
:1006D0003A8D4B8D5C8DFAD64B015C01E9A1FAA1F4
:1006E000608371838283938329853A854B855C85FA
:1006F0006D857E858F8598892AD929893A894B8984
:100700005C89E4D6A9A1BAA114966D937D938D93CB
:100710009C93179729813A814B815C816D817E8101
:100720008F81988514D99B01AC016D817E818F8169
:100730009885CBD6E9A1FAA16087718782879387D4
:1007400029813A814B815C81C301B20100D99B01AF
:10075000AC01C301B201B9D6A9A1BAA11C966D938F
:100760007D938D939C931F972D853E854F8558894A
:100770006D817E818F819885EAD89B01AC016D8D5A
:100780007E8D8F8D98A1A1D6E9A1FAA1608B718B86
:10079000828B938B2AE037ED43EA5CE3C701B60115
:1007A000D6D82D893E894F89588D90D66B017C0112
:1007B0002D853E854F855889C301B201C8D89B015C
:1007C000AC01C701B60181D6A9A1BAA154966D9317
:1007D0007D938D939C935797C501B401A2960FB654
:1007E000F894DEBF0FBECDBFDF91CF911F910F9167
:1007F000FF90EF90DF90CF90BF90AF909F908F9041
:100800007F906F905F904F9008956623B9F0FC0140
:10081000615070E06F5F7F4F680F791F80E04CE898
:10082000219198E0322F38278695269530FD842730
:100830009150C1F7E617F70799F7089580E00895FA
:100840000F931F93CF93DF9380916900882309F45E
:1008500047C080916300813019F4C091630009C0E2
:1008600080916300823020F0C0916300CF5F01C0AF
:10087000C0E080911F01C81318C164E08FE191E0CE
:10088000C4DF90912301891310C182B383FB8827B1
:1008900080F9D1E08D2780FD939A80FF939887E0BF
:1008A000EFE1F1E0DF01982F1D929A95E9F706E25A
:1008B00011E0D8011D928A95E9F7F801C083809173
:1008C00036019091370191838283C38364E0C8012C
:1008D0009CDFD80114968C93929AD0936600E5C061
:1008E00090911F01809163009813DFC066E08FE153
:1008F00091E08BDF909125018913D7C082B383FBF0
:10090000992790F981E0892780FD939A80FF939839
:10091000EFE1F1E082818093640083818F3659F5A5
:1009200080916B008A3030F480916B008F5F8093F0
:100930006B0023C080916B008A30F9F48091230111
:10094000853070F480912301882351F08091230138
:10095000809363006091630080E090E066D808C0F7
:1009600081E0809363006091630080E090E05DD857
:1009700010926B0002C010926B00809122018037B0
:1009800019F580916A008A3030F480916A008F5F97
:1009900080936A001BC080916A008A30B9F480910C
:1009A0006200811108C08FEF809362006FEF81E0D9
:1009B00090E03BD806C01092620060E081E090E0D9
:1009C00034D810926A0002C010926A0087E0EFE10A
:1009D000F1E0DF01982F1D929A95E9F7E6E2F1E048
:1009E000DF011D928A95E9F78091630080838091F1
:1009F00064008A3F21F0809164008A3A69F4609132
:100A00007F0070918000809181009091820021E0B0
:100A100030E046E251E081DD809164008D3BC1F51C
:100A20006091750070917600409171005091720054
:100A3000262F372F33231CF4319521953109842F2C
:100A4000952F99231CF4919581959109821793070D
:100A50002CF4E6E2F1E07183628304C0E6E2F1E0A7
:100A6000518342838091730090917400E6E2F1E03B
:100A7000938384838BE090E090937600809375005D
:100A80009093740080937300909372008093710030
:100A900080916300C6E2D1E08D8366E0CE01B5DED1
:100AA0008E83929A81E080936600DF91CF911F91AF
:100AB0000F9108951F920F920FB60F9211248F93EA
:100AC0008BE482BF80916500813049F480912D01D3
:100AD000853029F481E080936900809368008091DB
:100AE0006500882329F0809165008150809365001E
:100AF0008F910F900FBE0F901F9018951F920F921D
:100B00000FB60F9211242F933F934F935F936F93E0
:100B10007F938F939F93AF93BF93EF93FF93A8958A
:100B200080916D0090916E00883E23E0920730F432
:100B3000019690936E0080936D0010C080916F00BD
:100B4000882341F0813019F491E090937000815036
:100B500080936F0010926E0010926D00809166007D
:100B6000813089F410926600509A80916900882340
:100B700021F084E080931E0103C086E080931E0173
:100B8000809126018CB980916C00882329F0809196
:100B90006C00815080936C0080916700882319F06D
:100BA00010926700929880916800882339F048DE9F
:100BB0001092680088EC80936C0016C080916C00E5
:100BC000813009F4929880916C0081110DC088ECFD
:100BD00080936C0082B383FB992790F981E0892789
:100BE00080FD939A80FF9398FF91EF91BF91AF9111
:100BF0009F918F917F916F915F914F913F912F9135
:100C00000F900FBE0F901F9018951F920F920FB666
:100C10000F9211248F939F93EF93FF93519B0CC0DE
:100C200010922D01109269008CB180931F018DE00C
:100C30008093650080E00DC080912D01E82FF0E0E9
:100C40009CB1E15EFE4F90839DE0909365008630FD
:100C500020F48F5F80932D0107C081E080936800AE
:100C60001092650010926900FF91EF919F918F9112
:100C70000F900FBE0F901F9018951F920F920FB6F6
:100C80000F9211248F93EF93FF9380911E0188237D
:100C9000F1F0815080931E01509880916900882363
:100CA00059F080911E01E4E0F0E0E81BF109EA5DF3
:100CB000FE4F80818CB910C080911E01E6E0F0E00B
:100CC000E81BF109EA5DFE4F80818CB905C01092E6
:100CD000690081E080936700FF91EF918F910F9001
:100CE0000FBE0F901F90189585B58C6085BD89B794
:100CF000806889BF86EE83BD089583B7826083BF15
:100D000089B7816089BF8BE482BF089590BD89B99E
:100D10008AB18C6D8AB980B5866880BD089580E0FF
:100D200090E07BD68093630081E090E076D680935C
:100D3000620080916300853020F48091630081110E
:100D400008C081E0809363006091630080E090E0E0
:100D50006CD678949EE088E10FB6F894A89581BD92
:100D60000FBE91BD8FEF84BB83E084BB84E690E02F
:100D7000A9D2C3DFB9DF8FE290E0C8DF8A9A8B9AED
:100D8000939A2FEF8FE794E0215080409040E1F755
:100D900000C000000F2EF5E03F2EF02D8091700076
:100DA000882359F01092700084E690E08BD2EFEF28
:100DB000FFE83197F1F700C0000064E170E08FEECA
:100DC00090E01DD38093610064E170E085EF90E0D6
:100DD00049D38093600090916100992309F47BC10D
:100DE000811107C020916F00211171C130926F00F5
:100DF0006EC1913011F0813029F480916F00811122
:100E000010926F00A895CFEED0E06E817F81072E03
:100E1000000C880B990BBFD42B013C0168817981B0
:100E2000072E000C880B990BB6D4AB01BC010F2E1A
:100E3000FFE9CF2EFBEADF2EFDEAEF2EFBE3FF2ECC
:100E4000F02D9301820183EB90E085DBEBECF0E089
:100E5000608371838283938368857985072E000C74
:100E6000880B990B98D42B013C016A817B81072E5A
:100E7000000C880B990B8FD4AB01BC01930182014C
:100E80008BE990E068DB6093CF007093D000809393
:100E9000D1009093D2006A857B85072E000C880BC9
:100EA000990B79D42B013C016C817D81072E000CBC
:100EB000880B990B70D4AB01BC019301820183E8CC
:100EC00090E049DB6B017C016093D3007093D40008
:100ED0008093D5009093D600EBECF0E08080918079
:100EE000A280B3802401350177FA709477F870946A
:100EF0009B01AC015058C301B2015BD32BED3FE025
:100F000049E450E4E3D221EE3EE245E652E41FD547
:100F100060937B0070937C0080937D0090937E00B3
:100F2000809164008A3FA9F460917B0070917C00FD
:100F300080917D0090917E0020E030E044EB52E40F
:100F4000C4D260937B0070937C0080937D0090936B
:100F50007E0060917B0070917C0080917D0090917B
:100F60007E0020E030E044E353E476D318168CF0A2
:100F700080917B0090917C00A0917D00B0917E00DB
:100F800080937F0090938000A0938100B0938200B3
:100F900015C060917B0070917C0080917D009091E4
:100FA0007E0020E030E044EB53E48FD260937F007A
:100FB0007093800080938100909382008091640000
:100FC0008091EF009091F0002091750030917600B3
:100FD00033231CF4319521953109AC01992324F474
:100FE00044275527481B590B2417350724F49093A1
:100FF0007600809375008091F1009091F20020912D
:1010000073003091740033231CF43195219531091C
:10101000AC01992324F444275527481B590B241766
:10102000350724F490937400809373008091F3004B
:101030009091F400209171003091720033231CF4E0
:10104000319521953109AC01992324F44427552782
:10105000481B590B2417350724F490937200809392
:10106000710080916200882389F0A5019401C70175
:10107000B601F6D2C9D220E030E44CE156E467D4A0
:1010800057D3709337016093360110C0A7019601C2
:10109000C301B201E5D2B8D220E030E44CE156E41D
:1010A00056D446D3709337016093360180917F0008
:1010B00090918000A0918100B09182008093770090
:1010C00090937800A0937900B0937A0067CE913026
:1010D00009F091CE95CE20916F00222309F486CE9F
:1010E0008ACEAF92BF92CF92DF92EF92FF920F9390
:1010F0001F938B0110920901C42ED12CE12CF12CED
:10110000482F50E060E070E0590128E080ED10D9F0
:10111000809309011F910F91FF90EF90DF90CF9086
:10112000BF90AF90089580915901813099F028F0D7
:101130008230E9F0833041F134C080E090E0A0E8F3
:10114000B6E48093050190930601A0930701B09344
:10115000080133C080E090E0A0E0B6E48093050190
:1011600090930601A0930701B093080126C080E088
:1011700090E0A0E8B5E48093050190930601A09368
:101180000701B093080119C080E090E0A0E0B5E449
:101190008093050190930601A0930701B093080185
:1011A0000CC080E090E0A0E8B6E480930501909345
:1011B0000601A0930701B093080180915801813086
:1011C00099F028F08230E9F0833041F134C080E0BA
:1011D00090E0A3E0B3E48093010190930201A09317
:1011E0000301B0930401089580E090E0A3E8B2E425
:1011F0008093010190930201A0930301B093040135
:10120000089583E393E3A3E0B2E480930101909314
:101210000201A0930301B0930401089583E393E3D3
:10122000A3E8B1E48093010190930201A09303012C
:10123000B0930401089580E090E0A3E0B3E48093CC
:10124000010190930201A0930301B093040108955A
:10125000AC0165E070E080ED6CD70895AF92BF926D
:10126000CF92DF92EF92FF920F931F93CF93DF9372
:101270001F92CDB7DEB7182F69835A01109209016A
:10128000CA01E6DF813081F4412F50E060E070E078
:10129000C12CD12C7601C3948E010F5F1F4F28E023
:1012A00080ED74D780930901809109010F90DF913F
:1012B000CF911F910F91FF90EF90DF90CF90BF9053
:1012C000AF900895AF92BF92CF92DF92EF92FF92CC
:1012D0000F931F93CF93DF938C0124D7C5E5D1E003
:1012E00018821A821E8219820F2EFAE5AF2EF1E0C3
:1012F000BF2EF02DF50180818C7F8B7F80831B8238
:101300001C8281E08F83A80160E088E3A7DF8093DF
:10131000090168816150A80189E1A0DF909109016C
:10132000890F809309016B81660F660F660FA80114
:101330008BE194DF90910901890F809309016C8101
:10134000660F660F660FA8018CE188DF9091090196
:10135000890F809309016981660F660F660F8A8184
:10136000682BA8018AE17ADF90910901890F8093A7
:101370000901F5018081682F67956627679581FBD4
:10138000CC24C0F8D12C0024D694C7940794D694CA
:10139000C7940794DC2CC02CC62A82FBEE24E0F80C
:1013A000F12CEE0CFF1CEE0CFF1CEE0CFF1CEE0CE7
:1013B000FF1CEE0CFF1C6C2D6E29A80187E34EDF8D
:1013C00090910901890F80930901A8016F818BE633
:1013D00045DF90910901890F80930901873019F445
:1013E000A2DE81E001C080E0DF91CF911F910F91DB
:1013F000FF90EF90DF90CF90BF90AF9008950F9344
:101400001F93CF93DF9300D000D000D0CDB7DEB7CD
:101410008C019B0146E0BE016F5F7F4F8BE361DE75
:101420008130A1F4FE013196A8014A5F5F4F20810F
:1014300030E0322F22279181292BD8012D933D9323
:101440008D0132964A175B0791F701C080E026961E
:101450000FB6F894DEBF0FBECDBFDF91CF911F91C5
:101460000F9108950F931F93CF93DF9300D000D077
:1014700000D0CDB7DEB78C019B0146E0BE016F5FA7
:101480007F4F83E42EDE8130A1F4FE013196A80166
:101490004A5F5F4F208130E0322F22279181292B34
:1014A000D8012D933D938D0132964A175B0791F732
:1014B00001C080E026960FB6F894DEBF0FBECDBF08
:1014C000DF91CF911F910F9108955058BB27AA2704
:1014D0000ED0FCC1EDD130F0F2D120F031F49F3FBD
:1014E00011F41EF4BDC10EF4E095E7FBB3C1E92F82
:1014F000FED180F3BA17620773078407950718F0C7
:1015000071F49EF516C20EF4E0950B2EBA2FA02DA5
:101510000B01B90190010C01CA01A0011124FF27A0
:10152000591B99F0593F50F4503E68F11A16F0409B
:10153000A22F232F342F4427585FF3CF469537959A
:101540002795A795F0405395C9F77EF41F16BA0B5F
:10155000620B730B840BBAF09150A1F0FF0FBB1F0D
:10156000661F771F881FC2F70EC0BA0F621F731F56
:10157000841F48F4879577956795B795F7959E3FB3
:1015800008F0B3CF9395880F08F09927EE0F979541
:10159000879508958DD158F080E891E009F49EEF89
:1015A0008ED128F040E851E059F45EEF09C058C1EF
:1015B000C0C1E92FE0789BD168F3092E052AC1F359
:1015C000261737074807590738F00E2E07F8E02589
:1015D00069F0E025E0640AC0EF6307F8009407FAB9
:1015E000DB01B9019D01DC01CA01AD01EF9347D0D8
:1015F0006DD10AD05F91552331F02BED3FE049E4E6
:1016000050FD49EC63CF0895DF93DD27B92FBF77F5
:1016100040E85FE31616170648075B0710F4D92F5A
:101620008FD19F938F937F936F93F4D1E6E2F0E095
:101630001AD14CD12F913F914F915F9194D1DD23DD
:1016400049F09058A2EA2AED3FE049EC5FE3D078F8
:101650005D274DDFDF913AC1D9D008F481E00895CC
:101660000CD034C12CD140F023D130F021F45F3FB5
:1016700019F0F0C051115EC1F3C039D198F399232C
:10168000C9F35523B1F3951B550BBB27AA27621746
:101690007307840738F09F5F5F4F220F331F441F8B
:1016A000AA1FA9F333D00E2E3AF0E0E830D09150C3
:1016B0005040E695001CCAF729D0FE2F27D0660FB0
:1016C000771F881FBB1F261737074807AB07B0E8EF
:1016D00009F0BB0B802DBF01FF2793585F4F2AF005
:1016E0009E3F510568F0B6C025C15F3FECF3983EC0
:1016F000DCF3869577956795B795F7959F5FC9F762
:10170000880F911D9695879597F90895E1E0660FEA
:10171000771F881FBB1F621773078407BA0720F063
:10172000621B730B840BBA0BEE1F88F7E0950895CC
:1017300004D06894B111FEC00895E1D088F09F579D
:1017400090F0B92F9927B751A0F0D1F0660F771F0D
:10175000881F991F1AF0BA95C9F712C0B13081F0ED
:10176000E8D0B1E00895E5C0672F782F8827B85FEB
:1017700039F0B93FCCF3869577956795B395D9F74E
:101780003EF490958095709561957F4F8F4F9F4F58
:101790000895E89409C097FB3EF490958095709564
:1017A00061957F4F8F4F9F4F9923A9F0F92F96E9AD
:1017B000BB279395F695879577956795B795F11122
:1017C000F8CFFAF4BB0F11F460FF1BC06F5F7F4FBF
:1017D0008F4F9F4F16C0882311F096E911C07723D1
:1017E00021F09EE8872F762F05C0662371F096E8DA
:1017F000862F70E060E02AF09A95660F771F881FA9
:10180000DAF7880F9695879597F90895990F00084C
:10181000550FAA0BE0E8FEEF16161706E807F907C2
:10182000C0F012161306E407F50798F0621B730B5D
:10183000840B950B39F40A2661F0232B242B252BDE
:1018400021F408950A2609F4A140A6958FEF811D81
:10185000811D089597F99F6780E870E060E0089522
:101860009FEF80EC0895DF93CF931F930F93FF9228
:10187000EF92DF927B018C01689405C0DA2EEF01B4
:1018800072D0FE01E894A59125913591459155912D
:10189000AEF3EF012CDEFE019701A801DA9479F78F
:1018A000DF90EF90FF900F911F91CF91DF910895FE
:1018B00000240A941616170618060906089500242F
:1018C0000A9412161306140605060895092E0394A9
:1018D000000C11F4882352F0BB0F40F4BF2B11F41D
:1018E00060FF04C06F5F7F4F8F4F9F4F089557FD7C
:1018F0009058440F551F59F05F3F71F04795880F7E
:1019000097FB991F61F09F3F79F087950895121614
:1019100013061406551FF2CF4695F1DF08C01616C0
:1019200017061806991FF1CF869571056105089471
:101930000895E894BB2766277727CB0197F9089588
:101940009B01AC0160E070E080E89FE389CE0BD0A2
:10195000BDCFAEDF28F0B3DF18F0952309F07ACFC2
:101960007FCF1124E7CFC3DFA0F3959FD1F3950F6D
:1019700050E0551F629FF001729FBB27F00DB11D13
:10198000639FAA27F00DB11DAA1F649F6627B00DA3
:10199000A11D661F829F2227B00DA11D621F739F8C
:1019A000B00DA11D621F839FA00D611D221F749F9A
:1019B0003327A00D611D231F849F600D211D822FE1
:1019C000762F6A2F11249F5750408AF0E1F0882328
:1019D0004AF0EE0FFF1FBB1F661F771F881F915035
:1019E0005040A9F79E3F510570F034CFA3CF5F3F21
:1019F000ECF3983EDCF3869577956795B795F79568
:101A0000E7959F5FC1F7FE2B880F911D96958795EF
:101A100097F908959B01AC019ACFE199FECF9FBB46
:101A20008EBBE09A99278DB30895262FE199FECFBA
:101A30009FBB8EBB2DBB0FB6F894E29AE19A0FBE06
:081A400001960895F894FFCF10
:021A480001019A
:00000001FF
