S017000044492D3630315F4D50552D363035302E7372656373
S113000029C043C042C0DAC440C03FC03EC03DC066
S11300103CC03BC03AC00AC538C034C536C035C040
S113002034C033C032C0084AD73B3BCE016E84BCD7
S1130030BFFDC12F3D6C74319ABD56833DDA3D003E
S1130040C77F11BED9E4BB4C3E916BAAAABE000087
S113005000803F0011241FBECFE5D4E0DEBFCDBF3A
S113006010E0A0E6B0E0E2EBFDE102C005900D92E5
S1130070A838B107D9F721E0A8E8B0E001C01D9283
S1130080AE32B207E1F7A9D592CEBACF24EA26BFA1
S113009006B607FC0EC0009761F0E9EFF0E0319777
S11300A0F1F700C00000019706B607FC02C00097F4
S11300B0A1F781B1887F089583B984E886BF06B625
S11300C007FC11C06115710571F089EF90E001978B
S11300D0F1F700C000006150710906B607FC03C0C7
S11300E06115710591F781B1887F089524EC26BFCD
S11300F006B607FC0EC0009761F0E9EFF0E0319717
S1130100F1F700C00000019706B607FC02C0009793
S1130110A1F783B1089524E826BF06B607FC0EC0F4
S1130120009761F0E9EFF0E03197F1F700C00000CB
S1130130019706B607FC02C00097A1F783B10895A2
S113014024E926BF06B604FE0EC0009761F0E9EF6D
S1130150F0E03197F1F700C00000019706B604FE05
S113016002C00097A1F7089581E081B989EF80B9B1
S113017084E086BF0895DF92EF92FF920F931F935E
S1130180CF93DF93D82EEB018A01209799F0E12CCD
S1130190F12CC8017BDF883019F4B8018D2D8CDF78
S11301A0883129F4C801CCDF8FEFE81AF80A2197C7
S11301B081F702C0E12CF12C81E0EF2809F480E002
S11301C0DF91CF911F910F91FF90EF90DF900895F1
S11301D02F923F924F925F926F927F928F929F9253
S11301E0AF92BF92CF92DF92EF92FF920F931F9341
S11301F0CF93DF93C82F2A013B01D22F1501A5010C
S113020061E070E0B8DF813009F096C0C5013EDFDF
S1130210D83041F5883099F4D301C201689416F8B6
S1130220B695A795979587951694D1F78E70B501D5
S11302308C2B42DF812C912C5401839403C0812C9C
S1130240912C5401883141F4B101842D35DF9FEFA5
S1130250891A990AA90AB90AC114D104E104F1045A
S113026081F543C08830A1F4D301C201072E7FE099
S1130270B695A795979587957A95D1F7702D827045
S1130280B5018C2B19DF812C912C5401839403C06C
S1130290812C912C5401883141F4B101852D0CDF5E
S11302A0EFEF8E1A9E0AAE0ABE0A883209F048C0E1
S11302B0B101842D01DFFFEF8F1A9F0AAF0ABF0A35
S11302C0CBCF26013701883251F4B101F801819175
S11302D08F01F2DEFFEF8F1A9F0AAF0ABF0A91E087
S11302E0491A51086108710871F7883239F4C1015B
S11302F027DFEFEF8E1A9E0AAE0ABE0AD83069F4E1
S1130300F3E0CF0ED11CE11CF11C81E0C814D90428
S1130310EA04FB04E1F080E01AC0D03179F484E00F
S1130320C80ED11CE11CF11C81E0C814D904EA04F4
S1130330FB0469F080E00BC080E009C080E007C0E6
S1130340C114D104E104F10409F0BBCFE6CFDF917D
S1130350CF911F910F91FF90EF90DF90CF90BF90BE
S1130360AF909F908F907F906F905F904F903F9051
S11303702F9008952F923F924F925F926F927F92A7
S11303808F929F92AF92BF92CF92DF92EF92FF92A1
S11303900F931F93CF93DF93C82F2A013B01D22FD2
S11303A01501A50161E070E0E6DE813009F0C1C00D
S11303B0C5016CDED83019F5883099F4D301C20137
S11303C0689416F8B695A795979587951694D1F7DE
S11303D08E70B5018C2B70DE812C912C540183948A
S11303E003C0812C912C54018831B1F5B101842DC5
S11303F063DE9FEF891A990AA90AB90A2DC08830C9
S1130400A1F4D301C201072E7FE0B695A795979575
S113041087957A95D1F7702D8270B5018C2B4CDEBF
S1130420812C912C5401839403C0812C912C540170
S1130430883141F4B101852D3FDEEFEF8E1A9E0A1B
S1130440AE0ABE0A883289F4B101842D35DEFFEF8D
S11304508F1A9F0AAF0ABF0A883239F4C10116DE27
S11304609FEF891A990AA90AB90A803149F4B1019E
S11304708C2F816021DEEFEF8E1A9E0AAE0ABE0A2F
S1130480F2E0CF16D104E104F104E8F026013701CB
S1130490982F9F7E903461F4C10128DEF801819386
S11304A08F0181B1887FFFEF8F1A9F0AAF0ABF0ABD
S11304B091E0491A510861087108E1E04E165104AF
S11304C06104710429F7982F9F7E903459F4C10177
S11304D022DEF801808381B1887FFFEF8F1A9F0AA3
S11304E0AF0ABF0A883539F4C1012ADE8FEF881AB2
S11304F0980AA80AB80AD83069F495E0C90ED11C44
S1130500E11CF11C81E0C814D904EA04FB04A1F045
S113051080E012C0D03179F4E6E0CE0ED11CE11CAB
S1130520F11C81E0C814D904EA04FB0429F080E03A
S113053003C080E001C080E0DF91CF911F910F9153
S1130540FF90EF90DF90CF90BF90AF909F908F90EF
S11305507F906F905F904F903F902F900895CF932E
S1130560DF9300D000D0CDB7DEB769837A838B8365
S11305709C83FE013196DA01A20FB31F9E012B5F0B
S11305803F4F81918D93E217F307D9F70F900F90A6
S11305900F900F90DF91CF9108954F925F926F92D9
S11305A07F928F929F92AF92BF92CF92DF92EF92FF
S11305B0FF920F931F93CF93DF93CDB7DEB7A0972E
S11305C00FB6F894DEBF0FBECDBF6D877E878F87D1
S11305D0988BCA01B901E986FA860B871C8720919A
S11305E09C0030919D0040919E0050919F002D8B66
S11305F03E8B4F8B588F82D6A801970190D82091BB
S113060098003091990040919A0050919B0077D6C0
S1130610698F7A8F8B8F9C8FC0909400D0909500B7
S1130620E0909600F0909700A701960169857A857D
S11306308B859C8574D869837A838B839C83409053
S11306408C0050908D0060908E0070908F00809090
S1130650900090909100A0909200B0909300A3011C
S113066092014CD6A501940149D62AE037ED43E224
S11306705CE345D629853A854B855C8550D8E8E806
S1130680F0E0208131814281538139D66D837E83AC
S11306908F83988729813A814B815C81C301B201A0
S11306A02DD62B013C0129813A814B815C81C50106
S11306B0B40124D66D8F7E8F8F8F98A32DEC3CECE4
S11306C04CEC5DE36D817E818F81988518D64B015A
S11306D05C019B01AC016D817E818F819885D9D6A7
S11306E069837A838B839C83A50194016D8D7E8DB0
S11306F08F8D98A1CED6698B7A8B8B8B9C8B298D11
S11307003A8D4B8D5C8D6D857E858F859889F6D568
S11307106D877E878F87988B9B01AC0169817A8175
S11307208B819C81FCD7298D3A8D4B8D5C8DE7D5CF
S11307304B015C01609398007093990080939A0038
S113074090939B002D853E854F85588969897A89C8
S11307508B899C89E4D72D893E894F89588DCFD5C3
S113076060939C0070939D0080939E0090939F00E3
S113077029813A814B815C816D817E818F8198854D
S1130780CED79B01AC016D817E818F819885B6D5D2
S1130790E8E8F0E0608371838283938329813A815E
S11307A04B815C81C301B201BAD79B01AC01C30187
S11307B0B201A4D560938C0070938D0080938E0059
S11307C090938F0029893A894B895C896D817E8158
S11307D08F819885A4D79B01AC016D8D7E8D8F8D03
S11307E098A18CD5609390007093910080939200AF
S11307F0909393002DEC3CEC4CE45DE369857A85A1
S11308008B859C858CD7A701960179D56B017C01DA
S113081029893A894B895C89C301B20180D79B013C
S1130820AC01C701B6016AD560939400709395003A
S11308308093960090939700C501B401A0960FB6DB
S1130840F894DEBF0FBECDBFDF91CF911F910F9102
S1130850FF90EF90DF90CF90BF90AF909F908F90DC
S11308607F906F905F904F9008956623B9F0FC01DC
S1130870615070E06F5F7F4F680F791F80E04CE834
S1130880219198E0322F38278695269530FD8427CC
S11308909150C1F7E617F70799F7089580E0089596
S11308A0CF93DF939091F20080916000981383C0FE
S11308B066E082EF90E0D9DF9091F80089137BC065
S11308C0E2EFF0E082818093A00083818F3689F487
S11308D08091A3008A3030F48091A3008F5F8093CD
S11308E0A30009C08091F600809360001092A300D9
S11308F002C01092A30087E0E2EFF0E0DF01982F3E
S11309001D929A95E9F7E9EFF0E0DF011D928A95CF
S1130910E9F78091600080838091A0008A3F21F0F4
S11309208091A0008A3A69F46091AA007091AB00AA
S11309308091AC009091AD0021E030E049EF50E0AF
S11309400EDE8091A0008D3B51F52091A8003091DE
S1130950A9008091A4009091A500821793072CF41C
S1130960E9EFF0E03183228304C0E9EFF0E0918302
S113097082838091A6009091A700E9EFF0E0938331
S113098084838BE090E09093A9008093A8009093D7
S1130990A7008093A6009093A5008093A400809163
S11309A06000C9EFD0E08D8366E0CE015EDF8E8308
S11309B081E08093A100DF91CF9108951F920F925F
S11309C00FB60F9211242F933F934F935F936F931E
S11309D07F938F939F93AF93BF93EF93FF938091F4
S11309E0A200882321F05CDF1092A2000EC0809147
S11309F0A100882351F01092A100929A509A86E0A7
S1130A008093F1008091F9008CB9FF91EF91BF912F
S1130A10AF919F918F917F916F915F914F913F9192
S1130A202F910F900FBE0F901F9018951F920F9249
S1130A300FB60F9211248F939F93EF93FF93519BC3
S1130A4007C0109200018CB18093F20080E00AC0CC
S1130A5080910001E82FF0E09CB1EE50FF4F9083AD
S1130A60863020F48F5F8093000103C081E080937F
S1130A70A200FF91EF919F918F910F900FBE0F9065
S1130A801F9018951F920F920FB60F9211248F93F7
S1130A90EF93FF938091F100882379F08150809344
S1130AA0F10050988091F100E6E0F0E0E81BF109D4
S1130AB0E750FF4F80818CB901C09298FF91EF916C
S1130AC08F910F900FBE0F901F90189585B58C6075
S1130AD085BD89B7806889BF86EE83BD089590BDC2
S1130AE089B98AB188618AB980B5866880BD08955C
S1130AF05D9BFECF8CB90895CF93DF93EC01888181
S1130B00882329F02196F4DF89918111FCCFDF91AC
S1130B10CF9108950F931F93CF93DF93CDB7DEB793
S1130B20C058D1090FB6F894DEBF0FBECDBF9E01E9
S1130B3029573F4FF901419151919F0160E870E0BD
S1130B408E010F5F1F4FC80150D6F801019000209D
S1130B50E9F731978DE09AE0918380831282C8018E
S1130B60CBDFC058DF4F0FB6F894DEBF0FBECDBF4A
S1130B70DF91CF911F910F910895929A81E690E0B1
S1130B80BBDF8091A5008F938091A4008F93809107
S1130B90A7008F938091A6008F938091A9008F93D3
S1130BA08091A8008F938EE790E09F938F93B2DF9C
S1130BB01092A9001092A8001092A7001092A6000B
S1130BC01092A5001092A4008DB79EB708960FB698
S1130BD0F8949EBF0FBE8DBF0895CF93DF9300D0CE
S1130BE000D0CDB7DEB778948FEF84BB83E084BBAD
S1130BF084E690E080D26ADF8FE290E070DF8A9A28
S1130C008B9A2FEF4FE784E0215040408040E1F77A
S1130C1000C000000F2EFEEA2F2EF0E03F2EF02D34
S1130C200F2EFAE0CF2ED12CF02D939A64E170E0D0
S1130C3086EC90E0FDD264E170E08CEC90E02BD384
S1130C4093986091CA007091CB0071956195710978
S1130C50072E000C880B990B86D44B015C01609124
S1130C60C8007091C900719561957109072E000C37
S1130C70880B990B78D469837A838B839C83A50131
S1130C809401B0D32BED3FE049E450E438D321EE96
S1130C903EE245E652E443D5F101648375838683DD
S1130CA09783E6ECF0E0608171817195619571093B
S1130CB0072E000C880B990B56D42B013C01A5017F
S1130CC0940190D32BED3FE049E450E418D321EE96
S1130CD03EE245E652E423D54B015C01F101648711
S1130CE0758786879787A301920169817A818B81B1
S1130CF09C8178D32BED3FE049E450E400D321EE0E
S1130D003EE245E652E40BD5F101648B758B868B8C
S1130D10978B6091CC007091CD00072E000C880B4E
S1130D20990B21D420E030E043E053E4B2D3F10145
S1130D3060837183828393836091CE007091CF002E
S1130D40072E000C880B990B0ED420E030E043E012
S1130D5053E49FD32B013C01F101608771878287A3
S1130D6093876091D0007091D100072E000C880BFE
S1130D70990BF9D320E030E043E053E48AD3F10146
S1130D80608B718B828B938BE12CF12C08ED11E439
S1130D90A3019201C501B40100DC6093AA00709321
S1130DA0AB008093AC009093AD008091A0008A3F8B
S1130DB0A9F46091AA007091AB008091AC0090916D
S1130DC0AD0020E030E044EB52E498D26093AA00F6
S1130DD07093AB008093AC009093AD006091AA0037
S1130DE07091AB008091AC009091AD0020E030E0B8
S1130DF044E353E44AD318168CF08091AA009091EE
S1130E00AB00A091AC00B091AD008093AA00909388
S1130E10AB00A093AC00B093AD0015C06091AA00E4
S1130E207091AB008091AC009091AD0020E030E077
S1130E3044EB53E463D26093AA007093AB008093B5
S1130E40AC009093AD008091A0002091C800309137
S1130E50C900C901332324F488279927821B930BE3
S1130E60813EFEE29F070CF447C04091C6005091BA
S1130E70C7006091A8007091A90077231CF47195B4
S1130E8061957109FA01552324F4EE27FF27E41B29
S1130E90F50B6E177F0724F45093A9004093A80024
S1130EA04091A6005091A70055231CF451954195FB
S1130EB051094817590724F43093A7002093A6003A
S1130EC08091CA009091CB002091A4003091A5009C
S1130ED033231CF4319521953109AC01992324F471
S1130EE044275527481B590B241735078CF4909336
S1130EF0A5008093A4000CC0D092A900C092A800C1
S1130F00D092A700C092A600D092A500C092A400DF
S1130F1034DE8BCEAF92BF92CF92DF92EF92FF92EC
S1130F200F931F938B011092E000C42ED12CE12C5F
S1130F30F12C482F50E060E070E0590128E080ED8A
S1130F4019DA8093E0001F910F91FF90EF90DF90EA
S1130F50CF90BF90AF90089580912A01813099F08D
S1130F6028F08230E9F0833041F134C080E090E031
S1130F70A0E8B6E48093DC009093DD00A093DE004B
S1130F80B093DF0033C080E090E0A0E0B6E480934B
S1130F90DC009093DD00A093DE00B093DF0026C058
S1130FA080E090E0A0E8B5E48093DC009093DD005D
S1130FB0A093DE00B093DF0019C080E090E0A0E0D1
S1130FC0B5E48093DC009093DD00A093DE00B09341
S1130FD0DF000CC080E090E0A0E8B6E48093DC0081
S1130FE09093DD00A093DE00B093DF00809129018F
S1130FF0813099F028F08230E9F0833041F134C037
S113100080E090E0A3E0B3E48093D8009093D9000B
S1131010A093DA00B093DB00089580E090E0A3E8A9
S1131020B2E48093D8009093D900A093DA00B093EF
S1131030DB00089583E393E3A3E0B2E48093D80054
S11310409093D900A093DA00B093DB00089583E372
S113105093E3A3E8B1E48093D8009093D900A093DC
S1131060DA00B093DB00089580E090E0A3E0B3E4FD
S11310708093D8009093D900A093DA00B093DB005A
S11310800895AC0165E070E080ED75D80895AF92E5
S1131090BF92CF92DF92EF92FF920F931F93CF9361
S11310A0DF931F92CDB7DEB7182F69835A011092D0
S11310B0E000CA01E6DF813081F4412F50E060E0B6
S11310C070E0C12CD12C7601C3948E010F5F1F4FA9
S11310D028E080ED7DD88093E0008091E0000F90BF
S11310E0DF91CF911F910F91FF90EF90DF90CF9000
S11310F0BF90AF900895AF92BF92CF92DF92EF92DC
S1131100FF920F931F93CF93DF938C012DD8C6E2E8
S1131110D1E018821A821E8219820F2EFBE2AF2EB2
S1131120F1E0BF2EF02DF50180818C7F8B7F8083D1
S11311301B821C8281E08F83A80160E088E3A7DF23
S11311408093E00068816150A80189E1A0DF90915B
S1131150E000890F8093E0006B81660F660F660FD5
S1131160A8018BE194DF9091E000890F8093E00067
S11311706C81660F660F660FA8018CE188DF909181
S1131180E000890F8093E0006981660F660F660FA7
S11311908A81682BA8018AE17ADF9091E000890FA7
S11311A08093E000F5018081682F67956627679535
S11311B081FBCC24C0F8D12C0024D694C794079486
S11311C0D694C7940794DC2CC02CC62A82FBEE2448
S11311D0E0F8F12CEE0CFF1CEE0CFF1CEE0CFF1CD7
S11311E0EE0CFF1CEE0CFF1C6C2D6E29A80187E38E
S11311F04EDF9091E000890F8093E000A8016F8199
S11312008BE645DF9091E000890F8093E000873002
S113121019F4A2DE81E001C080E0DF91CF911F913B
S11312200F91FF90EF90DF90CF90BF90AF90089513
S11312300F931F93CF93DF9300D000D000D0CDB78E
S1131240DEB78C019B0146E0BE016F5F7F4F8BE3ED
S113125061DE8130A1F4FE013196A8014A5F5F4F3F
S1131260208130E0322F22279181292BD8012D9320
S11312703D938D0132964A175B0791F701C080E0D8
S113128026960FB6F894DEBF0FBECDBFDF91CF9187
S11312901F910F9108950F931F93CF93DF9300D065
S11312A000D000D0CDB7DEB78C019B0146E0BE0173
S11312B06F5F7F4F83E42EDE8130A1F4FE0131960F
S11312C0A8014A5F5F4F208130E0322F22279181AD
S11312D0292BD8012D933D938D0132964A175B0734
S11312E091F701C080E026960FB6F894DEBF0FBEDA
S11312F0CDBFDF91CF911F910F9108955058BB2717
S1131300AA270ED0CBC1BCD130F0C1D120F031F42A
S11313109F3F11F41EF48CC10EF4E095E7FB82C1EB
S1131320E92FCDD180F3BA176207730784079507B5
S113133018F071F49EF5E5C10EF4E0950B2EBA2F6A
S1131340A02D0B01B90190010C01CA01A0011124C7
S1131350FF27591B99F0593F50F4503E68F11A1673
S1131360F040A22F232F342F4427585FF3CF469504
S113137037952795A795F0405395C9F77EF41F1626
S1131380BA0B620B730B840BBAF09150A1F0FF0FF0
S1131390BB1F661F771F881FC2F70EC0BA0F621FDC
S11313A0731F841F48F4879577956795B795F795CC
S11313B09E3F08F0B3CF9395880F08F09927EE0F5E
S11313C09795879508955CD158F080E891E009F4E9
S11313D09EEF5DD128F040E851E059F45EEF09C07A
S11313E027C18FC1E92FE0786AD168F3092E052A55
S11313F0C1F3261737074807590738F00E2E07F8A8
S1131400E02569F0E025E0640AC0EF6307F8009482
S113141007FADB01B9019D01DC01CA01AD01EF93BB
S113142047D03CD10AD05F91552331F02BED3FE0FA
S113143049E450FD49EC63CF0895DF93DD27B92FCC
S1131440BF7740E85FE31616170648075B0710F4FA
S1131450D92F5ED19F938F937F936F93C3D1E6E28D
S1131460F0E0E9D01BD12F913F914F915F9163D16F
S1131470DD2349F09058A2EA2AED3FE049EC5FE30E
S1131480D0785D274DDFDF9109C1A8D008F481E051
S113149008950CD003C1FBD040F0F2D030F021F419
S11314A05F3F19F0BFC051112DC1C2C008D198F3DC
S11314B09923C9F35523B1F3951B550BBB27AA27D1
S11314C062177307840738F09F5F5F4F220F331F43
S11314D0441FAA1FA9F333D00E2E3AF0E0E830D00F
S11314E091505040E695001CCAF729D0FE2F27D012
S11314F0660F771F881FBB1F261737074807AB07E0
S1131500B0E809F0BB0B802DBF01FF2793585F4F54
S11315102AF09E3F510568F085C0F4C05F3FECF3AC
S1131520983EDCF3869577956795B795F7959F5F19
S1131530C9F7880F911D9695879597F90895E1E06D
S1131540660F771F881FBB1F621773078407BA07CC
S113155020F0621B730B840BBA0BEE1F88F7E09527
S11315600895E89409C097FB3EF490958095709592
S113157061957F4F8F4F9F4F9923A9F0F92F96E9DB
S1131580BB279395F695879577956795B795F11150
S1131590F8CFFAF4BB0F11F460FF1BC06F5F7F4FED
S11315A08F4F9F4F16C0882311F096E911C07723FF
S11315B021F09EE8872F762F05C0662371F096E808
S11315C0862F70E060E02AF09A95660F771F881FD7
S11315D0DAF7880F9695879597F90895990F00087B
S11315E0550FAA0BE0E8FEEF16161706E807F907F1
S11315F0C0F012161306E407F50798F0621B730B8C
S1131600840B950B39F40A2661F0232B242B252B0C
S113161021F408950A2609F4A140A6958FEF811DAF
S1131620811D089597F99F6780E870E060E0089550
S11316309FEF80EC0895DF93CF931F930F93FF9256
S1131640EF92DF927B018C01689405C0DA2EEF01E2
S113165072D0FE01E894A59125913591459155915B
S1131660AEF3EF015DDEFE019701A801DA9479F78C
S1131670DF90EF90FF900F911F91CF91DF9108952C
S113168000240A941616170618060906089500245D
S11316900A9412161306140605060895092E0394D7
S11316A0000C11F4882352F0BB0F40F4BF2B11F44B
S11316B060FF04C06F5F7F4F8F4F9F4F089557FDAA
S11316C09058440F551F59F05F3F71F04795880FAC
S11316D097FB991F61F09F3F79F087950895121643
S11316E013061406551FF2CF4695F1DF08C01616EF
S11316F017061806991FF1CF8695710561050894A0
S11317000895E894BB2766277727CB0197F90895B6
S11317109B01AC0160E070E080E89FE3BACE0BD09F
S1131720BDCFAEDF28F0B3DF18F0952309F07ACFF0
S11317307FCF1124E7CFC3DFA0F3959FD1F3950F9B
S113174050E0551F629FF001729FBB27F00DB11D41
S1131750639FAA27F00DB11DAA1F649F6627B00DD1
S1131760A11D661F829F2227B00DA11D621F739FBA
S1131770B00DA11D621F839FA00D611D221F749FC8
S11317803327A00D611D231F849F600D211D822F0F
S1131790762F6A2F11249F5750408AF0E1F0882356
S11317A04AF0EE0FFF1FBB1F661F771F881F915063
S11317B05040A9F79E3F510570F034CFA3CF5F3F4F
S11317C0ECF3983EDCF3869577956795B795F79596
S11317D0E7959F5FC1F7FE2B880F911D969587951E
S11317E097F908959B01AC019ACFAEE0B0E0EAEF1F
S11317F0FBE0B4C28C01FA0186E08C831A8309836E
S113180077FF02C060E070E8CB0101979E838D836F
S1131810A901BF01CE01019611D04D815E8157FD12
S11318200AC02F813885421753070CF49A01F80136
S1131830E20FF31F10822E96E4E0ACC2ABE0B0E0FE
S1131840E3E2FCE07DC26C017B018A01FC011782AA
S11318501682838181FFBFC1CE0101963C01F6014E
S11318609381F70193FD859193FF81917F018823F3
S113187009F4ADC1853239F493FD859193FF8191CB
S11318807F01853221F4B60190E0C0D1E8CF912CDC
S1131890212C312CFFE1F315D8F08B3279F038F498
S11318A0803279F08332A1F4232D20611DC08D3262
S11318B061F0803369F4232D216016C0832D82608A
S11318C0382EE32DE4603E2E2AC0F32DF8601DC0AF
S11318D037FC2DC020ED280F2A3040F08E32B9F4A9
S11318E036FC75C1232D2064322E19C036FE06C085
S11318F08AE0989E200D1124922E11C0EAE02E9EBB
S1131900200D1124222EF32DF0623F2E08C08C36B8
S113191021F4832D8068382E02C0883641F4F70103
S113192093FD859193FF81917F018111B3CF982F0E
S11319309F7D9554933028F40C5F1F4F9FE3998348
S11319400DC0833631F0833771F0833509F055C00B
S113195020C0F801808189830E5F1F4F88248394FF
S1131960912C530112C02801F2E04F0E511CF801D2
S1131970A080B18036FE03C0692D70E002C06FEF15
S11319807FEFC50138D14C018201F32DFF773F2E43
S113199015C0280122E0420E511CF801A080B1803C
S11319A036FE03C0692D70E002C06FEF7FEFC50102
S11319B017D14C01F32DF0683F2E820133FC19C07E
S11319C0822D90E088169906A0F4B60180E290E09A
S11319D01DD12A94F5CFF50137FC859137FE81910D
S11319E05F01B60190E012D121102A9421E0821AFD
S11319F091088114910479F7E1C0843611F0893695
S1131A0039F5F80137FE07C06081718182819381C5
S1131A100C5F1F4F08C060817181072E000C880B7A
S1131A20990B0E5F1F4FF32DFF763F2E97FF09C0D2
S1131A3090958095709561957F4F8F4F9F4FF0687B
S1131A403F2E2AE030E0A3011DD1882E861844C021
S1131A50853731F4232D2F7EB22E2AE030E025C0C5
S1131A60932D997FB92E8F36C1F018F4883579F00B
S1131A70AEC0803719F0883721F0A9C0E92FE061A2
S1131A80BE2EB4FE0DC0FB2DF460BF2E09C034FE83
S1131A900AC0292F2660B22E06C028E030E005C017
S1131AA020E130E002C020E132E0F801B7FE07C0D7
S1131AB060817181828193810C5F1F4F06C06081B8
S1131AC0718180E090E00E5F1F4FA301DBD0882E70
S1131AD08618FB2DFF773F2E36FE0DC0232D2E7F5B
S1131AE0A22E891458F434FE0BC032FC09C0832D95
S1131AF08E7EA82E05C0B82CA32C03C0B82C01C020
S1131B00B92CA4FE0FC0FE01E80DF11D80818033C5
S1131B1021F49A2D997EA92E09C0A2FE06C0B39481
S1131B20B39404C08A2D867809F0B394A3FC10C042
S1131B30A0FE06C0B21480F4280C922C9B180DC091
S1131B40B21458F4B60180E290E060D0B394F8CFB8
S1131B50B21418F42B1802C0982C212CA4FE0FC028
S1131B60B60180E390E052D0A2FE16C0A1FC03C0EF
S1131B7088E790E002C088E590E0B6010CC08A2DA9
S1131B80867851F0A1FE02C08BE201C080E2A7FC7E
S1131B908DE2B60190E03AD0891430F4B60180E3C6
S1131BA090E034D09A94F8CF8A94F301E80DF11DB3
S1131BB08081B60190E02AD08110F6CF222009F46A
S1131BC04ECEB60180E290E021D02A94F7CFF60100
S1131BD08681978102C08FEF9FEF2B96E2E1CCC004
S1131BE0FC010590615070400110D8F780959095E4
S1131BF08E0F9F1F0895FC016150704001900110E9
S1131C00D8F7809590958E0F9F1F08950F931F937B
S1131C10CF93DF93FB01238121FD03C08FEF9FEF5F
S1131C202CC022FF16C0468157812481358142177A
S1131C30530744F4A081B1819D012F5F3F4F31834D
S1131C4020838C93268137812F5F3F4F37832683F0
S1131C5014C08B01EC01FB010084F185E02D099592
S1131C60892BE1F6D80116968D919C9117970196D0
S1131C7017969C938E931697CE01DF91CF911F9167
S1131C800F910895FA01AA27283051F1203181F1EA
S1131C90E8946F936E7F6E5F7F4F8F4F9F4FAF4F70
S1131CA0B1E03ED0B4E03CD0670F781F891F9A1F83
S1131CB0A11D680F791F8A1F911DA11D6A0F711D37
S1131CC0811D911DA11D20D009F468943F912AE043
S1131CD0269F11243019305D3193DEF6CF0108952B
S1131CE0462F4770405D4193B3E00FD0C9F7F6CF5C
S1131CF0462F4F70405D4A3318F0495D31FD405224
S1131D00419302D0A9F7EACFB4E0A69597958795B9
S1131D1077956795BA95C9F7009761057105089598
S1131D209B01AC010A2E0694579547953795279544
S1131D30BA95C9F7620F731F841F951FA01D0895DC
S1131D402F923F924F925F926F927F928F929F92C7
S1131D50AF92BF92CF92DF92EF92FF920F931F93B5
S1131D60CF93DF93CDB7DEB7CA1BDB0B0FB6F89466
S1131D70DEBF0FBECDBF09942A88398848885F84A6
S1131D806E847D848C849B84AA84B984C884DF8017
S1131D90EE80FD800C811B81AA81B981CE0FD11DFB
S1131DA00FB6F894DEBF0FBECDBFED010895F894D1
S1051DB0FFCF5F
S1131DB2014D41585F415F583A2C4D41585F415F94
S1131DC2593A2C4D41585F415F5A3A0D0A00256435
S10B1DD22C25642C256400009B
S9030000FC
