S017000044492D3630315F4D50552D363035302E7372656373
S113000029C043C042C0CDC440C03FC03EC03DC073
S11300103CC03BC03AC000C538C02AC536C035C054
S113002034C033C032C0084AD73B3BCE016E84BCD7
S1130030BFFDC12F3D6C74319ABD56833DDA3D003E
S1130040C77F11BED9E4BB4C3E916BAAAABE000087
S113005000803F0011241FBECFE5D4E0DEBFCDBF3A
S113006010E0A0E6B0E0ECE9F6E102C005900D92E4
S1130070A236B107D9F721E0A2E6B0E001C01D9293
S1130080A630B207E1F72AD507CBBACF24EA26BFB8
S113009006B607FC0EC0009761F0E9EFF0E0319777
S11300A0F1F700C00000019706B607FC02C00097F4
S11300B0A1F781B1887F089583B984E886BF06B625
S11300C007FC11C06115710571F089EF90E001978B
S11300D0F1F700C000006150710906B607FC03C0C7
S11300E06115710591F781B1887F089524EC26BFCD
S11300F006B607FC0EC0009761F0E9EFF0E0319717
S1130100F1F700C00000019706B607FC02C0009793
S1130110A1F783B1089524E826BF06B607FC0EC0F4
S1130120009761F0E9EFF0E03197F1F700C00000CB
S1130130019706B607FC02C00097A1F783B10895A2
S113014024E926BF06B604FE0EC0009761F0E9EF6D
S1130150F0E03197F1F700C00000019706B604FE05
S113016002C00097A1F7089581E081B989EF80B9B1
S113017084E086BF0895DF92EF92FF920F931F935E
S1130180CF93DF93D82EEB018A01209799F0E12CCD
S1130190F12CC8017BDF883019F4B8018D2D8CDF78
S11301A0883129F4C801CCDF8FEFE81AF80A2197C7
S11301B081F702C0E12CF12C81E0EF2809F480E002
S11301C0DF91CF911F910F91FF90EF90DF900895F1
S11301D02F923F924F925F926F927F928F929F9253
S11301E0AF92BF92CF92DF92EF92FF920F931F9341
S11301F0CF93DF93C82F2A013B01D22F1501A5010C
S113020061E070E0B8DF813009F096C0C5013EDFDF
S1130210D83041F5883099F4D301C201689416F8B6
S1130220B695A795979587951694D1F78E70B501D5
S11302308C2B42DF812C912C5401839403C0812C9C
S1130240912C5401883141F4B101842D35DF9FEFA5
S1130250891A990AA90AB90AC114D104E104F1045A
S113026081F543C08830A1F4D301C201072E7FE099
S1130270B695A795979587957A95D1F7702D827045
S1130280B5018C2B19DF812C912C5401839403C06C
S1130290812C912C5401883141F4B101852D0CDF5E
S11302A0EFEF8E1A9E0AAE0ABE0A883209F048C0E1
S11302B0B101842D01DFFFEF8F1A9F0AAF0ABF0A35
S11302C0CBCF26013701883251F4B101F801819175
S11302D08F01F2DEFFEF8F1A9F0AAF0ABF0A91E087
S11302E0491A51086108710871F7883239F4C1015B
S11302F027DFEFEF8E1A9E0AAE0ABE0AD83069F4E1
S1130300F3E0CF0ED11CE11CF11C81E0C814D90428
S1130310EA04FB04E1F080E01AC0D03179F484E00F
S1130320C80ED11CE11CF11C81E0C814D904EA04F4
S1130330FB0469F080E00BC080E009C080E007C0E6
S1130340C114D104E104F10409F0BBCFE6CFDF917D
S1130350CF911F910F91FF90EF90DF90CF90BF90BE
S1130360AF909F908F907F906F905F904F903F9051
S11303702F9008952F923F924F925F926F927F92A7
S11303808F929F92AF92BF92CF92DF92EF92FF92A1
S11303900F931F93CF93DF93C82F2A013B01D22FD2
S11303A01501A50161E070E0E6DE813009F0C1C00D
S11303B0C5016CDED83019F5883099F4D301C20137
S11303C0689416F8B695A795979587951694D1F7DE
S11303D08E70B5018C2B70DE812C912C540183948A
S11303E003C0812C912C54018831B1F5B101842DC5
S11303F063DE9FEF891A990AA90AB90A2DC08830C9
S1130400A1F4D301C201072E7FE0B695A795979575
S113041087957A95D1F7702D8270B5018C2B4CDEBF
S1130420812C912C5401839403C0812C912C540170
S1130430883141F4B101852D3FDEEFEF8E1A9E0A1B
S1130440AE0ABE0A883289F4B101842D35DEFFEF8D
S11304508F1A9F0AAF0ABF0A883239F4C10116DE27
S11304609FEF891A990AA90AB90A803149F4B1019E
S11304708C2F816021DEEFEF8E1A9E0AAE0ABE0A2F
S1130480F2E0CF16D104E104F104E8F026013701CB
S1130490982F9F7E903461F4C10128DEF801819386
S11304A08F0181B1887FFFEF8F1A9F0AAF0ABF0ABD
S11304B091E0491A510861087108E1E04E165104AF
S11304C06104710429F7982F9F7E903459F4C10177
S11304D022DEF801808381B1887FFFEF8F1A9F0AA3
S11304E0AF0ABF0A883539F4C1012ADE8FEF881AB2
S11304F0980AA80AB80AD83069F495E0C90ED11C44
S1130500E11CF11C81E0C814D904EA04FB04A1F045
S113051080E012C0D03179F4E6E0CE0ED11CE11CAB
S1130520F11C81E0C814D904EA04FB0429F080E03A
S113053003C080E001C080E0DF91CF911F910F9153
S1130540FF90EF90DF90CF90BF90AF909F908F90EF
S11305507F906F905F904F903F902F900895CF932E
S1130560DF9300D000D0CDB7DEB769837A838B8365
S11305709C83FE013196DA01A20FB31F9E012B5F0B
S11305803F4F81918D93E217F307D9F70F900F90A6
S11305900F900F90DF91CF9108954F925F926F92D9
S11305A07F928F929F92AF92BF92CF92DF92EF92FF
S11305B0FF920F931F93CF93DF93CDB7DEB7A0972E
S11305C00FB6F894DEBF0FBECDBF6D877E878F87D1
S11305D0988BCA01B901E986FA860B871C8720919A
S11305E076003091770040917800509179002D8BFE
S11305F03E8B4F8B588FD9D5A8019701E7D720910F
S11306007200309173004091740050917500CED502
S1130610698F7A8F8B8F9C8FC0906E00D0906F0003
S1130620E0907000F0907100A701960169857A85C9
S11306308B859C85CBD769837A838B839C834090FD
S11306406600509067006090680070906900809028
S11306506A0090906B00A0906C00B0906D00A301B4
S11306609201A3D5A5019401A0D52AE037ED43E278
S11306705CE39CD529853A854B855C85A7D7E2E662
S1130680F0E0208131814281538190D56D837E8356
S11306908F83988729813A814B815C81C301B201A0
S11306A084D52B013C0129813A814B815C81C501B0
S11306B0B4017BD56D8F7E8F8F8F98A32DEC3CEC8E
S11306C04CEC5DE36D817E818F8198856FD54B0104
S11306D05C019B01AC016D817E818F81988530D650
S11306E069837A838B839C83A50194016D8D7E8DB0
S11306F08F8D98A125D6698B7A8B8B8B9C8B298DBA
S11307003A8D4B8D5C8D6D857E858F8598894DD511
S11307106D877E878F87988B9B01AC0169817A8175
S11307208B819C8153D7298D3A8D4B8D5C8D3ED521
S11307304B015C01609372007093730080937400AA
S1130740909375002D853E854F85588969897A89EE
S11307508B899C893BD72D893E894F89588D26D515
S1130760609376007093770080937800909379007B
S113077029813A814B815C816D817E818F8198854D
S113078025D79B01AC016D817E818F8198850DD524
S1130790E2E6F0E0608371838283938329813A8166
S11307A04B815C81C301B20111D79B01AC01C30130
S11307B0B201FBD460936600709367008093680075
S11307C09093690029893A894B895C896D817E817E
S11307D08F819885FBD69B01AC016D8D7E8D8F8DAD
S11307E098A1E3D460936A0070936B0080936C00CB
S11307F090936D002DEC3CEC4CE45DE369857A85C7
S11308008B859C85E3D6A7019601D0D46B017C012E
S113081029893A894B895C89C301B201D7D69B01E6
S1130820AC01C701B601C1D460936E0070936F0030
S11308308093700090937100C501B401A0960FB627
S1130840F894DEBF0FBECDBFDF91CF911F910F9102
S1130850FF90EF90DF90CF90BF90AF909F908F90DC
S11308607F906F905F904F9008956623B9F0FC01DC
S1130870615070E06F5F7F4F680F791F80E04CE834
S1130880219198E0322F38278695269530FD8427CC
S11308909150C1F7E617F70799F7089580E0089596
S11308A0CF93DF939091CA0080916000981376C033
S11308B066E08AEC90E0D9DF9091D00089136EC095
S11308C0EAECF0E0828180937A0083818F3689F4A8
S11308D080917D008A3030F480917D008F5F809319
S11308E07D0009C08091CE008093600010927D004D
S11308F002C010927D0087E0EAECF0E0DF01982F5F
S11309001D929A95E9F7E1EDF0E0DF011D928A95D9
S1130910E9F780916000808380917A008A3F21F01A
S113092080917A008A3A69F4609182007091830020
S1130930809184009091850021E030E041ED50E009
S11309400EDE80917A008D3B01F582B383FB9927FB
S113095090F981E0892780FD939A80FF9398809194
S1130960800090918100E1EDF0E091838283809199
S11309707E0090917F009383848310928100109273
S1130980800010927F0010927E0080916000C1ED83
S1130990D0E08D8366E0CE0168DF8E83DF91CF9156
S11309A008951F920F920FB60F9211242F933F9325
S11309B04F935F936F937F938F939F93AF93BF9363
S11309C0EF93FF9380917C00882339F069DF1092C4
S11309D07C0081E080937B000EC080917B008823A3
S11309E051F010927B00929A509A86E08093C9004D
S11309F08091D1008CB9FF91EF91BF91AF919F91FC
S1130A008F917F916F915F914F913F912F910F90B3
S1130A100FBE0F901F9018951F920F920FB60F9252
S1130A2011248F939F93EF93FF93519B07C01092D0
S1130A30D8008CB18093CA0080E00AC08091D800AD
S1130A40E82FF0E09CB1E653FF4F9083863020F40A
S1130A508F5F8093D80003C081E080937C00FF9176
S1130A60EF919F918F910F900FBE0F901F9018954B
S1130A701F920F920FB60F9211248F93EF93FF934F
S1130A808091C900882379F081508093C9005098DF
S1130A908091C900E6E0F0E0E81BF109EF52FF4F56
S1130AA080818CB901C09298FF91EF918F910F9042
S1130AB00FBE0F901F90189585B58C6085BD89B7C2
S1130AC0806889BF86EE83BD089590BD89B98AB1D7
S1130AD08C6D8AB980B5866880BD089578948FEF4F
S1130AE084BB83E084BB84E690E05CD2E5DF8FE2E4
S1130AF090E0EBDF8A9A8B9A2FEF8FE794E02150F6
S1130B0080409040E1F700C000000F2EF6E82F2E41
S1130B10F0E03F2EF02D64E170E08EE990E0DFD24A
S1130B2064E170E084EA90E00DD3CEE9D0E06C811A
S1130B307D81719561957109072E000C880B990BC5
S1130B4069D44B015C016A817B817195619571095E
S1130B50072E000C880B990B5DD46B017C01A50159
S1130B60940197D32BED3FE049E450E41FD321EEE9
S1130B703EE245E652E42AD5F10164837583868317
S1130B80978368817981719561957109072E000CAD
S1130B90880B990B3FD42B013C01A501940179D317
S1130BA02BED3FE049E450E401D321EE3EE245E67B
S1130BB052E40CD54B015C01F1016487758786878B
S1130BC09787A3019201C701B60163D32BED3FE0E0
S1130BD049E450E4EBD221EE3EE245E652E4F6D499
S1130BE0F101648B758B868B978B6E817F81072EC9
S1130BF0000C880B990B0ED420E030E043E053E462
S1130C009FD3F1016083718382839383688579859F
S1130C10072E000C880B990BFDD320E030E043E055
S1130C2053E48ED32B013C01F101608771878287E5
S1130C3093876A857B85072E000C880B990BEAD372
S1130C4020E030E043E053E47BD3F101608B718B0F
S1130C50828B938BE12CF12C0CE412E4A30192011E
S1130C60C501B4019ADC6093820070938300809381
S1130C7084009093850080917A008A3FA9F4609162
S1130C80820070918300809184009091850020E01F
S1130C9030E044EB52E489D2609382007093830085
S1130CA0809384009093850060918200709183000A
S1130CB0809184009091850020E030E044E353E487
S1130CC03BD318168CF08091820090918300A09100
S1130CD08400B09185008093820090938300A09358
S1130CE08400B093850015C06091820070918300E8
S1130CF0809184009091850020E030E044EB53E43F
S1130D0054D2609382007093830080938400909304
S1130D10850080917A008D3B09F0FDCE8091A00082
S1130D209091A10099231CF4919581959109813E9C
S1130D309E42C4F180919E0090919F00209180007A
S1130D403091810033231CF4319521953109AC0194
S1130D50992324F444275527481B590B2417350796
S1130D6024F490938100809380008091A20090915C
S1130D70A30020917E0030917F0033231CF4319531
S1130D8021953109AC01992324F444275527481BA4
S1130D90590B241735070CF0BECE90937F00809337
S1130DA07E00B9CE8FE893E0909381008093800019
S1130DB090937F0080937E00AECEAF92BF92CF928D
S1130DC0DF92EF92FF920F931F938B011092B80062
S1130DD0939AC42ED12CE12CF12C482F50E060E0E2
S1130DE070E0590128E080EDC5DA8093B80093984B
S1130DF08091B8001F910F91FF90EF90DF90CF90FA
S1130E00BF90AF90089580910201813099F028F04D
S1130E108230E9F0833041F134C080E090E0A0E812
S1130E20B6E48093B4009093B500A093B600B09359
S1130E30B70033C080E090E0A0E0B6E48093B40053
S1130E409093B500A093B600B093B70026C080E09D
S1130E5090E0A0E8B5E48093B4009093B500A0932B
S1130E60B600B093B70019C080E090E0A0E0B5E40C
S1130E708093B4009093B500A093B600B093B700EC
S1130E800CC080E090E0A0E8B6E48093B4009093B6
S1130E90B500A093B600B093B700809101018130F2
S1130EA099F028F08230E9F0833041F134C080E0D9
S1130EB090E0A3E0B3E48093B0009093B100A093DA
S1130EC0B200B093B300089580E090E0A3E8B2E4E8
S1130ED08093B0009093B100A093B200B093B3009C
S1130EE0089583E393E3A3E0B2E48093B000909386
S1130EF0B100A093B200B093B300089583E393E3E9
S1130F00A3E8B1E48093B0009093B100A093B20041
S1130F10B093B300089580E090E0A3E0B3E480933D
S1130F20B0009093B100A093B200B093B3000895C1
S1130F30AC0165E070E080ED1ED90895AF92BF92D8
S1130F40CF92DF92EF92FF920F931F93CF93DF9391
S1130F501F92CDB7DEB7182F69835A011092B800DB
S1130F60CA01E6DF813081F4412F50E060E070E097
S1130F70C12CD12C7601C3948E010F5F1F4F28E042
S1130F8080ED26D98093B8008091B8000F90DF914E
S1130F90CF911F910F91FF90EF90DF90CF90BF9072
S1130FA0AF900895AF92BF92CF92DF92EF92FF92EB
S1130FB00F931F93CF93DF938C01D6D8CEEFD0E05D
S1130FC018821A821E8219820F2EF3E0AF2EF1E0EE
S1130FD0BF2EF02DF50180818C7F8B7F80831B8257
S1130FE01C8281E08F83A80160E088E3A7DF8093FF
S1130FF0B80068816150A80189E1A0DF9091B80030
S1131000890F8093B8006B81660F660F660FA80185
S11310108BE194DF9091B800890F8093B8006C81C4
S1131020660F660F660FA8018CE188DF9091B80007
S1131030890F8093B8006981660F660F660F8A81F5
S1131040682BA8018AE17ADF9091B800890F809318
S1131050B800F5018081682F67956627679581FB45
S1131060CC24C0F8D12C0024D694C7940794D694E9
S1131070C7940794DC2CC02CC62A82FBEE24E0F82B
S1131080F12CEE0CFF1CEE0CFF1CEE0CFF1CEE0C06
S1131090FF1CEE0CFF1C6C2D6E29A80187E34EDFAC
S11310A09091B800890F8093B800A8016F818BE6F6
S11310B045DF9091B800890F8093B800873019F408
S11310C0A2DE81E001C080E0DF91CF911F910F91FA
S11310D0FF90EF90DF90CF90BF90AF9008950F9363
S11310E01F93CF93DF9300D000D000D0CDB7DEB7ED
S11310F08C019B0146E0BE016F5F7F4F8BE35DDE99
S11311008130A1F4FE013196A8014A5F5F4F20812E
S113111030E0322F22279181292BD8012D933D9342
S11311208D0132964A175B0791F701C080E026963D
S11311300FB6F894DEBF0FBECDBFDF91CF911F91E4
S11311400F9108950F931F93CF93DF9300D000D096
S113115000D0CDB7DEB78C019B0146E0BE016F5FC6
S11311607F4F83E42ADE8130A1F4FE013196A80189
S11311704A5F5F4F208130E0322F22279181292B53
S1131180D8012D933D938D0132964A175B0791F751
S113119001C080E026960FB6F894DEBF0FBECDBF27
S11311A0DF91CF911F910F9108955058BB27AA2723
S11311B00ED0CBC1BCD130F0C1D120F031F49F3F6F
S11311C011F41EF48CC10EF4E095E7FB82C1E92F03
S11311D0CDD180F3BA17620773078407950718F017
S11311E071F49EF5E5C10EF4E0950B2EBA2FA02DF7
S11311F00B01B90190010C01CA01A0011124FF27C0
S1131200591B99F0593F50F4503E68F11A16F040BA
S1131210A22F232F342F4427585FF3CF46953795B9
S11312202795A795F0405395C9F77EF41F16BA0B7E
S1131230620B730B840BBAF09150A1F0FF0FBB1F2C
S1131240661F771F881FC2F70EC0BA0F621F731F75
S1131250841F48F4879577956795B795F7959E3FD2
S113126008F0B3CF9395880F08F09927EE0F979560
S1131270879508955CD158F080E891E009F49EEFD9
S11312805DD128F040E851E059F45EEF09C027C170
S11312908FC1E92FE0786AD168F3092E052AC1F3DA
S11312A0261737074807590738F00E2E07F8E025A8
S11312B069F0E025E0640AC0EF6307F8009407FAD8
S11312C0DB01B9019D01DC01CA01AD01EF9347D0F7
S11312D03CD10AD05F91552331F02BED3FE049E436
S11312E050FD49EC63CF0895DF93DD27B92FBF7715
S11312F040E85FE31616170648075B0710F4D92F7A
S11313005ED19F938F937F936F93C3D1E6E2F0E016
S1131310E9D01BD12F913F914F915F9163D1DD2390
S113132049F09058A2EA2AED3FE049EC5FE3D07817
S11313305D274DDFDF9109C1A8D008F481E008954D
S11313400CD003C1FBD040F0F2D030F021F45F3F69
S113135019F0BFC051112DC1C2C008D198F399230F
S1131360C9F35523B1F3951B550BBB27AA27621765
S11313707307840738F09F5F5F4F220F331F441FAA
S1131380AA1FA9F333D00E2E3AF0E0E830D09150E2
S11313905040E695001CCAF729D0FE2F27D0660FCF
S11313A0771F881FBB1F261737074807AB07B0E80E
S11313B009F0BB0B802DBF01FF2793585F4F2AF024
S11313C09E3F510568F085C0F4C05F3FECF3983E42
S11313D0DCF3869577956795B795F7959F5FC9F781
S11313E0880F911D9695879597F90895E1E0660F0A
S11313F0771F881FBB1F621773078407BA0720F083
S1131400621B730B840BBA0BEE1F88F7E0950895EB
S1131410E89409C097FB3EF490958095709561958A
S11314207F4F8F4F9F4F9923A9F0F92F96E9BB2740
S11314309395F695879577956795B795F111F8CFBC
S1131440FAF4BB0F11F460FF1BC06F5F7F4F8F4F27
S11314509F4F16C0882311F096E911C0772321F01D
S11314609EE8872F762F05C0662371F096E8862FB5
S113147070E060E02AF09A95660F771F881FDAF70C
S1131480880F9695879597F90895990F0008550F39
S1131490AA0BE0E8FEEF16161706E807F907C0F0F6
S11314A012161306E407F50798F0621B730B840BFE
S11314B0950B39F40A2661F0232B242B252B21F4D8
S11314C008950A2609F4A140A6958FEF811D811D78
S11314D0089597F99F6780E870E060E008959FEFB2
S11314E080EC0895DF93CF931F930F93FF92EF92B5
S11314F0DF927B018C01689405C0DA2EEF0172D073
S1131500FE01E894A5912591359145915591AEF34D
S1131510EF015DDEFE019701A801DA9479F7DF900F
S1131520EF90FF900F911F91CF91DF9108950024C8
S11315300A941616170618060906089500240A9434
S113154012161306140605060895092E0394000CBA
S113155011F4882352F0BB0F40F4BF2B11F460FF49
S113156004C06F5F7F4F8F4F9F4F089557FD905872
S1131570440F551F59F05F3F71F04795880F97FB53
S1131580991F61F09F3F79F087950895121613060D
S11315901406551FF2CF4695F1DF08C0161617063C
S11315A01806991FF1CF8695710561050894089571
S11315B0E894BB2766277727CB0197F908959B0109
S11315C0AC0160E070E080E89FE3BACE0BD0BDCF01
S11315D0AEDF28F0B3DF18F0952309F07ACF7FCF80
S11315E01124E7CFC3DFA0F3959FD1F3950F50E00B
S11315F0551F629FF001729FBB27F00DB11D639FC1
S1131600AA27F00DB11DAA1F649F6627B00DA11D66
S1131610661F829F2227B00DA11D621F739FB00D0C
S1131620A11D621F839FA00D611D221F749F33277C
S1131630A00D611D231F849F600D211D822F762F15
S11316406A2F11249F5750408AF0E1F088234AF012
S1131650EE0FFF1FBB1F661F771F881F915050405E
S1131660A9F79E3F510570F034CFA3CF5F3FECF351
S1131670983EDCF3869577956795B795F795E7954A
S11316809F5FC1F7FE2B880F911D9695879597F95B
S10F169008959B01AC019ACFF894FFCFA1
S105169C010047
S9030000FC
