:1000000029C043C042C041C040C03FC03EC03DC007
:100010003CC03BC03AC04AC438C0E8C436C035C052
:1000200034C033C032C0084AD73B3BCE016E84BCDB
:10003000BFFDC12F3D6C74319ABD56833DDA3D0042
:10004000C77F11BED9E4BB4C3E916BAAAABE00008B
:1000500000803F0011241FBECFE5D4E0DEBFCDBF3E
:1000600010E0A0E6B0E0E2E0FDE102C005900D92F4
:10007000A837B107D9F721E0A8E7B0E001C01D9289
:10008000A731B207E1F744D53ACEBACF24EA26BF6A
:1000900006B607FC0EC0009761F0E9EFF0E031977B
:1000A000F1F700C00000019706B607FC02C00097F8
:1000B000A1F781B1887F089583B984E886BF06B629
:1000C00007FC11C06115710571F089EF90E001978F
:1000D000F1F700C000006150710906B607FC03C0CB
:1000E0006115710591F781B1887F089524EC26BFD1
:1000F00006B607FC0EC0009761F0E9EFF0E031971B
:10010000F1F700C00000019706B607FC02C0009797
:10011000A1F783B1089524E826BF06B607FC0EC0F8
:10012000009761F0E9EFF0E03197F1F700C00000CF
:10013000019706B607FC02C00097A1F783B10895A6
:1001400024E926BF06B604FE0EC0009761F0E9EF71
:10015000F0E03197F1F700C00000019706B604FE09
:1001600002C00097A1F7089581E081B989EF80B9B5
:1001700084E086BF089511B810B816BE0895DF92C6
:10018000EF92FF920F931F93CF93DF93D82EEB0143
:100190008A01F1DFE9DF209799F0E12CF12CC80109
:1001A00075DF883019F4B8018D2D86DF883129F488
:1001B000C801C6DF8FEFE81AF80A219781F702C05D
:1001C000E12CF12C81E0EF2809F480E0DF91CF9160
:1001D0001F910F91FF90EF90DF9008952F923F9223
:1001E0004F925F926F927F928F929F92AF92BF9247
:1001F000CF92DF92EF92FF920F931F93CF93DF93F3
:10020000C82F2A013B01D22F1501A50161E070E042
:10021000B6DF813009F096C0C50138DFD83041F52E
:10022000883099F4D301C201689416F8B695A79561
:10023000979587951694D1F78E70B5018C2B3CDF7E
:10024000812C912C5401839403C0812C912C540156
:10025000883141F4B101842D2FDF9FEF891A990A6B
:10026000A90AB90AC114D104E104F10481F543C01B
:100270008830A1F4D301C201072E7FE0B695A7957F
:10028000979587957A95D1F7702D8270B5018C2B53
:1002900013DF812C912C5401839403C0812C912C69
:1002A0005401883141F4B101852D06DFEFEF8E1A3C
:1002B0009E0AAE0ABE0A883209F048C0B101842DF8
:1002C000FBDEFFEF8F1A9F0AAF0ABF0ACBCF2601D2
:1002D0003701883251F4B101F80181918F01ECDED0
:1002E000FFEF8F1A9F0AAF0ABF0A91E0491A51081F
:1002F0006108710871F7883239F4C10121DFEFEF2D
:100300008E1A9E0AAE0ABE0AD83069F4F3E0CF0E08
:10031000D11CE11CF11C81E0C814D904EA04FB04DF
:10032000E1F080E01AC0D03179F484E0C80ED11C2D
:10033000E11CF11C81E0C814D904EA04FB0469F053
:1003400080E00BC080E009C080E007C0C114D10488
:10035000E104F10409F0BBCFE6CFDF91CF911F910B
:100360000F91FF90EF90DF90CF90BF90AF909F9054
:100370008F907F906F905F904F903F902F90089557
:100380002F923F924F925F926F927F928F929F92A5
:10039000AF92BF92CF92DF92EF92FF920F931F9393
:1003A000CF93DF93C82F2A013B01D22F1501A5015E
:1003B00061E070E0E4DE813009F0C1C0C50166DEB5
:1003C000D83019F5883099F4D301C201689416F831
:1003D000B695A795979587951694D1F78E70B50128
:1003E0008C2B6ADE812C912C5401839403C0812CC8
:1003F000912C54018831B1F5B101842D5DDE9FEF60
:10040000891A990AA90AB90A2DC08830A1F4D30122
:10041000C201072E7FE0B695A795979587957A95A7
:10042000D1F7702D8270B5018C2B46DE812C912C7A
:100430005401839403C0812C912C5401883141F4E0
:10044000B101852D39DEEFEF8E1A9E0AAE0ABE0A83
:10045000883289F4B101842D2FDEFFEF8F1A9F0AB5
:10046000AF0ABF0A883239F4C10110DE9FEF891A42
:10047000990AA90AB90A803149F4B1018C2F816027
:100480001BDEEFEF8E1A9E0AAE0ABE0AF2E0CF160E
:10049000D104E104F104E8F026013701982F9F7E92
:1004A000903461F4C10122DEF80181938F0181B1A2
:1004B000887FFFEF8F1A9F0AAF0ABF0A91E0491A9F
:1004C000510861087108E1E04E165104610471049D
:1004D00029F7982F9F7E903459F4C1011CDEF80152
:1004E000808381B1887FFFEF8F1A9F0AAF0ABF0A0E
:1004F000883539F4C10124DE8FEF881A980AA80ADA
:10050000B80AD83069F495E0C90ED11CE11CF11C81
:1005100081E0C814D904EA04FB04A1F080E012C011
:10052000D03179F4E6E0CE0ED11CE11CF11C81E063
:10053000C814D904EA04FB0429F080E003C080E079
:1005400001C080E0DF91CF911F910F91FF90EF905C
:10055000DF90CF90BF90AF909F908F907F906F90E3
:100560005F904F903F902F900895CF93DF9300D0EE
:1005700000D0CDB7DEB769837A838B839C83FE017D
:100580003196DA01A20FB31F9E012B5F3F4F81917D
:100590008D93E217F307D9F70F900F900F900F90FC
:1005A000DF91CF9108954F925F926F927F928F92D9
:1005B0009F92AF92BF92CF92DF92EF92FF920F93F2
:1005C0001F93CF93DF93CDB7DEB7A0970FB6F89404
:1005D000DEBF0FBECDBF6D877E878F87988BCA0128
:1005E000B901E986FA860B871C8720918C0030912F
:1005F0008D0040918E0050918F002D8B3E8B4F8B44
:10060000588F24D6A801970132D8209188003091C4
:10061000890040918A0050918B0019D6698F7A8F9A
:100620008B8F9C8FC0908400D0908500E0908600D6
:10063000F0908700A701960169857A858B859C8556
:1006400016D869837A838B839C8340907C0050907A
:100650007D0060907E0070907F0080908000909080
:100660008100A0908200B0908300A3019201EED59A
:10067000A5019401EBD52AE037ED43E25CE3E7D531
:1006800029853A854B855C85F2D7E8E7F0E0208143
:10069000318142815381DBD56D837E838F8398873F
:1006A00029813A814B815C81C301B201CFD52B01F5
:1006B0003C0129813A814B815C81C501B401C6D5D9
:1006C0006D8F7E8F8F8F98A32DEC3CEC4CEC5EE30E
:1006D0006D817E818F819885BAD54B015C019B012C
:1006E000AC016D817E818F8198857BD669837A8309
:1006F0008B839C83A50194016D8D7E8D8F8D98A138
:1007000070D6698B7A8B8B8B9C8B298D3A8D4B8D18
:100710005C8D6D857E858F85988998D56D877E8760
:100720008F87988B9B01AC0169817A818B819C8139
:100730009ED7298D3A8D4B8D5C8D89D54B015C01FF
:10074000609388007093890080938A0090938B0057
:100750002D853E854F85588969897A898B899C8941
:1007600086D72D893E894F89588D71D560938C002D
:1007700070938D0080938E0090938F0029813A8131
:100780004B815C816D817E818F81988570D79B01C3
:10079000AC016D817E818F81988558D5E8E7F0E0C6
:1007A000608371838283938329813A814B815C8149
:1007B000C301B2015CD79B01AC01C301B20146D5B4
:1007C00060937C0070937D0080937E0090937F0007
:1007D00029893A894B895C896D817E818F819885D1
:1007E00046D79B01AC016D8D7E8D8F8D98A12ED546
:1007F00060938000709381008093820090938300C7
:100800002DEC3CEC4CE45DE369857A858B859C8519
:100810002ED7A70196011BD56B017C0129893A8946
:100820004B895C89C301B20122D79B01AC01C7018E
:10083000B6010CD560938400709385008093860088
:1008400090938700C501B401A0960FB6F894DEBF5F
:100850000FBECDBFDF91CF911F910F91FF90EF9011
:10086000DF90CF90BF90AF909F908F907F906F90D0
:100870005F904F9008956623B9F0FC01615070E0DD
:100880006F5F7F4F680F791F80E04CE8219198E0FF
:10089000322F38278695269530FD84279150C1F751
:1008A000E617F70799F7089580E008951F920F92D1
:1008B0000FB60F9211242F933F934F935F936F9333
:1008C0007F938F939F93AF93BF93CF93DF93EF93D8
:1008D000FF93519B07C01092E9008CB18093DB001D
:1008E00080E00AC08091E900E82FF0E09CB1E55279
:1008F000FF4F9083863020F48F5F8093E90063C0C0
:1009000081E0809391009091DB00809160009813CA
:100910005AC080919100882309F455C066E08BEDA0
:1009200090E0A9DF9091E10089134DC0EBEDF0E07C
:1009300082818093900083818F3689F48091920028
:100940008A3030F4809192008F5F8093920009C0CA
:100950008091DF00809360001092920002C010929C
:10096000920087E0EBEDF0E0DF01982F1D929A9561
:10097000E9F7929AC2EED0E0DE011D928A95E9F77E
:1009800080916000888360919300709194008091C1
:1009900095009091960021E030E0AE01E6DD809177
:1009A00060008D8366E0CE0166DF8E83E6E6FEE0C2
:1009B0003197F1F7000010929100509A86E08093F1
:1009C000DA0088818CB9FF91EF91DF91CF91BF91CF
:1009D000AF919F918F917F916F915F914F913F91D7
:1009E0002F910F900FBE0F901F9018951F920F928E
:1009F0000FB60F9211248F93EF93FF938091DA003B
:100A0000882379F081508093DA0050988091DA0041
:100A1000E6E0F0E0E81BF109EE51FF4F80818CB970
:100A200001C09298FF91EF918F910F900FBE0F90A0
:100A30001F90189590BD89B98AB188618AB980B52F
:100A4000866880BD08955D9BFECF8CB90895CF93D5
:100A5000DF93EC018881882329F02196F4DF8991C6
:100A60008111FCCFDF91CF9108950F931F93CF9306
:100A7000DF93CDB7DEB7C058D1090FB6F894DEBF0B
:100A80000FBECDBF9E0129573F4FF90141915191B2
:100A90009F0160E870E08E010F5F1F4FC8014DD6C7
:100AA000F80101900020E9F731978DE09AE09183F9
:100AB00080831282C801CBDFC058DF4F0FB6F89495
:100AC000DEBF0FBECDBFDF91CF911F910F91089573
:100AD000929A81E690E0BBDFEFEAF0E085818F93A8
:100AE00084818F9383818F9382818F9381818F9370
:100AF00080818F938FE690E09F938F93B6DF8DB7C1
:100B00009EB708960FB6F8949EBF0FBE8DBF08958E
:100B100078948FEF84BB83E084BB84E690E026D298
:100B20008FE290E087DF8A9A8B9A2FEF8FE794E02D
:100B3000215080409040E1F700C000000F2EF7E9FF
:100B40002F2EF0E03F2EF02D939A64E170E08FEAB3
:100B500090E0AAD264E170E081EB90E0C8D264E159
:100B600070E083EB90E0E6D264E170E085EB90E02A
:100B700004D364E170E087EB90E022D364E170E09D
:100B800089EB90E040D39398CFEAD0E06C817D81EF
:100B9000719561957109072E000C880B990B8BD408
:100BA0004B015C016A817B81719561957109072E0A
:100BB000000C880B990B7FD46B017C01A50194017B
:100BC000B9D32BED3FE049E450E441D321EE3EE2BE
:100BD00045E652E44CD5F10164837583868397839F
:100BE00068817981719561957109072E000C880BD8
:100BF000990B61D42B013C01A50194019BD32BEDF2
:100C00003FE049E450E423D321EE3EE245E652E4DE
:100C10002ED54B015C01F101648775878687978724
:100C2000A3019201C701B60185D32BED3FE049E452
:100C300050E40DD321EE3EE245E652E418D5F10131
:100C4000648B758B868B978B6E817F81072E000C52
:100C5000880B990B30D423E333E343E851E4C1D349
:100C6000F101608371838283938368857985072E80
:100C7000000C880B990B1FD423E333E343E851E4C2
:100C8000B0D32B013C01F101608771878287938784
:100C90006A857B85072E000C880B990B0CD423E307
:100CA00033E343E851E49DD3F101608B718B828B78
:100CB000938BE12CF12C0CED12E4A3019201C50100
:100CC000B40171DC6093930070939400809395005D
:100CD00090939600809190008A3FA9F460919300D0
:100CE00070919400809195009091960020E030E002
:100CF00044EB52E4ABD260939300709394008093E2
:100D0000950090939600609193007091940080916B
:100D100095009091960020E030E044E353E45DD3E9
:100D200018168CF08091930090919400A0919500FA
:100D3000B09196008093930090939400A0939500B7
:100D4000B093960015C060919300709194008091CB
:100D500095009091960020E030E044EB53E476D289
:100D60006093930070939400809395009093960005
:100D700080919000ADDEE8CE80911301813099F032
:100D800028F08230E9F0833041F134C080E090E017
:100D9000A0E8B6E48093C5009093C600A093C70076
:100DA000B093C80033C080E090E0A0E0B6E4809348
:100DB000C5009093C600A093C700B093C80026C09A
:100DC00080E090E0A0E8B5E48093C5009093C60071
:100DD000A093C700B093C80019C080E090E0A0E0E5
:100DE000B5E48093C5009093C600A093C700B0936C
:100DF000C8000CC080E090E0A0E8B6E48093C50095
:100E00009093C600A093C700B093C80080911201D0
:100E1000813099F028F08230E9F0833041F134C01C
:100E200080E090E0A3E0B3E48093C1009093C2001F
:100E3000A093C300B093C400089580E090E0A3E8BD
:100E4000B2E48093C1009093C200A093C300B0931A
:100E5000C400089583E393E3A3E0B2E48093C10068
:100E60009093C200A093C300B093C400089583E39D
:100E700093E3A3E8B1E48093C1009093C200A093F0
:100E8000C300B093C400089580E090E0A3E0B3E411
:100E90008093C1009093C200A093C300B093C4009C
:100EA0000895AC0165E070E080ED69D90895AF92D6
:100EB000BF92CF92DF92EF92FF920F931F93CF9347
:100EC000DF931F92CDB7DEB7182F69835A011092B6
:100ED000C900CA01E6DF813081F4412F50E060E0B3
:100EE00070E0C12CD12C7601C3948E010F5F1F4F8F
:100EF00028E080ED73D98093C9008091C9000F90DC
:100F0000DF91CF911F910F91FF90EF90DF90CF90E5
:100F1000BF90AF900895AF92BF92CF92DF92EF92C1
:100F2000FF920F931F93CF93C82F8B01C42E5901AB
:100F30001092C900C901B5DF813061F4D12CE12CD8
:100F4000F12C4C2F50E060E070E028E080ED18DAE2
:100F50008093C9008091C900CF911F910F91FF909C
:100F6000EF90DF90CF90BF90AF900895AF92BF9277
:100F7000CF92DF92EF92FF920F931F93CF93DF9365
:100F80008C01F2D8CFE0D1E018821A821E82198239
:100F90000F2EF4E1AF2EF1E0BF2EF02DF501808190
:100FA0008C7F8B7F808383E08B831C8281E08F83A7
:100FB000A80160E088E37BDF8093C900688161500D
:100FC000A80189E174DF9091C900890F8093C9005D
:100FD0006B81660F660F660FA8018BE168DF909149
:100FE000C900890F8093C9006C81660F660F660F78
:100FF000A8018CE15CDF9091C900890F8093C90042
:101000006981660F660F660F8A81682BA8018AE1E5
:101010004EDF9091C900890F8093C900F50180814E
:10102000682F67956627679581FBCC24C0F8D12C83
:101030000024D694C7940794D694C7940794DC2CC4
:10104000C02CC62A82FBEE24E0F8F12CEE0CFF1C2B
:10105000EE0CFF1CEE0CFF1CEE0CFF1CEE0CFF1C3C
:101060006C2D6E29A80187E322DF9091C900890FBA
:101070008093C900A8016F818BE619DF9091C900A8
:10108000890F8093C900873019F476DE81E001C0B2
:1010900080E0DF91CF911F910F91FF90EF90DF9053
:1010A000CF90BF90AF9008950F931F93CF93DF938E
:1010B00000D0CDB7DEB78C019B0142E0BE016F5F6F
:1010C0007F4F8BE328DF813051F4298130E0322FCC
:1010D00022279A81292BF8013183208301C080E0E7
:1010E0000F900F90DF91CF911F910F9108950F9363
:1010F0001F93CF93DF9300D0CDB7DEB78C019B0158
:1011000042E0BE016F5F7F4F8DE305DF813051F418
:10111000298130E0322F22279A81292BF80131834F
:10112000208301C080E00F900F90DF91CF911F913D
:101130000F9108950F931F93CF93DF9300D0CDB7F6
:10114000DEB78C019B0142E0BE016F5F7F4F8FE3F2
:10115000E2DE813051F4298130E0322F22279A815A
:10116000292BF8013183208301C080E00F900F907C
:10117000DF91CF911F910F9108950F931F93CF93FC
:10118000DF9300D0CDB7DEB78C019B0142E0BE01FA
:101190006F5F7F4F83E4BFDE813051F4298130E0FF
:1011A000322F22279A81292BF8013183208301C015
:1011B00080E00F900F90DF91CF911F910F910895D4
:1011C0000F931F93CF93DF9300D0CDB7DEB78C0181
:1011D0009B0142E0BE016F5F7F4F85E49CDE813062
:1011E00051F4298130E0322F22279A81292BF801EE
:1011F0003183208301C080E00F900F90DF91CF9169
:101200001F910F9108950F931F93CF93DF9300D0F9
:10121000CDB7DEB78C019B0142E0BE016F5F7F4F0F
:1012200087E479DE813051F4298130E0322F2227A2
:101230009A81292BF8013183208301C080E00F902F
:101240000F90DF91CF911F910F9108955058BB27B8
:10125000AA270ED0CBC1BCD130F0C1D120F031F4DF
:101260009F3F11F41EF48CC10EF4E095E7FB82C1A0
:10127000E92FCDD180F3BA1762077307840795076A
:1012800018F071F49EF5E5C10EF4E0950B2EBA2F1F
:10129000A02D0B01B90190010C01CA01A00111247C
:1012A000FF27591B99F0593F50F4503E68F11A1628
:1012B000F040A22F232F342F4427585FF3CF4695B9
:1012C00037952795A795F0405395C9F77EF41F16DB
:1012D000BA0B620B730B840BBAF09150A1F0FF0FA5
:1012E000BB1F661F771F881FC2F70EC0BA0F621F91
:1012F000731F841F48F4879577956795B795F79581
:101300009E3F08F0B3CF9395880F08F09927EE0F12
:101310009795879508955CD158F080E891E009F49D
:101320009EEF5DD128F040E851E059F45EEF09C02E
:1013300027C18FC1E92FE0786AD168F3092E052A09
:10134000C1F3261737074807590738F00E2E07F85C
:10135000E02569F0E025E0640AC0EF6307F8009437
:1013600007FADB01B9019D01DC01CA01AD01EF9370
:1013700047D03CD10AD05F91552331F02BED3FE0AF
:1013800049E450FD49EC63CF0895DF93DD27B92F81
:10139000BF7740E85FE31616170648075B0710F4AF
:1013A000D92F5ED19F938F937F936F93C3D1E6E242
:1013B000F0E0E9D01BD12F913F914F915F9163D124
:1013C000DD2349F09058A2EA2AED3FE049EC5FE3C3
:1013D000D0785D274DDFDF9109C1A8D008F481E006
:1013E00008950CD003C1FBD040F0F2D030F021F4CE
:1013F0005F3F19F0BFC051112DC1C2C008D198F391
:101400009923C9F35523B1F3951B550BBB27AA2785
:1014100062177307840738F09F5F5F4F220F331FF7
:10142000441FAA1FA9F333D00E2E3AF0E0E830D0C3
:1014300091505040E695001CCAF729D0FE2F27D0C6
:10144000660F771F881FBB1F261737074807AB0794
:10145000B0E809F0BB0B802DBF01FF2793585F4F09
:101460002AF09E3F510568F085C0F4C05F3FECF361
:10147000983EDCF3869577956795B795F7959F5FCE
:10148000C9F7880F911D9695879597F90895E1E022
:10149000660F771F881FBB1F621773078407BA0781
:1014A00020F0621B730B840BBA0BEE1F88F7E095DC
:1014B0000895E89409C097FB3EF490958095709547
:1014C00061957F4F8F4F9F4F9923A9F0F92F96E990
:1014D000BB279395F695879577956795B795F11105
:1014E000F8CFFAF4BB0F11F460FF1BC06F5F7F4FA2
:1014F0008F4F9F4F16C0882311F096E911C07723B4
:1015000021F09EE8872F762F05C0662371F096E8BC
:10151000862F70E060E02AF09A95660F771F881F8B
:10152000DAF7880F9695879597F90895990F00082F
:10153000550FAA0BE0E8FEEF16161706E807F907A5
:10154000C0F012161306E407F50798F0621B730B40
:10155000840B950B39F40A2661F0232B242B252BC1
:1015600021F408950A2609F4A140A6958FEF811D64
:10157000811D089597F99F6780E870E060E0089505
:101580009FEF80EC0895DF93CF931F930F93FF920B
:10159000EF92DF927B018C01689405C0DA2EEF0197
:1015A00072D0FE01E894A591259135914591559110
:1015B000AEF3EF015DDEFE019701A801DA9479F741
:1015C000DF90EF90FF900F911F91CF91DF910895E1
:1015D00000240A9416161706180609060895002412
:1015E0000A9412161306140605060895092E03948C
:1015F000000C11F4882352F0BB0F40F4BF2B11F400
:1016000060FF04C06F5F7F4F8F4F9F4F089557FD5E
:101610009058440F551F59F05F3F71F04795880F60
:1016200097FB991F61F09F3F79F0879508951216F7
:1016300013061406551FF2CF4695F1DF08C01616A3
:1016400017061806991FF1CF869571056105089454
:101650000895E894BB2766277727CB0197F908956B
:101660009B01AC0160E070E080E89FE3BACE0BD054
:10167000BDCFAEDF28F0B3DF18F0952309F07ACFA5
:101680007FCF1124E7CFC3DFA0F3959FD1F3950F50
:1016900050E0551F629FF001729FBB27F00DB11DF6
:1016A000639FAA27F00DB11DAA1F649F6627B00D86
:1016B000A11D661F829F2227B00DA11D621F739F6F
:1016C000B00DA11D621F839FA00D611D221F749F7D
:1016D0003327A00D611D231F849F600D211D822FC4
:1016E000762F6A2F11249F5750408AF0E1F088230B
:1016F0004AF0EE0FFF1FBB1F661F771F881F915018
:101700005040A9F79E3F510570F034CFA3CF5F3F03
:10171000ECF3983EDCF3869577956795B795F7954A
:10172000E7959F5FC1F7FE2B880F911D96958795D2
:1017300097F908959B01AC019ACFAEE0B0E0E2EAE0
:10174000FBE0B4C28C01FA0186E08C831A83098322
:1017500077FF02C060E070E8CB0101979E838D8324
:10176000A901BF01CE01019611D04D815E8157FDC7
:101770000AC02F813885421753070CF49A01F801EB
:10178000E20FF31F10822E96E4E0ACC2ABE0B0E0B3
:10179000EBECFBE07DC26C017B018A01FC0117824E
:1017A0001682838181FFBFC1CE0101963C01F60103
:1017B0009381F70193FD859193FF81917F018823A8
:1017C00009F4ADC1853239F493FD859193FF819180
:1017D0007F01853221F4B60190E0C0D1E8CF912C91
:1017E000212C312CFFE1F315D8F08B3279F038F44D
:1017F000803279F08332A1F4232D20611DC08D3217
:1018000061F0803369F4232D216016C0832D82603E
:10181000382EE32DE4603E2E2AC0F32DF8601DC063
:1018200037FC2DC020ED280F2A3040F08E32B9F45D
:1018300036FC75C1232D2064322E19C036FE06C039
:101840008AE0989E200D1124922E11C0EAE02E9E6F
:10185000200D1124222EF32DF0623F2E08C08C366D
:1018600021F4832D8068382E02C0883641F4F701B8
:1018700093FD859193FF81917F018111B3CF982FC3
:101880009F7D9554933028F40C5F1F4F9FE39983FD
:101890000DC0833631F0833771F0833509F055C0C0
:1018A00020C0F801808189830E5F1F4F88248394B4
:1018B000912C530112C02801F2E04F0E511CF80187
:1018C000A080B18036FE03C0692D70E002C06FEFCA
:1018D0007FEFC50138D14C018201F32DFF773F2EF8
:1018E00015C0280122E0420E511CF801A080B180F1
:1018F00036FE03C0692D70E002C06FEF7FEFC501B7
:1019000017D14C01F32DF0683F2E820133FC19C032
:10191000822D90E088169906A0F4B60180E290E04E
:101920001DD12A94F5CFF50137FC859137FE8191C1
:101930005F01B60190E012D121102A9421E0821AB1
:1019400091088114910479F7E1C0843611F0893649
:1019500039F5F80137FE07C060817181828193817A
:101960000C5F1F4F08C060817181072E000C880B2F
:10197000990B0E5F1F4FF32DFF763F2E97FF09C087
:1019800090958095709561957F4F8F4F9F4FF06830
:101990003F2E2AE030E0A3011DD1882E861844C0D6
:1019A000853731F4232D2F7EB22E2AE030E025C07A
:1019B000932D997FB92E8F36C1F018F4883579F0C0
:1019C000AEC0803719F0883721F0A9C0E92FE06157
:1019D000BE2EB4FE0DC0FB2DF460BF2E09C034FE38
:1019E0000AC0292F2660B22E06C028E030E005C0CC
:1019F00020E130E002C020E132E0F801B7FE07C08C
:101A000060817181828193810C5F1F4F06C060816C
:101A1000718180E090E00E5F1F4FA301DBD0882E24
:101A20008618FB2DFF773F2E36FE0DC0232D2E7F0F
:101A3000A22E891458F434FE0BC032FC09C0832D49
:101A40008E7EA82E05C0B82CA32C03C0B82C01C0D4
:101A5000B92CA4FE0FC0FE01E80DF11D808180337A
:101A600021F49A2D997EA92E09C0A2FE06C0B39436
:101A7000B39404C08A2D867809F0B394A3FC10C0F7
:101A8000A0FE06C0B21480F4280C922C9B180DC046
:101A9000B21458F4B60180E290E060D0B394F8CF6D
:101AA000B21418F42B1802C0982C212CA4FE0FC0DD
:101AB000B60180E390E052D0A2FE16C0A1FC03C0A4
:101AC00088E790E002C088E590E0B6010CC08A2D5E
:101AD000867851F0A1FE02C08BE201C080E2A7FC33
:101AE0008DE2B60190E03AD0891430F4B60180E37B
:101AF00090E034D09A94F8CF8A94F301E80DF11D68
:101B00008081B60190E02AD08110F6CF222009F41E
:101B10004ECEB60180E290E021D02A94F7CFF601B4
:101B20008681978102C08FEF9FEF2B96E2E1CCC0B8
:101B3000FC010590615070400110D8F78095909598
:101B40008E0F9F1F0895FC0161507040019001109D
:101B5000D8F7809590958E0F9F1F08950F931F9330
:101B6000CF93DF93FB01238121FD03C08FEF9FEF14
:101B70002CC022FF16C0468157812481358142172F
:101B8000530744F4A081B1819D012F5F3F4F318302
:101B900020838C93268137812F5F3F4F37832683A5
:101BA00014C08B01EC01FB010084F185E02D099547
:101BB000892BE1F6D80116968D919C911797019685
:101BC00017969C938E931697CE01DF91CF911F911C
:101BD0000F910895FA01AA27283051F1203181F19F
:101BE000E8946F936E7F6E5F7F4F8F4F9F4FAF4F25
:101BF000B1E03ED0B4E03CD0670F781F891F9A1F38
:101C0000A11D680F791F8A1F911DA11D6A0F711DEB
:101C1000811D911DA11D20D009F468943F912AE0F7
:101C2000269F11243019305D3193DEF6CF010895DF
:101C3000462F4770405D4193B3E00FD0C9F7F6CF10
:101C4000462F4F70405D4A3318F0495D31FD4052D8
:101C5000419302D0A9F7EACFB4E0A695979587956E
:101C600077956795BA95C9F700976105710508954D
:101C70009B01AC010A2E06945795479537952795F9
:101C8000BA95C9F7620F731F841F951FA01D089591
:101C90002F923F924F925F926F927F928F929F927C
:101CA000AF92BF92CF92DF92EF92FF920F931F936A
:101CB000CF93DF93CDB7DEB7CA1BDB0B0FB6F8941B
:101CC000DEBF0FBECDBF09942A88398848885F845B
:101CD0006E847D848C849B84AA84B984C884DF80CC
:101CE000EE80FD800C811B81AA81B981CE0FD11DB0
:101CF0000FB6F894DEBF0FBECDBFED010895F89486
:021D0000FFCF13
:101D02000158613A2C59613A2C5A613A0D0A002560
:081D1200642C25642C256400FB
:00000001FF
