:1000000029C043C042C056C540C03FC03EC03DC0ED
:100010003CC03BC03AC0ABC538C0F9C536C035C0DE
:1000200034C033C032C0084AD73B3BCE016E84BCDB
:10003000BFFDC12F3D6C74319ABD56833DDA3D0042
:10004000C77F11BED9E4BB4C3E916BAAAABE00008B
:1000500000803F0011241FBECFE5D4E0DEBFCDBF3E
:1000600010E0A0E6B0E0EEE4F9E102C005900D92E8
:10007000A036B107D9F721E0A0E6B0E001C01D929B
:10008000A135B207E1F70AD660CCBACF84EA86BFC1
:1000900006B607FC07C080E197E206B607FC02C07F
:1000A0000197D9F781B1887F089583B984E886BF25
:1000B00006B607FC07C080E197E206B607FC02C05F
:1000C0000197D9F781B1887F089588EE93E0019771
:1000D000F1F784EC86BF06B607FC07C080E197E223
:1000E00006B607FC02C00197D9F783B1089584E8EA
:1000F00086BF06B607FC07C080E197E206B607FC9C
:1001000002C00197D9F783B1089584E986BF06B686
:1001100004FE07C080E197E206B604FE02C0019724
:10012000D9F7089581E081B98AE080B984E086BF7B
:100130000895DF92EF92FF920F931F93CF93DF9377
:10014000D82EEB018A01209799F0E12CF12CC801FF
:100150009DDF883019F4B8018D2DA7DF883129F48F
:10016000C801D3DF8FEFE81AF80A219781F702C0A0
:10017000E12CF12C81E0EF2809F480E0DF91CF91B0
:100180001F910F91FF90EF90DF9008952F923F9273
:100190004F925F926F927F928F929F92AF92BF9297
:1001A000CF92DF92EF92FF920F931F93CF93DF9343
:1001B000C82F2A013B01D22F1501A50161E070E093
:1001C000B8DF813009F096C0C50160DFD83041F555
:1001D000883099F4D301C201689416F8B695A795B2
:1001E000979587951694D1F78E70B5018C2B5DDFAE
:1001F000812C912C5401839403C0812C912C5401A7
:10020000883141F4B101842D50DF9FEF891A990A9A
:10021000A90AB90AC114D104E104F10481F543C06B
:100220008830A1F4D301C201072E7FE0B695A795CF
:10023000979587957A95D1F7702D8270B5018C2BA3
:1002400034DF812C912C5401839403C0812C912C98
:100250005401883141F4B101852D27DFEFEF8E1A6B
:100260009E0AAE0ABE0A883209F048C0B101842D48
:100270001CDFFFEF8F1A9F0AAF0ABF0ACBCF260100
:100280003701883251F4B101F80181918F010DDFFE
:10029000FFEF8F1A9F0AAF0ABF0A91E0491A51086F
:1002A0006108710871F7883239F4C1012EDFEFEF70
:1002B0008E1A9E0AAE0ABE0AD83069F4F3E0CF0E59
:1002C000D11CE11CF11C81E0C814D904EA04FB0430
:1002D000E1F080E01AC0D03179F484E0C80ED11C7E
:1002E000E11CF11C81E0C814D904EA04FB0469F0A4
:1002F00080E00BC080E009C080E007C0C114D104D9
:10030000E104F10409F0BBCFE6CFDF91CF911F915B
:100310000F91FF90EF90DF90CF90BF90AF909F90A4
:100320008F907F906F905F904F903F902F900895A7
:100330002F923F924F925F926F927F928F929F92F5
:10034000AF92BF92CF92DF92EF92FF920F931F93E3
:10035000CF93DF93C82F2A013B01D22F1501A501AE
:1003600061E070E0E6DE813009F0C1C0C5018EDEDB
:10037000D83019F5883099F4D301C201689416F881
:10038000B695A795979587951694D1F78E70B50178
:100390008C2B8BDE812C912C5401839403C0812CF7
:1003A000912C54018831B1F5B101842D7EDE9FEF8F
:1003B000891A990AA90AB90A2DC08830A1F4D30173
:1003C000C201072E7FE0B695A795979587957A95F8
:1003D000D1F7702D8270B5018C2B67DE812C912CAA
:1003E0005401839403C0812C912C5401883141F431
:1003F000B101852D5ADEEFEF8E1A9E0AAE0ABE0AB3
:10040000883289F4B101842D50DEFFEF8F1A9F0AE4
:10041000AF0ABF0A883239F4C10138DE9FEF891A6A
:10042000990AA90AB90A803149F4B1018C2F816077
:100430003CDEEFEF8E1A9E0AAE0ABE0AF2E0CF163D
:10044000D104E104F104E8F026013701982F9F7EE2
:10045000903461F4C10139DEF80181938F0181B1DB
:10046000887FFFEF8F1A9F0AAF0ABF0A91E0491AEF
:10047000510861087108E1E04E16510461047104ED
:1004800029F7982F9F7E903459F4C10130DEF8018E
:10049000808381B1887FFFEF8F1A9F0AAF0ABF0A5E
:1004A000883539F4C10131DE8FEF881A980AA80A1D
:1004B000B80AD83069F495E0C90ED11CE11CF11CD2
:1004C00081E0C814D904EA04FB04A1F080E012C062
:1004D000D03179F4E6E0CE0ED11CE11CF11C81E0B4
:1004E000C814D904EA04FB0429F080E003C080E0CA
:1004F00001C080E0DF91CF911F910F91FF90EF90AD
:10050000DF90CF90BF90AF909F908F907F906F9033
:100510005F904F903F902F900895CF93DF9300D03E
:1005200000D0CDB7DEB769837A838B839C83FE01CD
:100530003196DA01A20FB31F9E012B5F3F4F8191CD
:100540008D93E217F307D9F70F900F900F900F904C
:10055000DF91CF9108954F925F926F927F928F9229
:100560009F92AF92BF92CF92DF92EF92FF920F9342
:100570001F93CF93DF93CDB7DEB7A2970FB6F89452
:10058000DEBF0FBECDBF9AA389A349875A876B8769
:100590007C87C901B801A9A1BAA114962D913D91FA
:1005A0004D915C911797298B3A8B4B8B5C8B10D7B5
:1005B000A70196014FD9E9A1FAA120813181428199
:1005C000538107D7698F7A8F8B8F9C8FA9A1BAA18E
:1005D00054962D913D914D915C9157972D8B3E8B6B
:1005E0004F8B588FC701B60135D969837A838B83C6
:1005F0009C83E9A1FAA14484558466847784808829
:100600009188A288B388A3019201E2D6A501940142
:10061000DFD62DEC3CEC4CEC5CE3DBD6A70196017D
:1006200019D9A9A1BAA118962D913D914D915C912E
:100630001B97CFD66D837E838F83988729813A81DC
:100640004B815C81C301B201C3D62B013C012981DE
:100650003A814B815C81C501B401BAD66D8F7E8F22
:100660008F8F98A32CEB34E743E95CE36D817E81A7
:100670008F819885AED64B015C019B01AC016D81E9
:100680007E818F8198856FD769837A838B839C83E2
:10069000A50194016D8D7E8D8F8D98A164D76D8796
:1006A0007E878F87988B298D3A8D4B8D5C8D6985E0
:1006B0007A858B859C858CD669877A878B879C8782
:1006C0009B01AC0169817A818B819C81C3D8298D82
:1006D0003A8D4B8D5C8D7DD64B015C01E9A1FAA171
:1006E000608371838283938329853A854B855C85FA
:1006F0006D857E858F859889ADD829893A894B8902
:100700005C8967D6A9A1BAA114966D937D938D9348
:100710009C93179729813A814B815C816D817E8101
:100720008F81988597D89B01AC016D817E818F81E7
:1007300098854ED6E9A1FAA1608771878287938751
:1007400029813A814B815C81C301B20183D89B012D
:10075000AC01C301B2013CD6A9A1BAA11C966D930C
:100760007D938D939C931F972D853E854F8558894A
:100770006D817E818F8198856DD89B01AC016D8DD7
:100780007E8D8F8D98A124D6E9A1FAA1608B718B03
:10079000828B938B2AE037ED43EA5CE3C701B60115
:1007A00059D82D893E894F89588D13D66B017C010C
:1007B0002D853E854F855889C301B2014BD89B01D9
:1007C000AC01C701B60104D6A9A1BAA154966D9394
:1007D0007D938D939C935797C501B401A2960FB654
:1007E000F894DEBF0FBECDBFDF91CF911F910F9167
:1007F000FF90EF90DF90CF90BF90AF909F908F9041
:100800007F906F905F904F9008956623B9F0FC0140
:10081000615070E06F5F7F4F680F791F80E04CE898
:10082000219198E0322F38278695269530FD842730
:100830009150C1F7E617F70799F7089580E00895FA
:100840000F931F93CF93DF9380916500882309F462
:1008500047C080916100813019F4C091610009C0E6
:1008600080916100823020F0C0916100CF5F01C0B3
:10087000C0E080911301C81318C164E083E191E0E6
:10088000C4DF90911701891310C182B383FB8827BD
:1008900080F9D1E08D2780FD939A80FF939887E0BF
:1008A000E3E1F1E0DF01982F1D929A95E9F70AE163
:1008B00011E0D8011D928A95E9F7F801C083809173
:1008C0002A0190912B0191838283C38364E0C80144
:1008D0009CDFD80114968C93D0936300929AE5C064
:1008E00090911301809161009813DFC066E083E16D
:1008F00091E08BDF909119018913D7C082B383FBFC
:10090000992790F981E0892780FD939A80FF939839
:10091000E3E1F1E082818093620083818F3659F5B3
:10092000809167008A3030F4809167008F5F8093F8
:10093000670023C0809167008A30F9F48091170125
:10094000853070F480911701882351F08091170150
:10095000809361006091610080E090E0E9D708C079
:1009600081E0809361006091610080E090E0E0D7D9
:100970001092670002C010926700809116018037C4
:1009800019F5809166008A3030F4809166008F5F9F
:10099000809366001BC0809166008A30B9F4809114
:1009A0006000811108C08FEF809360006FEF81E0DD
:1009B00090E0BED706C01092600060E081E090E059
:1009C000B7D71092660002C01092660087E0E3E19C
:1009D000F1E0DF01982F1D929A95E9F7EAE1F1E045
:1009E000DF011D928A95E9F78091610080838091F3
:1009F00062008A3F21F0809162008A3A69F4609136
:100A0000730070917400809175009091760021E0E0
:100A100030E04AE151E081DD809162008D3BC1F51B
:100A200060916D0070916E004091690050916A0074
:100A3000262F372F33231CF4319521953109842F2C
:100A4000952F99231CF4919581959109821793070D
:100A50002CF4EAE1F1E07183628304C0EAE1F1E0A1
:100A60005183428380916B0090916C00EAE1F1E048
:100A7000938384838BE090E090936E0080936D006D
:100A800090936C0080936B0090936A008093690050
:100A900080916100CAE1D1E08D8366E0CE01B5DED0
:100AA0008E8381E080936300929ADF91CF911F91B2
:100AB0000F9108951F920F920FB60F9211242F934A
:100AC0003F934F935F936F937F938F939F93AF93D6
:100AD000BF93EF93FF93A89580916300882389F0DB
:100AE00010926300509A80916500882321F084E081
:100AF0008093120103C086E08093120180911A0155
:100B00008CB980916800882329F080916800815019
:100B10008093680080916400882339F091DE109200
:100B2000640088EC8093680011C080916800811196
:100B30000DC088EC8093680082B383FB992790F9FD
:100B400081E0892780FD939A80FF9398FF91EF9130
:100B5000BF91AF919F918F917F916F915F914F91D5
:100B60003F912F910F900FBE0F901F9018951F92DD
:100B70000F920FB60F9211248F939F93EF93FF93D1
:100B8000519B09C010922101109265008CB1809395
:100B9000130180E01FC080912101E82FF0E09CB19B
:100BA000ED5EFE4F9083823099F4909115019A3A50
:100BB00041F0909115019A3F21F0909115019D3BD4
:100BC00019F41092650017C091E09093650013C06E
:100BD000863068F490916500992329F0843019F4E7
:100BE00091E0909364008F5F8093210107C081E0C2
:100BF0008093640003C090916500F5CFFF91EF9161
:100C00009F918F910F900FBE0F901F9018951F927C
:100C10000F920FB60F9211248F93EF93FF93809151
:100C200012018823F1F08150809312015098809135
:100C30006500882359F080911201E4E0F0E0E81BA0
:100C4000F109E65EFE4F80818CB90EC080911201E1
:100C5000E6E0F0E0E81BF109E65EFE4F80818CB92A
:100C600003C0109265009298FF91EF918F910F90C1
:100C70000FBE0F901F90189585B58C6085BD89B704
:100C8000806889BF86EE83BD089590BD89B98AB119
:100C90008C6D8AB980B5866880BD089580E090E04B
:100CA0003FD68093610081E090E03AD68093600067
:100CB00080916100853020F480916100811108C02D
:100CC00081E0809361006091610080E090E030D627
:100CD00078949EE088E10FB6F894A89581BD0FBE88
:100CE00091BD8FEF84BB83E084BB84E690E06DD23E
:100CF000C3DF8FE290E0C9DF8A9A8B9A939A2FEF35
:100D00008FE794E0215080409040E1F700C0000060
:100D10000F2EFFEB2F2EF0E03F2EF02D64E170E060
:100D200083EE90E0EFD264E170E089EE90E01DD3B5
:100D3000A895C3EED0E06E817F81072E000C880B52
:100D4000990BACD42B013C0168817981072E000CF2
:100D5000880B990BA3D4AB01BC010F2EFFE9CF2E5A
:100D6000FBEADF2EFDEAEF2EFBE3FF2EF02D9301D1
:100D7000820187EA90E0EFDBF10160837183828377
:100D8000938368857985072E000C880B990B86D490
:100D90002B013C016A817B81072E000C880B990B8B
:100DA0007DD4AB01BC01930182018FE890E0D3DBDD
:100DB000F10164837583868397836A857B85072E1B
:100DC000000C880B990B6AD42B013C016C817D814E
:100DD000072E000C880B990B61D4AB01BC01930169
:100DE000820187E790E0B7DB6B017C01F10160874E
:100DF00071878287938780809180A280B38024014D
:100E0000350177FA709477F870949B01AC015058D3
:100E1000C301B20151D32BED3FE049E450E4D9D2F4
:100E200021EE3EE245E652E415D5609373007093DF
:100E300074008093750090937600809162008A3FE1
:100E4000A9F4609173007091740080917500909185
:100E5000760020E030E044EB52E4BAD260937300B5
:100E60007093740080937500909376006091730086
:100E700070917400809175009091760020E030E0D0
:100E800044E353E46CD318168CF080917300909176
:100E90007400A0917500B0917600809373009093D8
:100EA0007400A0937500B093760015C06091730034
:100EB00070917400809175009091760020E030E090
:100EC00044EB53E485D26093730070937400809375
:100ED000750090937600809162008091E30090917C
:100EE000E40020916D0030916E0033231CF43195A5
:100EF00021953109AC01992324F444275527481B37
:100F0000590B2417350724F490936E0080936D00DD
:100F10008091E5009091E60020916B0030916C008B
:100F200033231CF4319521953109AC01992324F424
:100F300044275527481B590B2417350724F4909351
:100F40006C0080936B008091E7009091E800209105
:100F5000690030916A0033231CF4319521953109E1
:100F6000AC01992324F444275527481B590B241717
:100F7000350724F490936A008093690080916000A3
:100F8000882389F0A5019401C701B601ECD2BFD234
:100F900020E030E44CE156E45DD44DD370932B0156
:100FA00060932A0110C0A7019601C301B201DBD2F0
:100FB000AED220E030E44CE156E44CD43CD3709304
:100FC0002B0160932A018091730090917400A0918D
:100FD0007500B091760080936F0090937000A0939D
:100FE0007100B09372009ACEAF92BF92CF92DF920F
:100FF000EF92FF920F931F938B011092FD00C42E6E
:10100000D12CE12CF12C482F50E060E070E0590128
:1010100028E080ED8DD98093FD001F910F91FF9006
:10102000EF90DF90CF90BF90AF90089580914D01E9
:10103000813099F028F08230E9F0833041F134C0FA
:1010400080E090E0A0E8B6E48093F9009093FA0085
:10105000A093FB00B093FC0033C080E090E0A0E0E0
:10106000B6E48093F9009093FA00A093FB00B0934C
:10107000FC0026C080E090E0A0E8B5E48093F90091
:101080009093FA00A093FB00B093FC0019C080E09D
:1010900090E0A0E0B5E48093F9009093FA00A0936B
:1010A000FB00B093FC000CC080E090E0A0E8B6E448
:1010B0008093F9009093FA00A093FB00B093FC009A
:1010C00080914C01813099F028F08230E9F0833032
:1010D00041F134C080E090E0A3E0B3E48093F500F8
:1010E0009093F600A093F700B093F800089580E085
:1010F00090E0A3E8B2E48093F5009093F600A0930B
:10110000F700B093F800089583E393E3A3E0B2E41B
:101110008093F5009093F600A093F700B093F80049
:10112000089583E393E3A3E8B1E48093F5009093FB
:10113000F600A093F700B093F800089580E090E0E7
:10114000A3E0B3E48093F5009093F600A093F7003A
:10115000B093F8000895AC0165E070E080EDE9D748
:101160000895AF92BF92CF92DF92EF92FF920F93CA
:101170001F93CF93DF931F92CDB7DEB7182F6983EC
:101180005A011092FD00CA01E6DF813081F4412F3F
:1011900050E060E070E0C12CD12C7601C3948E0148
:1011A0000F5F1F4F28E080EDF1D78093FD00809105
:1011B000FD000F90DF91CF911F910F91FF90EF9065
:1011C000DF90CF90BF90AF900895AF92BF92CF9233
:1011D000DF92EF92FF920F931F93CF93DF938C01D7
:1011E000A1D7C9E4D1E018821A821E8219820F2E7B
:1011F000FEE4AF2EF1E0BF2EF02DF50180818C7F53
:101200008B7F80831B821C8281E08F83A80160E03A
:1012100088E3A7DF8093FD0068816150A80189E120
:10122000A0DF9091FD00890F8093FD006B81660F18
:10123000660F660FA8018BE194DF9091FD00890F86
:101240008093FD006C81660F660F660FA8018CE12C
:1012500088DF9091FD00890F8093FD006981660F02
:10126000660F660F8A81682BA8018AE17ADF909168
:10127000FD00890F8093FD00F5018081682F67953F
:101280006627679581FBCC24C0F8D12C0024D69426
:10129000C7940794D694C7940794DC2CC02CC62A14
:1012A00082FBEE24E0F8F12CEE0CFF1CEE0CFF1C90
:1012B000EE0CFF1CEE0CFF1CEE0CFF1C6C2D6E29BF
:1012C000A80187E34EDF9091FD00890F8093FD0018
:1012D000A8016F818BE645DF9091FD00890F809317
:1012E000FD00873019F4A2DE81E001C080E0DF91CB
:1012F000CF911F910F91FF90EF90DF90CF90BF9013
:10130000AF9008950F931F93CF93DF9300D000D039
:1013100000D0CDB7DEB78C019B0146E0BE016F5F08
:101320007F4F8BE361DE8130A1F4FE013196A8018D
:101330004A5F5F4F208130E0322F22279181292B95
:10134000D8012D933D938D0132964A175B0791F793
:1013500001C080E026960FB6F894DEBF0FBECDBF69
:10136000DF91CF911F910F9108950F931F93CF930A
:10137000DF9300D000D000D0CDB7DEB78C019B0149
:1013800046E0BE016F5F7F4F83E42EDE8130A1F423
:10139000FE013196A8014A5F5F4F208130E0322F75
:1013A00022279181292BD8012D933D938D013296CF
:1013B0004A175B0791F701C080E026960FB6F894B4
:1013C000DEBF0FBECDBFDF91CF911F910F9108956A
:1013D0005058BB27AA270ED0FCC1EDD130F0F2D176
:1013E00020F031F49F3F11F41EF4BDC10EF4E095DE
:1013F000E7FBB3C1E92FFED180F3BA176207730789
:101400008407950718F071F49EF516C20EF4E09566
:101410000B2EBA2FA02D0B01B90190010C01CA01AE
:10142000A0011124FF27591B99F0593F50F4503E59
:1014300068F11A16F040A22F232F342F4427585F4B
:10144000F3CF469537952795A795F0405395C9F763
:101450007EF41F16BA0B620B730B840BBAF091501B
:10146000A1F0FF0FBB1F661F771F881FC2F70EC0BA
:10147000BA0F621F731F841F48F48795779567958D
:10148000B795F7959E3F08F0B3CF9395880F08F076
:101490009927EE0F9795879508958DD158F080E89C
:1014A00091E009F49EEF8ED128F040E851E059F424
:1014B0005EEF09C058C1C0C1E92FE0789BD168F345
:1014C000092E052AC1F3261737074807590738F0B0
:1014D0000E2E07F8E02569F0E025E0640AC0EF630E
:1014E00007F8009407FADB01B9019D01DC01CA018C
:1014F000AD01EF9347D06DD10AD05F91552331F004
:101500002BED3FE049E450FD49EC63CF0895DF93B4
:10151000DD27B92FBF7740E85FE3161617064807A7
:101520005B0710F4D92F8FD19F938F937F936F9385
:10153000F4D1E6E2F0E01AD14CD12F913F914F91D6
:101540005F9194D1DD2349F09058A2EA2AED3FE063
:1015500049EC5FE3D0785D274DDFDF913AC1D9D008
:1015600008F481E008950CD034C12CD140F023D18F
:1015700030F021F45F3F19F0F0C051115EC1F3C0AB
:1015800039D198F39923C9F35523B1F3951B550B22
:10159000BB27AA2762177307840738F09F5F5F4F46
:1015A000220F331F441FAA1FA9F333D00E2E3AF087
:1015B000E0E830D091505040E695001CCAF729D0A1
:1015C000FE2F27D0660F771F881FBB1F26173707F0
:1015D0004807AB07B0E809F0BB0B802DBF01FF2720
:1015E00093585F4F2AF09E3F510568F0B6C025C161
:1015F0005F3FECF3983EDCF3869577956795B7955A
:10160000F7959F5FC9F7880F911D9695879597F974
:101610000895E1E0660F771F881FBB1F62177307ED
:101620008407BA0720F0621B730B840BBA0BEE1F02
:1016300088F7E095089504D06894B111FEC008952C
:10164000E1D088F09F5790F0B92F9927B751A0F0BB
:10165000D1F0660F771F881F991F1AF0BA95C9F746
:1016600012C0B13081F0E8D0B1E00895E5C0672F35
:10167000782F8827B85F39F0B93FCCF386957795F6
:101680006795B395D9F73EF49095809570956195DF
:101690007F4F8F4F9F4F0895E89409C097FB3EF40A
:1016A00090958095709561957F4F8F4F9F4F9923AF
:1016B000A9F0F92F96E9BB279395F695879577952D
:1016C0006795B795F111F8CFFAF4BB0F11F460FFED
:1016D0001BC06F5F7F4F8F4F9F4F16C0882311F045
:1016E00096E911C0772321F09EE8872F762F05C059
:1016F000662371F096E8862F70E060E02AF09A95F4
:10170000660F771F881FDAF7880F9695879597F9E8
:101710000895990F0008550FAA0BE0E8FEEF161682
:101720001706E807F907C0F012161306E407F507D5
:1017300098F0621B730B840B950B39F40A2661F049
:10174000232B242B252B21F408950A2609F4A140EC
:10175000A6958FEF811D811D089597F99F6780E8F9
:1017600070E060E008959FEF80EC0895DF93CF93E1
:101770001F930F93FF92EF92DF927B018C0168948D
:1017800005C0DA2EEF0172D0FE01E894A5912591F3
:10179000359145915591AEF3EF012CDEFE01970195
:1017A000A801DA9479F7DF90EF90FF900F911F91E5
:1017B000CF91DF91089500240A9416161706180693
:1017C0000906089500240A94121613061406050645
:1017D0000895092E0394000C11F4882352F0BB0FD6
:1017E00040F4BF2B11F460FF04C06F5F7F4F8F4F39
:1017F0009F4F089557FD9058440F551F59F05F3F74
:1018000071F04795880F97FB991F61F09F3F79F022
:1018100087950895121613061406551FF2CF4695A4
:10182000F1DF08C0161617061806991FF1CF869526
:101830007105610508940895E894BB27662777270A
:10184000CB0197F908959B01AC0160E070E080E85E
:101850009FE389CE0BD0BDCFAEDF28F0B3DF18F009
:10186000952309F07ACF7FCF1124E7CFC3DFA0F310
:10187000959FD1F3950F50E0551F629FF001729F25
:10188000BB27F00DB11D639FAA27F00DB11DAA1F44
:10189000649F6627B00DA11D661F829F2227B00D91
:1018A000A11D621F739FB00DA11D621F839FA00D1C
:1018B000611D221F749F3327A00D611D231F849F6C
:1018C000600D211D822F762F6A2F11249F575040C3
:1018D0008AF0E1F088234AF0EE0FFF1FBB1F661F5E
:1018E000771F881F91505040A9F79E3F510570F017
:1018F00034CFA3CF5F3FECF3983EDCF3869577952A
:101900006795B795F795E7959F5FC1F7FE2B880F11
:10191000911D9695879597F908959B01AC019ACFF3
:10192000E199FECF9FBB8EBBE09A99278DB30895B6
:10193000262FE199FECF9FBB8EBB2DBB0FB6F8942F
:0E194000E29AE19A0FBE01960895F894FFCF47
:00000001FF
