S017000044492D3630315F4D50552D363035302E7372656373
S113000029C043C042C0D0C440C03FC03EC03DC070
S11300103CC03BC03AC000C538C02AC536C035C054
S113002034C033C032C0084AD73B3BCE016E84BCD7
S1130030BFFDC12F3D6C74319ABD56833DDA3D003E
S1130040C77F11BED9E4BB4C3E916BAAAABE000087
S113005000803F0011241FBECFE5D4E0DEBFCDBF3A
S113006010E0A0E6B0E0ECECF6E102C005900D92E1
S1130070A236B107D9F721E0A2E6B0E001C01D9293
S1130080AE30B207E1F72AD51FCBBACF84EA86BFD8
S113009006B607FC07C080E197E206B607FC02C07B
S11300A00197D9F781B1887F089583B984E886BF21
S11300B006B607FC07C080E197E206B607FC02C05B
S11300C00197D9F781B1887F089588EE93E001976D
S11300D0F1F784EC86BF06B607FC07C080E197E21F
S11300E006B607FC02C00197D9F783B1089584E8E6
S11300F086BF06B607FC07C080E197E206B607FC98
S113010002C00197D9F783B1089584E986BF06B682
S113011004FE07C080E197E206B604FE02C0019720
S1130120D9F7089581E081B98AE080B984E086BF77
S11301300895DF92EF92FF920F931F93CF93DF9373
S1130140D82EEB018A01209799F0E12CF12CC801FB
S11301509DDF883019F4B8018D2DA7DF883129F48B
S1130160C801D3DF8FEFE81AF80A219781F702C09C
S1130170E12CF12C81E0EF2809F480E0DF91CF91AC
S11301801F910F91FF90EF90DF9008952F923F926F
S11301904F925F926F927F928F929F92AF92BF9293
S11301A0CF92DF92EF92FF920F931F93CF93DF933F
S11301B0C82F2A013B01D22F1501A50161E070E08F
S11301C0B8DF813009F096C0C50160DFD83041F551
S11301D0883099F4D301C201689416F8B695A795AE
S11301E0979587951694D1F78E70B5018C2B5DDFAA
S11301F0812C912C5401839403C0812C912C5401A3
S1130200883141F4B101842D50DF9FEF891A990A96
S1130210A90AB90AC114D104E104F10481F543C067
S11302208830A1F4D301C201072E7FE0B695A795CB
S1130230979587957A95D1F7702D8270B5018C2B9F
S113024034DF812C912C5401839403C0812C912C94
S11302505401883141F4B101852D27DFEFEF8E1A67
S11302609E0AAE0ABE0A883209F048C0B101842D44
S11302701CDFFFEF8F1A9F0AAF0ABF0ACBCF2601FC
S11302803701883251F4B101F80181918F010DDFFA
S1130290FFEF8F1A9F0AAF0ABF0A91E0491A51086B
S11302A06108710871F7883239F4C1012EDFEFEF6C
S11302B08E1A9E0AAE0ABE0AD83069F4F3E0CF0E55
S11302C0D11CE11CF11C81E0C814D904EA04FB042C
S11302D0E1F080E01AC0D03179F484E0C80ED11C7A
S11302E0E11CF11C81E0C814D904EA04FB0469F0A0
S11302F080E00BC080E009C080E007C0C114D104D5
S1130300E104F10409F0BBCFE6CFDF91CF911F9157
S11303100F91FF90EF90DF90CF90BF90AF909F90A0
S11303208F907F906F905F904F903F902F900895A3
S11303302F923F924F925F926F927F928F929F92F1
S1130340AF92BF92CF92DF92EF92FF920F931F93DF
S1130350CF93DF93C82F2A013B01D22F1501A501AA
S113036061E070E0E6DE813009F0C1C0C5018EDED7
S1130370D83019F5883099F4D301C201689416F87D
S1130380B695A795979587951694D1F78E70B50174
S11303908C2B8BDE812C912C5401839403C0812CF3
S11303A0912C54018831B1F5B101842D7EDE9FEF8B
S11303B0891A990AA90AB90A2DC08830A1F4D3016F
S11303C0C201072E7FE0B695A795979587957A95F4
S11303D0D1F7702D8270B5018C2B67DE812C912CA6
S11303E05401839403C0812C912C5401883141F42D
S11303F0B101852D5ADEEFEF8E1A9E0AAE0ABE0AAF
S1130400883289F4B101842D50DEFFEF8F1A9F0AE0
S1130410AF0ABF0A883239F4C10138DE9FEF891A66
S1130420990AA90AB90A803149F4B1018C2F816073
S11304303CDEEFEF8E1A9E0AAE0ABE0AF2E0CF1639
S1130440D104E104F104E8F026013701982F9F7EDE
S1130450903461F4C10139DEF80181938F0181B1D7
S1130460887FFFEF8F1A9F0AAF0ABF0A91E0491AEB
S1130470510861087108E1E04E16510461047104E9
S113048029F7982F9F7E903459F4C10130DEF8018A
S1130490808381B1887FFFEF8F1A9F0AAF0ABF0A5A
S11304A0883539F4C10131DE8FEF881A980AA80A19
S11304B0B80AD83069F495E0C90ED11CE11CF11CCE
S11304C081E0C814D904EA04FB04A1F080E012C05E
S11304D0D03179F4E6E0CE0ED11CE11CF11C81E0B0
S11304E0C814D904EA04FB0429F080E003C080E0C6
S11304F001C080E0DF91CF911F910F91FF90EF90A9
S1130500DF90CF90BF90AF909F908F907F906F902F
S11305105F904F903F902F900895CF93DF9300D03A
S113052000D0CDB7DEB769837A838B839C83FE01C9
S11305303196DA01A20FB31F9E012B5F3F4F8191C9
S11305408D93E217F307D9F70F900F900F900F9048
S1130550DF91CF9108954F925F926F927F928F9225
S11305609F92AF92BF92CF92DF92EF92FF920F933E
S11305701F93CF93DF93CDB7DEB7A0970FB6F89450
S1130580DEBF0FBECDBF6D877E878F87988BCA0174
S1130590B901E986FA860B871C872091BD0030914A
S11305A0BE004091BF005091C0002D8B3E8B4F8BFD
S11305B0588F13D6A801970121D82091E9003091D2
S11305C0EA004091EB005091EC0008D6698F7A8FD5
S11305D08B8F9C8FC0906E00D0906F00E090700065
S11305E0F0907100A701960169857A858B859C85B9
S11305F005D869837A838B839C83409066005090EE
S11306006700609068007090690080906A00909024
S11306106B00A0906C00B0906D00A3019201DDD539
S1130620A5019401DAD52DEC3CEC4CEC5CE3D6D579
S113063029853A854B855C85E1D7E2E6F0E02081A7
S1130640318142815381CAD56D837E838F8398879C
S113065029813A814B815C81C301B201BED52B0152
S11306603C0129813A814B815C81C501B401B5D536
S11306706D8F7E8F8F8F98A32CEB34E743E95CE377
S11306806D817E818F819885A9D54B015C019B0189
S1130690AC016D817E818F8198856AD669837A8366
S11306A08B839C83A50194016D8D7E8D8F8D98A184
S11306B05FD6698B7A8B8B8B9C8B298D3A8D4B8D76
S11306C05C8D6D857E858F85988987D56D877E87BE
S11306D08F87988B9B01AC0169817A818B819C8186
S11306E08DD7298D3A8D4B8D5C8D78D54B015C016E
S11306F06093E9007093EA008093EB009093EC0020
S11307002D853E854F85588969897A898B899C898D
S113071075D72D893E894F89588D60D56093BD006A
S11307207093BE008093BF009093C00029813A81EA
S11307304B815C816D817E818F8198855FD79B0120
S1130740AC016D817E818F81988547D5E2E6F0E02A
S1130750608371838283938329813A814B815C8195
S1130760C301B2014BD79B01AC01C301B20135D522
S113077060936600709367008093680090936900AB
S113078029893A894B895C896D817E818F8198851D
S113079035D79B01AC016D8D7E8D8F8D98A11DD5B4
S11307A060936A0070936B0080936C0090936D006B
S11307B02AE037ED43EA5CE369857A858B859C857D
S11307C01DD7A70196010AD56B017C0129893A89B5
S11307D04B895C89C301B20111D79B01AC01C701EC
S11307E0B601FBD460936E0070936F008093700029
S11307F090937100C501B401A0960FB6F894DEBFC2
S11308000FBECDBFDF91CF911F910F91FF90EF905D
S1130810DF90CF90BF90AF909F908F907F906F901C
S11308205F904F9008956623B9F0FC01615070E029
S11308306F5F7F4F680F791F80E04CE8219198E04B
S1130840322F38278695269530FD84279150C1F79D
S1130850E617F70799F7089580E00895CF93DF939B
S11308609091D2008091600098139BC066E082ED65
S113087090E0D9DF9091D800891393C082B383FBB1
S1130880992790F981E0892780FD939A80FF9398B6
S1130890E2EDF0E082818093720083818F3689F4E7
S11308A0809175008A3030F4809175008F5F809359
S11308B0750009C08091D600809360001092750085
S11308C002C01092750087E0E2EDF0E0DF01982F9E
S11308D01D929A95E9F7E9EDF0E0DF011D928A9502
S11308E0E9F7809160008083809172008A3F21F053
S11308F0809172008A3A69F460918000709181005D
S1130900809182009091830021E030E049ED50E035
S113091004DE809172008D3BC1F560917A00709184
S11309207B004091760050917700262F372F332398
S11309301CF4319521953109842F952F99231CF4AA
S1130940919581959109821793072CF4E9EDF0E0D4
S11309507183628304C0E9EDF0E0518342838091A6
S1130960780090917900E9EDF0E0938384838BE043
S113097090E090937B0080937A0090937900809329
S11309807800909377008093760080916000C9EDA1
S1130990D0E08D8366E0CE0146DF8E8381E08093D4
S11309A07300DF91CF9108951F920F920FB60F92AB
S11309B011242F933F934F935F936F937F938F9360
S11309C09F93AF93BF93EF93FF9380917400882319
S11309D021F044DF109274000EC0809173008823CC
S11309E051F010927300929A509A86E08093D1004D
S11309F08091D9008CB9FF91EF91BF91AF919F91F4
S1130A008F917F916F915F914F913F912F910F90B3
S1130A100FBE0F901F9018951F920F920FB60F9252
S1130A2011248F939F93EF93FF93519B07C01092D0
S1130A30E0008CB18093D20080E00AC08091E00095
S1130A40E82FF0E09CB1EE52FF4F9083863020F403
S1130A508F5F8093E00003C081E080937400FF9176
S1130A60EF919F918F910F900FBE0F901F9018954B
S1130A701F920F920FB60F9211248F93EF93FF934F
S1130A808091D100882379F081508093D1005098CF
S1130A908091D100E6E0F0E0E81BF109E752FF4F56
S1130AA080818CB901C09298FF91EF918F910F9042
S1130AB00FBE0F901F90189585B58C6085BD89B7C2
S1130AC0806889BF86EE83BD089590BD89B98AB1D7
S1130AD08C6D8AB980B5866880BD089578949EE04F
S1130AE088E10FB6F894A89581BD0FBE91BD8FEF34
S1130AF084BB83E084BB84E690E06CD2DDDF8FE2CC
S1130B0090E0E3DF8A9A8B9A2FEF8FE794E02150ED
S1130B1080409040E1F700C000000F2EF4E82F2E33
S1130B20F0E03F2EF02D64E170E082EA90E0EFD235
S1130B3064E170E088EA90E01DD3A895C2EAD0E0B1
S1130B406C817D81719561957109072E000C880B6C
S1130B50990B78D44B015C016A817B817195619515
S1130B607109072E000C880B990B6CD46B017C0166
S1130B70A5019401A6D32BED3FE049E450E42ED324
S1130B8021EE3EE245E652E439D5F10162877387EE
S1130B908487958768817981719561957109072E9C
S1130BA0000C880B990B4ED42B013C01A501940138
S1130BB088D32BED3FE049E450E410D321EE3EE22C
S1130BC045E652E41BD54B015C01F101628B738B4A
S1130BD0848B958BA3019201C701B60172D32BEDCF
S1130BE03FE049E450E4FAD221EE3EE245E652E425
S1130BF005D5F101628F738F848F958F6E817F810C
S1130C00072E000C880B990B1DD420E030E043E044
S1130C1053E4AED3F1016683778380879187688537
S1130C207985072E000C880B990B0CD420E030E05A
S1130C3043E053E49DD32B013C01F10166877787A0
S1130C40808B918B6A857B85072E000C880B990B12
S1130C50F9D320E030E043E053E48AD3F101668B1A
S1130C60778B808F918F1FE9E12E1BEAF12E0DEA1D
S1130C701BE3A3019201C501B4016DDC6093800004
S1130C807093810080938200909383008091800010
S1130C9090918100A0918200B091830080937C00A8
S1130CA090937D00A0937E00B0937F0080917200AA
S1130CB08A3FA9F460918000709181008091820044
S1130CC09091830020E030E044EB52E486D26093BC
S1130CD080007093810080938200909383006091E0
S1130CE0800070918100809182009091830020E0C7
S1130CF030E044E353E438D318168CF0809180003C
S1130D0090918100A0918200B09183008093800033
S1130D1090938100A0938200B093830015C06091EA
S1130D20800070918100809182009091830020E086
S1130D3030E044EB53E451D260938000709381001F
S1130D408093820090938300809172008091A2002E
S1130D509091A30020917A0030917B0033231CF4FE
S1130D60319521953109AC01992324F44427552761
S1130D70481B590B2417350724F490937B00809368
S1130D807A008091A4009091A50020917800309180
S1130D90790033231CF4319521953109AC01992351
S1130DA024F444275527481B590B2417350724F4EA
S1130DB090937900809378002091A6003091A70049
S1130DC0809176009091770099231CF491958195F8
S1130DD09109A901332324F444275527421B530BBB
S1130DE0841795070CF09FCE3093770020937600FC
S1130DF09ACEAF92BF92CF92DF92EF92FF920F936F
S1130E001F938B011092BC00C42ED12CE12CF12C29
S1130E10482F50E060E070E0590128E080ED88DA66
S1130E208093BC001F910F91FF90EF90DF90CF90C3
S1130E30BF90AF90089580910A01813099F028F015
S1130E408230E9F0833041F134C080E090E0A0E8E2
S1130E50B6E48093B8009093B900A093BA00B0931D
S1130E60BB0033C080E090E0A0E0B6E48093B8001B
S1130E709093B900A093BA00B093BB0026C080E061
S1130E8090E0A0E8B5E48093B8009093B900A093F3
S1130E90BA00B093BB0019C080E090E0A0E0B5E4D4
S1130EA08093B8009093B900A093BA00B093BB00AC
S1130EB00CC080E090E0A0E8B6E48093B800909382
S1130EC0B900A093BA00B093BB00809109018130AE
S1130ED099F028F08230E9F0833041F134C080E0A9
S1130EE090E0A3E0B3E48093B4009093B500A093A2
S1130EF0B600B093B700089580E090E0A3E8B2E4B0
S1130F008093B4009093B500A093B600B093B7005B
S1130F10089583E393E3A3E0B2E48093B400909351
S1130F20B500A093B600B093B700089583E393E3AC
S1130F30A3E8B1E48093B4009093B500A093B60005
S1130F40B093B700089580E090E0A3E0B3E4809309
S1130F50B4009093B500A093B600B093B700089581
S1130F60AC0165E070E080EDE4D80895AF92BF92E3
S1130F70CF92DF92EF92FF920F931F93CF93DF9361
S1130F801F92CDB7DEB7182F69835A011092BC00A7
S1130F90CA01E6DF813081F4412F50E060E070E067
S1130FA0C12CD12C7601C3948E010F5F1F4F28E012
S1130FB080EDECD88093BC008091BC000F90DF9151
S1130FC0CF911F910F91FF90EF90DF90CF90BF9042
S1130FD0AF900895AF92BF92CF92DF92EF92FF92BB
S1130FE00F931F93CF93DF938C019CD8C6E0D1E07D
S1130FF018821A821E8219820F2EFBE0AF2EF1E0B6
S1131000BF2EF02DF50180818C7F8B7F80831B8226
S11310101C8281E08F83A80160E088E3A7DF8093CE
S1131020BC0068816150A80189E1A0DF9091BC00F7
S1131030890F8093BC006B81660F660F660FA80151
S11310408BE194DF9091BC00890F8093BC006C818C
S1131050660F660F660FA8018CE188DF9091BC00D3
S1131060890F8093BC006981660F660F660F8A81C1
S1131070682BA8018AE17ADF9091BC00890F8093E4
S1131080BC00F5018081682F67956627679581FB11
S1131090CC24C0F8D12C0024D694C7940794D694B9
S11310A0C7940794DC2CC02CC62A82FBEE24E0F8FB
S11310B0F12CEE0CFF1CEE0CFF1CEE0CFF1CEE0CD6
S11310C0FF1CEE0CFF1C6C2D6E29A80187E34EDF7C
S11310D09091BC00890F8093BC00A8016F818BE6BE
S11310E045DF9091BC00890F8093BC00873019F4D0
S11310F0A2DE81E001C080E0DF91CF911F910F91CA
S1131100FF90EF90DF90CF90BF90AF9008950F9332
S11311101F93CF93DF9300D000D000D0CDB7DEB7BC
S11311208C019B0146E0BE016F5F7F4F8BE361DE64
S11311308130A1F4FE013196A8014A5F5F4F2081FE
S113114030E0322F22279181292BD8012D933D9312
S11311508D0132964A175B0791F701C080E026960D
S11311600FB6F894DEBF0FBECDBFDF91CF911F91B4
S11311700F9108950F931F93CF93DF9300D000D066
S113118000D0CDB7DEB78C019B0146E0BE016F5F96
S11311907F4F83E42EDE8130A1F4FE013196A80155
S11311A04A5F5F4F208130E0322F22279181292B23
S11311B0D8012D933D938D0132964A175B0791F721
S11311C001C080E026960FB6F894DEBF0FBECDBFF7
S11311D0DF91CF911F910F9108955058BB27AA27F3
S11311E00ED0CBC1BCD130F0C1D120F031F49F3F3F
S11311F011F41EF48CC10EF4E095E7FB82C1E92FD3
S1131200CDD180F3BA17620773078407950718F0E6
S113121071F49EF5E5C10EF4E0950B2EBA2FA02DC6
S11312200B01B90190010C01CA01A0011124FF278F
S1131230591B99F0593F50F4503E68F11A16F0408A
S1131240A22F232F342F4427585FF3CF4695379589
S11312502795A795F0405395C9F77EF41F16BA0B4E
S1131260620B730B840BBAF09150A1F0FF0FBB1FFC
S1131270661F771F881FC2F70EC0BA0F621F731F45
S1131280841F48F4879577956795B795F7959E3FA2
S113129008F0B3CF9395880F08F09927EE0F979530
S11312A0879508955CD158F080E891E009F49EEFA9
S11312B05DD128F040E851E059F45EEF09C027C140
S11312C08FC1E92FE0786AD168F3092E052AC1F3AA
S11312D0261737074807590738F00E2E07F8E02578
S11312E069F0E025E0640AC0EF6307F8009407FAA8
S11312F0DB01B9019D01DC01CA01AD01EF9347D0C7
S11313003CD10AD05F91552331F02BED3FE049E405
S113131050FD49EC63CF0895DF93DD27B92FBF77E4
S113132040E85FE31616170648075B0710F4D92F49
S11313305ED19F938F937F936F93C3D1E6E2F0E0E6
S1131340E9D01BD12F913F914F915F9163D1DD2360
S113135049F09058A2EA2AED3FE049EC5FE3D078E7
S11313605D274DDFDF9109C1A8D008F481E008951D
S11313700CD003C1FBD040F0F2D030F021F45F3F39
S113138019F0BFC051112DC1C2C008D198F39923DF
S1131390C9F35523B1F3951B550BBB27AA27621735
S11313A07307840738F09F5F5F4F220F331F441F7A
S11313B0AA1FA9F333D00E2E3AF0E0E830D09150B2
S11313C05040E695001CCAF729D0FE2F27D0660F9F
S11313D0771F881FBB1F261737074807AB07B0E8DE
S11313E009F0BB0B802DBF01FF2793585F4F2AF0F4
S11313F09E3F510568F085C0F4C05F3FECF3983E12
S1131400DCF3869577956795B795F7959F5FC9F750
S1131410880F911D9695879597F90895E1E0660FD9
S1131420771F881FBB1F621773078407BA0720F052
S1131430621B730B840BBA0BEE1F88F7E0950895BB
S1131440E89409C097FB3EF490958095709561955A
S11314507F4F8F4F9F4F9923A9F0F92F96E9BB2710
S11314609395F695879577956795B795F111F8CF8C
S1131470FAF4BB0F11F460FF1BC06F5F7F4F8F4FF7
S11314809F4F16C0882311F096E911C0772321F0ED
S11314909EE8872F762F05C0662371F096E8862F85
S11314A070E060E02AF09A95660F771F881FDAF7DC
S11314B0880F9695879597F90895990F0008550F09
S11314C0AA0BE0E8FEEF16161706E807F907C0F0C6
S11314D012161306E407F50798F0621B730B840BCE
S11314E0950B39F40A2661F0232B242B252B21F4A8
S11314F008950A2609F4A140A6958FEF811D811D48
S1131500089597F99F6780E870E060E008959FEF81
S113151080EC0895DF93CF931F930F93FF92EF9284
S1131520DF927B018C01689405C0DA2EEF0172D042
S1131530FE01E894A5912591359145915591AEF31D
S1131540EF015DDEFE019701A801DA9479F7DF90DF
S1131550EF90FF900F911F91CF91DF910895002498
S11315600A941616170618060906089500240A9404
S113157012161306140605060895092E0394000C8A
S113158011F4882352F0BB0F40F4BF2B11F460FF19
S113159004C06F5F7F4F8F4F9F4F089557FD905842
S11315A0440F551F59F05F3F71F04795880F97FB23
S11315B0991F61F09F3F79F08795089512161306DD
S11315C01406551FF2CF4695F1DF08C0161617060C
S11315D01806991FF1CF8695710561050894089541
S11315E0E894BB2766277727CB0197F908959B01D9
S11315F0AC0160E070E080E89FE3BACE0BD0BDCFD1
S1131600AEDF28F0B3DF18F0952309F07ACF7FCF4F
S11316101124E7CFC3DFA0F3959FD1F3950F50E0DA
S1131620551F629FF001729FBB27F00DB11D639F90
S1131630AA27F00DB11DAA1F649F6627B00DA11D36
S1131640661F829F2227B00DA11D621F739FB00DDC
S1131650A11D621F839FA00D611D221F749F33274C
S1131660A00D611D231F849F600D211D822F762FE5
S11316706A2F11249F5750408AF0E1F088234AF0E2
S1131680EE0FFF1FBB1F661F771F881F915050402E
S1131690A9F79E3F510570F034CFA3CF5F3FECF321
S11316A0983EDCF3869577956795B795F795E7951A
S11316B09F5FC1F7FE2B880F911D9695879597F92B
S10F16C008959B01AC019ACFF894FFCF71
S10516CC010017
S9030000FC
