:1000000029C043C042C041C040C03FC03EC03DC007
:100010003CC03BC03AC04AC438C0E8C436C035C052
:1000200034C033C032C0084AD73B3BCE016E84BCDB
:10003000BFFDC12F3D6C74319ABD56833DDA3D0042
:10004000C77F11BED9E4BB4C3E916BAAAABE00008B
:1000500000803F0011241FBECFE5D4E0DEBFCDBF3E
:1000600010E0A0E6B0E0ECE8F6E102C005900D92E9
:10007000A236B107D9F721E0A2E6B0E001C01D9297
:10008000AF33B207E1F7DFD4FFCABACF24EA26BF05
:1000900006B607FC0EC0009761F0E9EFF0E031977B
:1000A000F1F700C00000019706B607FC02C00097F8
:1000B000A1F781B1887F089583B984E886BF06B629
:1000C00007FC11C06115710571F089EF90E001978F
:1000D000F1F700C000006150710906B607FC03C0CB
:1000E0006115710591F781B1887F089524EC26BFD1
:1000F00006B607FC0EC0009761F0E9EFF0E031971B
:10010000F1F700C00000019706B607FC02C0009797
:10011000A1F783B1089524E826BF06B607FC0EC0F8
:10012000009761F0E9EFF0E03197F1F700C00000CF
:10013000019706B607FC02C00097A1F783B10895A6
:1001400024E926BF06B604FE0EC0009761F0E9EF71
:10015000F0E03197F1F700C00000019706B604FE09
:1001600002C00097A1F7089581E081B989EF80B9B5
:1001700084E086BF089511B810B816BE0895DF92C6
:10018000EF92FF920F931F93CF93DF93D82EEB0143
:100190008A01F1DFE9DF209799F0E12CF12CC80109
:1001A00075DF883019F4B8018D2D86DF883129F488
:1001B000C801C6DF8FEFE81AF80A219781F702C05D
:1001C000E12CF12C81E0EF2809F480E0DF91CF9160
:1001D0001F910F91FF90EF90DF9008952F923F9223
:1001E0004F925F926F927F928F929F92AF92BF9247
:1001F000CF92DF92EF92FF920F931F93CF93DF93F3
:10020000C82F2A013B01D22F1501A50161E070E042
:10021000B6DF813009F096C0C50138DFD83041F52E
:10022000883099F4D301C201689416F8B695A79561
:10023000979587951694D1F78E70B5018C2B3CDF7E
:10024000812C912C5401839403C0812C912C540156
:10025000883141F4B101842D2FDF9FEF891A990A6B
:10026000A90AB90AC114D104E104F10481F543C01B
:100270008830A1F4D301C201072E7FE0B695A7957F
:10028000979587957A95D1F7702D8270B5018C2B53
:1002900013DF812C912C5401839403C0812C912C69
:1002A0005401883141F4B101852D06DFEFEF8E1A3C
:1002B0009E0AAE0ABE0A883209F048C0B101842DF8
:1002C000FBDEFFEF8F1A9F0AAF0ABF0ACBCF2601D2
:1002D0003701883251F4B101F80181918F01ECDED0
:1002E000FFEF8F1A9F0AAF0ABF0A91E0491A51081F
:1002F0006108710871F7883239F4C10121DFEFEF2D
:100300008E1A9E0AAE0ABE0AD83069F4F3E0CF0E08
:10031000D11CE11CF11C81E0C814D904EA04FB04DF
:10032000E1F080E01AC0D03179F484E0C80ED11C2D
:10033000E11CF11C81E0C814D904EA04FB0469F053
:1003400080E00BC080E009C080E007C0C114D10488
:10035000E104F10409F0BBCFE6CFDF91CF911F910B
:100360000F91FF90EF90DF90CF90BF90AF909F9054
:100370008F907F906F905F904F903F902F90089557
:100380002F923F924F925F926F927F928F929F92A5
:10039000AF92BF92CF92DF92EF92FF920F931F9393
:1003A000CF93DF93C82F2A013B01D22F1501A5015E
:1003B00061E070E0E4DE813009F0C1C0C50166DEB5
:1003C000D83019F5883099F4D301C201689416F831
:1003D000B695A795979587951694D1F78E70B50128
:1003E0008C2B6ADE812C912C5401839403C0812CC8
:1003F000912C54018831B1F5B101842D5DDE9FEF60
:10040000891A990AA90AB90A2DC08830A1F4D30122
:10041000C201072E7FE0B695A795979587957A95A7
:10042000D1F7702D8270B5018C2B46DE812C912C7A
:100430005401839403C0812C912C5401883141F4E0
:10044000B101852D39DEEFEF8E1A9E0AAE0ABE0A83
:10045000883289F4B101842D2FDEFFEF8F1A9F0AB5
:10046000AF0ABF0A883239F4C10110DE9FEF891A42
:10047000990AA90AB90A803149F4B1018C2F816027
:100480001BDEEFEF8E1A9E0AAE0ABE0AF2E0CF160E
:10049000D104E104F104E8F026013701982F9F7E92
:1004A000903461F4C10122DEF80181938F0181B1A2
:1004B000887FFFEF8F1A9F0AAF0ABF0A91E0491A9F
:1004C000510861087108E1E04E165104610471049D
:1004D00029F7982F9F7E903459F4C1011CDEF80152
:1004E000808381B1887FFFEF8F1A9F0AAF0ABF0A0E
:1004F000883539F4C10124DE8FEF881A980AA80ADA
:10050000B80AD83069F495E0C90ED11CE11CF11C81
:1005100081E0C814D904EA04FB04A1F080E012C011
:10052000D03179F4E6E0CE0ED11CE11CF11C81E063
:10053000C814D904EA04FB0429F080E003C080E079
:1005400001C080E0DF91CF911F910F91FF90EF905C
:10055000DF90CF90BF90AF909F908F907F906F90E3
:100560005F904F903F902F9008954F925F926F92BF
:100570007F928F929F92AF92BF92CF92DF92EF9233
:10058000FF920F931F93CF93DF93CDB7DEB7A09762
:100590000FB6F894DEBF0FBECDBF6D877E878F8705
:1005A000988BCA01B901E986FA860B871C872091CE
:1005B00076003091770040917800509179002D8B32
:1005C0003E8B4F8B588FE9D5A8019701F7D7209123
:1005D0007200309173004091740050917500DED527
:1005E000698F7A8F8B8F9C8FC0906E00D0906F0038
:1005F000E0907000F0907100A701960169857A85FE
:100600008B859C85DBD769837A838B839C83409021
:10061000660050906700609068007090690080905C
:100620006A0090906B00A0906C00B0906D00A301E8
:100630009201B3D5A5019401B0D52AE037ED43E28C
:100640005CE3ACD529853A854B855C85B7D7E2E676
:10065000F0E02081318142815381A0D56D837E837A
:100660008F83988729813A814B815C81C301B201D4
:1006700094D52B013C0129813A814B815C81C501D4
:10068000B4018BD56D8F7E8F8F8F98A32DEC3CECB2
:100690004CEC5EE36D817E818F8198857FD54B0127
:1006A0005C019B01AC016D817E818F81988540D674
:1006B00069837A838B839C83A50194016D8D7E8DE4
:1006C0008F8D98A135D6698B7A8B8B8B9C8B298DDE
:1006D0003A8D4B8D5C8D6D857E858F8598895DD536
:1006E0006D877E878F87988B9B01AC0169817A81AA
:1006F0008B819C8163D7298D3A8D4B8D5C8D4ED536
:100700004B015C01609372007093730080937400DE
:10071000909375002D853E854F85588969897A8922
:100720008B899C894BD72D893E894F89588D36D529
:1007300060937600709377008093780090937900AF
:1007400029813A814B815C816D817E818F81988581
:1007500035D79B01AC016D817E818F8198851DD538
:10076000E2E6F0E0608371838283938329813A819A
:100770004B815C81C301B20121D79B01AC01C30154
:10078000B2010BD560936600709367008093680098
:100790009093690029893A894B895C896D817E81B2
:1007A0008F8198850BD79B01AC016D8D7E8D8F8DD0
:1007B00098A1F3D460936A0070936B0080936C00EF
:1007C00090936D002DEC3CEC4CE45DE369857A85FB
:1007D0008B859C85F3D6A7019601E0D46B017C0143
:1007E00029893A894B895C89C301B201E7D69B010B
:1007F000AC01C701B601D1D460936E0070936F0055
:100800008093700090937100C501B401A0960FB65B
:10081000F894DEBF0FBECDBFDF91CF911F910F9136
:10082000FF90EF90DF90CF90BF90AF909F908F9010
:100830007F906F905F904F900895CF93DF9300D09B
:1008400000D0CDB7DEB769837A838B839C83FE01AA
:100850003196DA01A20FB31F9E012B5F3F4F8191AA
:100860008D93E217F307D9F70F900F900F900F9029
:10087000DF91CF9108956623B9F0FC01615070E0DB
:100880006F5F7F4F680F791F80E04CE8219198E0FF
:10089000322F38278695269530FD84279150C1F751
:1008A000E617F70799F7089580E008951F920F92D1
:1008B0000FB60F9211242F933F934F935F936F9333
:1008C0007F938F939F93AF93BF93CF93DF93EF93D8
:1008D000FF93519B07C01092D3008CB18093C1004D
:1008E00080E00AC08091D300E82FF0E09CB1EF5384
:1008F000FF4F9083863020F48F5F8093D30063C0D6
:1009000081E080937B009091C100809160009813FA
:100910005AC080917B00882309F455C066E081ECC1
:1009200090E0A9DF9091C70089134DC0E1ECF0E0A1
:10093000828180937A0083818F3689F480917C0054
:100940008A3030F480917C008F5F80937C0009C0F6
:100950008091C5008093600010927C0002C01092CC
:100960007C0087E0E1ECF0E0DF01982F1D929A9582
:10097000E9F7929ACAECD0E0DE011D928A95E9F778
:10098000809160008883609133017091340180917F
:1009900035019091360121E030E0AE014EDF8091CB
:1009A00060008D8366E0CE0166DF8E83E6E6FEE0C2
:1009B0003197F1F7000010927B00509A86E0809307
:1009C000C00088818CB9FF91EF91DF91CF91BF91E9
:1009D000AF919F918F917F916F915F914F913F91D7
:1009E0002F910F900FBE0F901F9018951F920F928E
:1009F0000FB60F9211248F93EF93FF938091C00055
:100A0000882379F081508093C00050988091C00075
:100A1000E6E0F0E0E81BF109E653FF4F80818CB976
:100A200001C09298FF91EF918F910F900FBE0F90A0
:100A30001F90189590BD89B98AB18C6D8AB980B51F
:100A4000866880BD089578948FEF84BB83E084BB73
:100A500084E690E032D28FE290E0ECDF8A9A8B9AC3
:100A6000939A64E170E088EC90E0C5D264E170E0B4
:100A700084E990E0E3D264E170E08AE890E001D399
:100A800064E170E08BE091E01FD364E170E08FE1FE
:100A900091E03DD364E170E086E990E05BD3939808
:100AA00060918A0070918B00719561957109072E94
:100AB000000C880B990BA6D44B015C01609194004B
:100AC00070919500719561957109072E000C880B46
:100AD000990B98D46B017C01A5019401D2D32BED25
:100AE0003FE049E450E45AD321EE3EE245E652E4C9
:100AF00065D560939E0070939F008093A0009093B3
:100B0000A1006091C8007091C9007195619571094B
:100B1000072E000C880B990B75D42B013C01A50105
:100B20009401AFD32BED3FE049E450E437D321EEFD
:100B30003EE245E652E442D54B015C016093E000A1
:100B40007093E1008093E2009093E300A30192018F
:100B5000C701B60196D32BED3FE049E450E41ED324
:100B600021EE3EE245E652E429D56093B100709350
:100B7000B2008093B3009093B40060910B01709128
:100B80000C01072E000C880B990B3CD423E333E3B4
:100B900043E851E4CDD36093DC007093DD00809393
:100BA000DE009093DF0060911F0170912001072EFD
:100BB000000C880B990B26D423E333E343E851E47C
:100BC000B7D32B013C016093E8007093E900809358
:100BD000EA009093EB006091960070919700072EC9
:100BE000000C880B990B0ED423E333E343E851E464
:100BF0009FD36093F6007093F7008093F800909372
:100C0000F900E12CF12C0CED12E4A3019201C501D5
:100C1000B401ABDC609333017093340180933501F0
:100C20009093360180917A008A3FA9F46091330154
:100C300070913401809135019091360120E030E0CF
:100C400044EB52E4AAD26093330170933401809351
:100C50003501909336016091330170913401809198
:100C600035019091360120E030E044E353E45CD359
:100C700018168CF08091330190913401A0913501C8
:100C8000B09136018093330190933401A0933501E4
:100C9000B093360115C06091330170913401809199
:100CA00035019091360120E030E044EB53E475D2F9
:100CB0006093330170933401809335019093360132
:100CC00080917A00CDCE80913B01813099F028F05F
:100CD0008230E9F0833041F134C080E090E0A0E858
:100CE000B6E48093810090938200A0938300B09338
:100CF000840033C080E090E0A0E0B6E480938100FF
:100D000090938200A0938300B093840026C080E07B
:100D100090E0A0E8B5E48093810090938200A093D6
:100D20008300B093840019C080E090E0A0E0B5E4B7
:100D30008093810090938200A0938300B0938400FD
:100D40000CC080E090E0A0E8B6E48093810090932E
:100D50008200A0938300B093840080913A01813097
:100D600099F028F08230E9F0833041F134C080E01E
:100D700090E0A3E0B3E480937D0090937E00A09385
:100D80007F00B0938000089580E090E0A3E8B2E493
:100D900080937D0090937E00A0937F00B0938000AD
:100DA000089583E393E3A3E0B2E480937D009093FE
:100DB0007E00A0937F00B0938000089583E393E3C7
:100DC000A3E8B1E480937D0090937E00A0937F0020
:100DD000B0938000089580E090E0A3E0B3E48093B6
:100DE0007D0090937E00A0937F00B09380000895D3
:100DF000AC0165E070E080EDC2D90895AF92BF927A
:100E0000CF92DF92EF92FF920F931F93CF93DF93D6
:100E10001F92CDB7DEB7182F69835A011092850053
:100E2000CA01E6DF813081F4412F50E060E070E0DC
:100E3000C12CD12C7601C3948E010F5F1F4F28E087
:100E400080EDCCD980938500809185000F90DF9153
:100E5000CF911F910F91FF90EF90DF90CF90BF90B7
:100E6000AF900895AF92BF92CF92DF92EF92FF9230
:100E70000F931F93CF93C82F8B01C42E590110924B
:100E80008500C901B5DF813061F4D12CE12CF12C52
:100E90004C2F50E060E070E028E080ED71DA809344
:100EA000850080918500CF911F910F91FF90EF9069
:100EB000DF90CF90BF90AF900895AF92BF92CF9246
:100EC000DF92EF92FF920F931F93CF93DF938C01EA
:100ED0004BD9C7E3D1E018821A821E8219820F2EE5
:100EE000FCE3AF2EF1E0BF2EF02DF50180818C7F69
:100EF0008B7F808383E08B831C8281E08F83A801BA
:100F000060E088E37BDF8093850068816150A80101
:100F100089E174DF90918500890F809385006B8152
:100F2000660F660F660FA8018BE168DF9091850060
:100F3000890F809385006C81660F660F660FA8018C
:100F40008CE15CDF90918500890F80938500698139
:100F5000660F660F660F8A81682BA8018AE14EDF53
:100F600090918500890F80938500F5018081682F1D
:100F700067956627679581FBCC24C0F8D12C0024A7
:100F8000D694C7940794D694C7940794DC2CC02CAD
:100F9000C62A82FBEE24E0F8F12CEE0CFF1CEE0CCE
:100FA000FF1CEE0CFF1CEE0CFF1CEE0CFF1C6C2D4E
:100FB0006E29A80187E322DF90918500890F809335
:100FC0008500A8016F818BE619DF90918500890F5C
:100FD00080938500873019F476DE81E001C080E0DF
:100FE000DF91CF911F910F91FF90EF90DF90CF9005
:100FF000BF90AF9008950F931F93CF93DF9300D0CE
:10100000CDB7DEB78C019B0142E0BE016F5F7F4F21
:101010008BE328DF813051F4298130E0322F222701
:101020009A81292BF8013183208301C080E00F9041
:101030000F90DF91CF911F910F9108950F931F9300
:10104000CF93DF9300D0CDB7DEB78C019B0142E098
:10105000BE016F5F7F4F8DE305DF813051F4298141
:1010600030E0322F22279A81292BF8013183208307
:1010700001C080E00F900F90DF91CF911F910F91F1
:1010800008950F931F93CF93DF9300D0CDB7DEB7B2
:101090008C019B0142E0BE016F5F7F4F8FE3E2DE78
:1010A000813051F4298130E0322F22279A81292B77
:1010B000F8013183208301C080E00F900F90DF9111
:1010C000CF911F910F9108950F931F93CF93DF93AB
:1010D00000D0CDB7DEB78C019B0142E0BE016F5F4F
:1010E0007F4F83E4BFDE813051F4298130E0322F1D
:1010F00022279A81292BF8013183208301C080E0C7
:101100000F900F90DF91CF911F910F9108950F9342
:101110001F93CF93DF9300D0CDB7DEB78C019B0137
:1011200042E0BE016F5F7F4F85E49CDE813051F469
:10113000298130E0322F22279A81292BF80131832F
:10114000208301C080E00F900F90DF91CF911F911D
:101150000F9108950F931F93CF93DF9300D0CDB7D6
:10116000DEB78C019B0142E0BE016F5F7F4F87E4D9
:1011700079DE813051F4298130E0322F22279A81A3
:10118000292BF8013183208301C080E00F900F905C
:10119000DF91CF911F910F9108955058BB27AA2737
:1011A0000ED0CBC1BCD130F0C1D120F031F49F3F83
:1011B00011F41EF48CC10EF4E095E7FB82C1E92F17
:1011C000CDD180F3BA17620773078407950718F02B
:1011D00071F49EF5E5C10EF4E0950B2EBA2FA02D0B
:1011E0000B01B90190010C01CA01A0011124FF27D4
:1011F000591B99F0593F50F4503E68F11A16F040CF
:10120000A22F232F342F4427585FF3CF46953795CD
:101210002795A795F0405395C9F77EF41F16BA0B92
:10122000620B730B840BBAF09150A1F0FF0FBB1F40
:10123000661F771F881FC2F70EC0BA0F621F731F89
:10124000841F48F4879577956795B795F7959E3FE6
:1012500008F0B3CF9395880F08F09927EE0F979574
:10126000879508955CD158F080E891E009F49EEFED
:101270005DD128F040E851E059F45EEF09C027C184
:101280008FC1E92FE0786AD168F3092E052AC1F3EE
:10129000261737074807590738F00E2E07F8E025BC
:1012A00069F0E025E0640AC0EF6307F8009407FAEC
:1012B000DB01B9019D01DC01CA01AD01EF9347D00B
:1012C0003CD10AD05F91552331F02BED3FE049E44A
:1012D00050FD49EC63CF0895DF93DD27B92FBF7729
:1012E00040E85FE31616170648075B0710F4D92F8E
:1012F0005ED19F938F937F936F93C3D1E6E2F0E02B
:10130000E9D01BD12F913F914F915F9163D1DD23A4
:1013100049F09058A2EA2AED3FE049EC5FE3D0782B
:101320005D274DDFDF9109C1A8D008F481E0089561
:101330000CD003C1FBD040F0F2D030F021F45F3F7D
:1013400019F0BFC051112DC1C2C008D198F3992323
:10135000C9F35523B1F3951B550BBB27AA27621779
:101360007307840738F09F5F5F4F220F331F441FBE
:10137000AA1FA9F333D00E2E3AF0E0E830D09150F6
:101380005040E695001CCAF729D0FE2F27D0660FE3
:10139000771F881FBB1F261737074807AB07B0E822
:1013A00009F0BB0B802DBF01FF2793585F4F2AF038
:1013B0009E3F510568F085C0F4C05F3FECF3983E56
:1013C000DCF3869577956795B795F7959F5FC9F795
:1013D000880F911D9695879597F90895E1E0660F1E
:1013E000771F881FBB1F621773078407BA0720F097
:1013F000621B730B840BBA0BEE1F88F7E095089500
:10140000E89409C097FB3EF490958095709561959E
:101410007F4F8F4F9F4F9923A9F0F92F96E9BB2754
:101420009395F695879577956795B795F111F8CFD0
:10143000FAF4BB0F11F460FF1BC06F5F7F4F8F4F3B
:101440009F4F16C0882311F096E911C0772321F031
:101450009EE8872F762F05C0662371F096E8862FC9
:1014600070E060E02AF09A95660F771F881FDAF720
:10147000880F9695879597F90895990F0008550F4D
:10148000AA0BE0E8FEEF16161706E807F907C0F00A
:1014900012161306E407F50798F0621B730B840B12
:1014A000950B39F40A2661F0232B242B252B21F4EC
:1014B00008950A2609F4A140A6958FEF811D811D8C
:1014C000089597F99F6780E870E060E008959FEFC6
:1014D00080EC0895DF93CF931F930F93FF92EF92C9
:1014E000DF927B018C01689405C0DA2EEF0172D087
:1014F000FE01E894A5912591359145915591AEF362
:10150000EF015DDEFE019701A801DA9479F7DF9023
:10151000EF90FF900F911F91CF91DF9108950024DC
:101520000A941616170618060906089500240A9448
:1015300012161306140605060895092E0394000CCE
:1015400011F4882352F0BB0F40F4BF2B11F460FF5D
:1015500004C06F5F7F4F8F4F9F4F089557FD905886
:10156000440F551F59F05F3F71F04795880F97FB67
:10157000991F61F09F3F79F0879508951216130621
:101580001406551FF2CF4695F1DF08C01616170650
:101590001806991FF1CF8695710561050894089585
:1015A000E894BB2766277727CB0197F908959B011D
:1015B000AC0160E070E080E89FE3BACE0BD0BDCF15
:1015C000AEDF28F0B3DF18F0952309F07ACF7FCF94
:1015D0001124E7CFC3DFA0F3959FD1F3950F50E01F
:1015E000551F629FF001729FBB27F00DB11D639FD5
:1015F000AA27F00DB11DAA1F649F6627B00DA11D7B
:10160000661F829F2227B00DA11D621F739FB00D20
:10161000A11D621F839FA00D611D221F749F332790
:10162000A00D611D231F849F600D211D822F762F29
:101630006A2F11249F5750408AF0E1F088234AF026
:10164000EE0FFF1FBB1F661F771F881F9150504072
:10165000A9F79E3F510570F034CFA3CF5F3FECF365
:10166000983EDCF3869577956795B795F795E7955E
:101670009F5FC1F7FE2B880F911D9695879597F96F
:0C16800008959B01AC019ACFF894FFCFB5
:02168C0001005B
:00000001FF
